{
  "address": "0xA407bb11E92ed3c1b3c6F6A42800E998c8F4e1bB",
  "abi": [
    {
      "inputs": [],
      "stateMutability": "nonpayable",
      "type": "constructor"
    },
    {
      "inputs": [],
      "name": "CurrencySendFailure",
      "type": "error"
    },
    {
      "anonymous": false,
      "inputs": [
        {
          "indexed": true,
          "internalType": "address",
          "name": "previousOwner",
          "type": "address"
        },
        {
          "indexed": true,
          "internalType": "address",
          "name": "newOwner",
          "type": "address"
        }
      ],
      "name": "OwnershipTransferred",
      "type": "event"
    },
    {
      "anonymous": false,
      "inputs": [
        {
          "indexed": true,
          "internalType": "address",
          "name": "owner",
          "type": "address"
        },
        {
          "indexed": true,
          "internalType": "uint256",
          "name": "eventID",
          "type": "uint256"
        }
      ],
      "name": "eventCreated",
      "type": "event"
    },
    {
      "inputs": [
        {
          "internalType": "address",
          "name": "currency",
          "type": "address"
        },
        {
          "internalType": "uint256",
          "name": "valueToWithdraw",
          "type": "uint256"
        }
      ],
      "name": "adminWithdrawal",
      "outputs": [],
      "stateMutability": "nonpayable",
      "type": "function"
    },
    {
      "inputs": [
        {
          "internalType": "address",
          "name": "owner",
          "type": "address"
        },
        {
          "internalType": "uint256",
          "name": "start",
          "type": "uint256"
        },
        {
          "internalType": "uint256",
          "name": "offset",
          "type": "uint256"
        }
      ],
      "name": "allOwnersEvents",
      "outputs": [
        {
          "internalType": "uint256[]",
          "name": "",
          "type": "uint256[]"
        }
      ],
      "stateMutability": "view",
      "type": "function"
    },
    {
      "inputs": [
        {
          "internalType": "string",
          "name": "ticketNFTName",
          "type": "string"
        },
        {
          "internalType": "string",
          "name": "ticketNFTSymbol",
          "type": "string"
        },
        {
          "components": [
            {
              "internalType": "uint256",
              "name": "id",
              "type": "uint256"
            },
            {
              "internalType": "string",
              "name": "name",
              "type": "string"
            },
            {
              "internalType": "string",
              "name": "desc",
              "type": "string"
            },
            {
              "internalType": "enum Types.EventTypes",
              "name": "eventType",
              "type": "uint8"
            },
            {
              "internalType": "string",
              "name": "orgName",
              "type": "string"
            },
            {
              "internalType": "string",
              "name": "logo",
              "type": "string"
            },
            {
              "internalType": "string",
              "name": "email",
              "type": "string"
            },
            {
              "internalType": "uint256",
              "name": "date",
              "type": "uint256"
            },
            {
              "internalType": "string",
              "name": "website",
              "type": "string"
            },
            {
              "internalType": "uint256",
              "name": "ticketsSold",
              "type": "uint256"
            },
            {
              "internalType": "uint256",
              "name": "maxCapacity",
              "type": "uint256"
            },
            {
              "internalType": "address",
              "name": "owner",
              "type": "address"
            }
          ],
          "internalType": "struct Types.EventStruct",
          "name": "eventDetails",
          "type": "tuple"
        }
      ],
      "name": "createNewEvent",
      "outputs": [],
      "stateMutability": "payable",
      "type": "function"
    },
    {
      "inputs": [
        {
          "internalType": "uint256",
          "name": "index",
          "type": "uint256"
        }
      ],
      "name": "eventAt",
      "outputs": [
        {
          "internalType": "address",
          "name": "value",
          "type": "address"
        }
      ],
      "stateMutability": "view",
      "type": "function"
    },
    {
      "inputs": [],
      "name": "eventCreationFee",
      "outputs": [
        {
          "internalType": "uint256",
          "name": "",
          "type": "uint256"
        }
      ],
      "stateMutability": "view",
      "type": "function"
    },
    {
      "inputs": [],
      "name": "eventsSize",
      "outputs": [
        {
          "internalType": "uint256",
          "name": "size",
          "type": "uint256"
        }
      ],
      "stateMutability": "view",
      "type": "function"
    },
    {
      "inputs": [
        {
          "internalType": "address",
          "name": "ownerAddress",
          "type": "address"
        }
      ],
      "name": "getOwnedTickets",
      "outputs": [
        {
          "components": [
            {
              "internalType": "uint256",
              "name": "eventId",
              "type": "uint256"
            },
            {
              "internalType": "uint256",
              "name": "startTicket",
              "type": "uint256"
            },
            {
              "internalType": "uint256",
              "name": "endTicket",
              "type": "uint256"
            }
          ],
          "internalType": "struct EventManager.TicketSale[]",
          "name": "",
          "type": "tuple[]"
        }
      ],
      "stateMutability": "view",
      "type": "function"
    },
    {
      "inputs": [],
      "name": "owner",
      "outputs": [
        {
          "internalType": "address",
          "name": "",
          "type": "address"
        }
      ],
      "stateMutability": "view",
      "type": "function"
    },
    {
      "inputs": [
        {
          "internalType": "address",
          "name": "ownerAddress",
          "type": "address"
        },
        {
          "internalType": "uint256",
          "name": "eventId",
          "type": "uint256"
        },
        {
          "internalType": "uint256",
          "name": "ticketStart",
          "type": "uint256"
        },
        {
          "internalType": "uint256",
          "name": "ticketEnd",
          "type": "uint256"
        }
      ],
      "name": "recordTicketsale",
      "outputs": [],
      "stateMutability": "nonpayable",
      "type": "function"
    },
    {
      "inputs": [],
      "name": "renounceOwnership",
      "outputs": [],
      "stateMutability": "nonpayable",
      "type": "function"
    },
    {
      "inputs": [
        {
          "internalType": "uint256",
          "name": "newEventCreationFee",
          "type": "uint256"
        }
      ],
      "name": "setEventCreationFee",
      "outputs": [],
      "stateMutability": "nonpayable",
      "type": "function"
    },
    {
      "inputs": [
        {
          "internalType": "address",
          "name": "newOwner",
          "type": "address"
        }
      ],
      "name": "transferOwnership",
      "outputs": [],
      "stateMutability": "nonpayable",
      "type": "function"
    }
  ],
  "transactionHash": "0xc1651c4125f3270f61bd44d1b517f240e6b96ec91dbd34d744fa9b58621eff23",
  "args": [],
  "numDeployments": 1,
  "solcInputHash": "b81fb359299277278c2d09cf76dc8549",
  "bytecode": "0x6080806040523461005f5760008054336001600160a01b0319821681178355906001600160a01b03167f8be0079c531659141344cd1fd0a4f28419497f9722a3daafe3b4186f6b6457e08380a38060065560055561559c90816100658239f35b600080fdfe60808060405260043610156200001457600080fd5b600090813560e01c9081630c3fabeb1462000c105750806332b1ea321462000bdb57806337307c3d1462000ac85780634527746f14620009c957806360c04ce214620009a2578063715018a614620009445780638da5cb5b146200091b5780638ff6212914620008fb5780639c25a5e914620003bf578063d4cfd7b714620002ff578063e4f5e2f6146200017c5763f2fde38b14620000b257600080fd5b34620001795760203660031901126200017957620000cf62000c2e565b620000d962000d07565b6001600160a01b03908116908115620001255782546001600160a01b0319811683178455167f8be0079c531659141344cd1fd0a4f28419497f9722a3daafe3b4186f6b6457e08380a380f35b60405162461bcd60e51b815260206004820152602660248201527f4f776e61626c653a206e6577206f776e657220697320746865207a65726f206160448201526564647265737360d01b6064820152608490fd5b80fd5b50346200017957606036600319011262000179576200019a62000c2e565b6001600160a01b0316808252600360208181526040842054602494604435949093863593928681861015620002f6575b620001d782918762000dd1565b11620002df575b50620001ea8662000e03565b91620001fa604051938462000c7c565b868352620002088762000e03565b83850190601f1901368237855b62000221898862000dd1565b8110156200029b578288528386526200023e8160408a2062000da2565b905490851b1c62000250888362000df5565b8651811015620002885760051b86018701526000198114620002755760010162000215565b634e487b7160e01b885260116004528988fd5b634e487b7160e01b8a5260326004528b8afd5b8486838a60405193838594850191818652518092526040850193925b828110620002c757505050500390f35b835185528695509381019392810192600101620002b7565b620002ee919650849062000df5565b9438620001de565b869550620001ca565b50346200017957608036600319011262000179576001600160a01b036200032562000c2e565b16815260046020526040812090604051620003408162000c4a565b6024358152602081016044358152604082019060643582528454600160401b811015620003ab5760018101808755811015620003975784956002949552600360208720910201935184555160018401555191015580f35b634e487b7160e01b85526032600452602485fd5b634e487b7160e01b85526041600452602485fd5b50600319606036820112620008f7576004356001600160401b038111620008f357620003f090369060040162000cba565b906024356001600160401b038111620008eb576200041390369060040162000cba565b906001600160401b0360443511620008eb576101809060443536030112620008f3576040519061018082018281106001600160401b03821117620003ab57604052604435600401358252602460443501356001600160401b038111620008ef57620004879060043691604435010162000cba565b60208301526044803501356001600160401b038111620008ef57620004b59060043691604435010162000cba565b6040830152606460443501356002811015620008ef576060830152608460443501356001600160401b038111620008ef57620004fa9060043691604435010162000cba565b608083015260a460443501356001600160401b038111620008ef57620005299060043691604435010162000cba565b60a083015260c460443501356001600160401b038111620008ef57620005589060043691604435010162000cba565b60c083015260e4604435013560e08301526001600160401b03610104604435013511620008eb5762000597366044356101048101350160040162000cba565b61010083015260443561012481013561012084015261014481013561014084015261016401356001600160a01b0381169003620008eb57610164604435013561016083015260055480620008ad575b506001600254018060025533610160840152825260065491604051938461474b8101106001600160401b0361474b87011117620008995761474b62000e1c863960a061474b860152815160a061474b870101526200067f62000662602084015161018060c061474b8a01015261022061474b8901019062000d60565b604084015161474b8801808303609f190160e09091015262000d60565b60608301516002811015620008855792869594926200074462000714620006f6620006d86200078c96620007a3996101008d61474b01015260808701518c610120609f1961474b83018503019161474b01015262000d60565b60a086015161474b8c01808303609f19016101409091015262000d60565b60c085015161474b8b01808303609f19016101609091015262000d60565b60e084015161018061474b8b010152610100840151609f1961474b8b018303016101a061474b8c01015262000d60565b61012083015161474b89016101c08101919091526101408401516101e0820152610160909301516001600160a01b031661020084015282810360209093019290925262000d60565b9061474b85018203604061474b8701015262000d60565b9030606061474b85010152608061474b84010152039082f08015620008785760025482526001602052604082209060018060a01b03166bffffffffffffffffffffffff60a01b82541617905533815260036020526040812060025490805490600160401b821015620008645790620008219160018201815562000da2565b819291549060031b600019811b9283911b16911916179055600254337f6c187a21126f97259f4571813b2fd10bb11732bf880540a1b462dced7a21b5dd8380a380f35b634e487b7160e01b84526041600452602484fd5b50604051903d90823e3d90fd5b634e487b7160e01b88526021600452602488fd5b634e487b7160e01b86526041600452602486fd5b3410620008bb5738620005e6565b60405162461bcd60e51b8152602060048201526008602482015267454d3a4e4f46454560c01b6044820152606490fd5b8380fd5b8480fd5b8280fd5b5080fd5b503462000179578060031936011262000179576020600554604051908152f35b50346200017957806003193601126200017957546040516001600160a01b039091168152602090f35b503462000179578060031936011262000179576200096162000d07565b80546001600160a01b03198116825581906001600160a01b03167f8be0079c531659141344cd1fd0a4f28419497f9722a3daafe3b4186f6b6457e08280a380f35b5034620001795760203660031901126200017957620009c062000d07565b60043560055580f35b50346200017957602090816003193601126200017957906001600160a01b03620009f262000c2e565b1682526004815260408220805462000a0a8162000e03565b9062000a1a604051928362000c7c565b8082528382018093865284862086915b83831062000a8557505050506040519280840191818552518092526040840192945b82811062000a5a5784840385f35b8551805185528083015185840152604090810151908501529481019460609093019260010162000a4c565b60038760019260409a9997989a5162000a9e8162000c4a565b85548152848601548382015260028601546040820152815201920192019190969493959662000a2a565b50346200017957604036600319011262000179578062000ae762000c2e565b816024359162000af662000d07565b6001600160a01b03168062000b5a5750808092335af13d1562000b54573d62000b1f8162000c9e565b9062000b2f604051928362000c7c565b81528260203d92013e5b1562000b425780f35b60405163036b46f360e01b8152600490fd5b62000b39565b9050606460209260405194859384926323b872dd60e01b845230600485015233602485015260448401525af1801562000bd05762000b96575080f35b6020813d821162000bc7575b8162000bb16020938362000c7c565b81010312620008f7575180151503620001795780f35b3d915062000ba2565b6040513d84823e3d90fd5b5034620001795760203660031901126200017957602090600435815260018252604060018060a01b0391205416604051908152f35b905034620008f75781600319360112620008f7576020906002548152f35b600435906001600160a01b038216820362000c4557565b600080fd5b606081019081106001600160401b0382111762000c6657604052565b634e487b7160e01b600052604160045260246000fd5b90601f801991011681019081106001600160401b0382111762000c6657604052565b6001600160401b03811162000c6657601f01601f191660200190565b81601f8201121562000c455780359062000cd48262000c9e565b9262000ce4604051948562000c7c565b8284526020838301011162000c4557816000926020809301838601378301015290565b6000546001600160a01b0316330362000d1c57565b606460405162461bcd60e51b815260206004820152602060248201527f4f776e61626c653a2063616c6c6572206973206e6f7420746865206f776e65726044820152fd5b919082519283825260005b84811062000d8d575050826000602080949584010152601f8019910116010190565b60208183018101518483018201520162000d6b565b805482101562000dbb5760005260206000200190600090565b634e487b7160e01b600052603260045260246000fd5b9190820180921162000ddf57565b634e487b7160e01b600052601160045260246000fd5b9190820391821162000ddf57565b6001600160401b03811162000c665760051b6020019056fe60806040523462000e09576200474b80380390816200001e8162000e0e565b91823960a081838101031262000e095780516001600160401b03811162000e09578101916101808084838501031262000e09576040519081016001600160401b038111828210176200072b576040528351815260208401516001600160401b03811162000e0957620000969083850190860162000e34565b602082015260408401516001600160401b03811162000e0957620000c09083850190860162000e34565b60408201526060840151600281101562000e0957606082015260808401516001600160401b03811162000e0957620000fe9083850190860162000e34565b608082015260a08401516001600160401b03811162000e0957620001289083850190860162000e34565b60a082015260c08401516001600160401b03811162000e0957620001529083850190860162000e34565b60c082015260e08481015190820152610100808501516001600160401b03811162000e0957620001889084860190870162000e34565b8282015261012085810151908301526101408086015181840152610160909501516001600160a01b038116810362000e095761016083015260208401516001600160401b03811162000e0957620001e59084860190860162000e34565b60408501519093906001600160401b03811162000e09576200020c91860190860162000e34565b6060850151946001600160a01b038616860362000e095760800151845190946001600160401b0382116200072b5760005490600182811c9216801562000dfe575b60208310146200070a5781601f84931162000d9e575b50602090601f831160011462000d225760009262000d16575b50508160011b916000199060031b1c1916176000555b8051906001600160401b0382116200072b5760015490600182811c9216801562000d0b575b60208310146200070a5781601f84931162000caa575b50602090601f831160011462000c2c5760009262000c20575b50508160011b916000199060031b1c1916176001555b620003073362000ea6565b8151600d5560208201518051906001600160401b0382116200072b57600e5490600182811c9216801562000c15575b60208310146200070a5781601f84931162000bb4575b50602090601f831160011462000b365760009262000b2a575b50508160011b916000199060031b1c191617600e555b60408201518051906001600160401b0382116200072b57600f5490600182811c9216801562000b1f575b60208310146200070a5781601f84931162000abe575b50602090601f831160011462000a445760009262000a38575b50508160011b916000199060031b1c191617600f555b6060820151600281101562000a225760ff801960105416911617601055608082015180519060018060401b0382116200072b5760115490600182811c9216801562000a17575b60208310146200070a5781601f849311620009b6575b50602090601f831160011462000938576000926200092c575b50508160011b916000199060031b1c1916176011555b60a08201518051906001600160401b0382116200072b5760125490600182811c9216801562000921575b60208310146200070a5781601f849311620008c0575b50602090601f8311600114620008425760009262000836575b50508160011b916000199060031b1c1916176012555b60c08201518051906001600160401b0382116200072b5760135490600182811c921680156200082b575b60208310146200070a5781601f849311620007c7575b50602090601f83116001146200074d5760009262000741575b50508160011b916000199060031b1c1916176013555b60e0820151601455810151805194906001600160401b0386116200072b57601554600181811c9116801562000720575b60208210146200070a57601f8111620006b1575b50602090601f871160011462000632576200061696916000918362000626575b50508160011b916000199060031b1c1916176015555b8101516017556101600151601880546001600160a01b039283166001600160a01b031991821681179092556000601655601b8054959093169416939093179055601a5562000ea6565b60405161375b908162000ef08239f35b015190503880620005b7565b601560009081526000805160206200468b833981519152929190601f198916905b818110620006985750916001939189620006169a94106200067e575b505050811b01601555620005cd565b015160001960f88460031b161c191690553880806200066f565b9293602060018192878601518155019501930162000653565b60156000526000805160206200468b833981519152601f880160051c81019160208910620006ff575b601f0160051c01905b818110620006f2575062000597565b60008155600101620006e3565b9091508190620006da565b634e487b7160e01b600052602260045260246000fd5b90607f169062000583565b634e487b7160e01b600052604160045260246000fd5b0151905038806200053d565b60136000908152600080516020620046eb8339815191529350601f198516905b818110620007ae575090846001959493921062000794575b505050811b0160135562000553565b015160001960f88460031b161c1916905538808062000785565b929360206001819287860151815501950193016200076d565b6013600052909150600080516020620046eb833981519152601f840160051c8101916020851062000820575b90601f859493920160051c01905b81811062000810575062000524565b6000815584935060010162000801565b9091508190620007f3565b91607f16916200050e565b015190503880620004ce565b6012600090815293506000805160206200466b83398151915291905b601f1984168510620008a4576001945083601f198116106200088a575b505050811b01601255620004e4565b015160001960f88460031b161c191690553880806200087b565b818101518355602094850194600190930192909101906200085e565b60126000529091506000805160206200466b833981519152601f840160051c81016020851062000919575b90849392915b601f830160051c8201811062000909575050620004b5565b60008155859450600101620008f1565b5080620008eb565b91607f16916200049f565b0151905038806200045f565b601160009081529350600080516020620046ab83398151915291905b601f19841685106200099a576001945083601f1981161062000980575b505050811b0160115562000475565b015160001960f88460031b161c1916905538808062000971565b8181015183556020948501946001909301929091019062000954565b6011600052909150600080516020620046ab833981519152601f840160051c81016020851062000a0f575b90849392915b601f830160051c82018110620009ff57505062000446565b60008155859450600101620009e7565b5080620009e1565b91607f169162000430565b634e487b7160e01b600052602160045260246000fd5b015190503880620003d4565b600f60009081526000805160206200472b8339815191529350601f198516905b81811062000aa5575090846001959493921062000a8b575b505050811b01600f55620003ea565b015160001960f88460031b161c1916905538808062000a7c565b9293602060018192878601518155019501930162000a64565b600f6000529091506000805160206200472b833981519152601f840160051c81016020851062000b17575b90849392915b601f830160051c8201811062000b07575050620003bb565b6000815585945060010162000aef565b508062000ae9565b91607f1691620003a5565b01519050388062000365565b600e600090815293506000805160206200464b83398151915291905b601f198416851062000b98576001945083601f1981161062000b7e575b505050811b01600e556200037b565b015160001960f88460031b161c1916905538808062000b6f565b8181015183556020948501946001909301929091019062000b52565b600e6000529091506000805160206200464b833981519152601f840160051c81016020851062000c0d575b90849392915b601f830160051c8201811062000bfd5750506200034c565b6000815585945060010162000be5565b508062000bdf565b91607f169162000336565b015190503880620002e6565b6001600090815293506000805160206200470b83398151915291905b601f198416851062000c8e576001945083601f1981161062000c74575b505050811b01600155620002fc565b015160001960f88460031b161c1916905538808062000c65565b8181015183556020948501946001909301929091019062000c48565b60016000529091506000805160206200470b833981519152601f840160051c81016020851062000d03575b90849392915b601f830160051c8201811062000cf3575050620002cd565b6000815585945060010162000cdb565b508062000cd5565b91607f1691620002b7565b0151905038806200027c565b60008080529350600080516020620046cb83398151915291905b601f198416851062000d82576001945083601f1981161062000d68575b505050811b0160005562000292565b015160001960f88460031b161c1916905538808062000d59565b8181015183556020948501946001909301929091019062000d3c565b60008052909150600080516020620046cb833981519152601f840160051c81016020851062000df6575b90849392915b601f830160051c8201811062000de657505062000263565b6000815585945060010162000dce565b508062000dc8565b91607f16916200024d565b600080fd5b6040519190601f01601f191682016001600160401b038111838210176200072b57604052565b919080601f8401121562000e095782516001600160401b0381116200072b5760209062000e6a601f8201601f1916830162000e0e565b9281845282828701011162000e095760005b81811062000e9257508260009394955001015290565b858101830151848201840152820162000e7c565b600b80546001600160a01b039283166001600160a01b0319821681179092559091167f8be0079c531659141344cd1fd0a4f28419497f9722a3daafe3b4186f6b6457e0600080a356fe60806040526004361015610013575b600080fd5b60003560e01c806301ffc9a71461024357806306fdde031461023a578063081812fc14610231578063095ea7b31461022857806318160ddd1461021f57806323b872dd146102165780632f745c591461020d57806337307c3d1461020457806342842e0e146101fb5780634f6ccce7146101f25780635b07c9a7146101e95780636352211e146101e057806370a08231146101d7578063715018a6146101ce5780638da5cb5b146101c557806395d89b41146101bc578063a0426f7c146101b3578063a22cb465146101aa578063b4720c92146101a1578063b88d4fde14610198578063c87b56dd1461018f578063cd6d8f8514610186578063cef2646d1461017d578063def6fc5f14610174578063e985e9c51461016b578063f1386cd614610162578063f2fde38b146101595763f851a4401461015157600080fd5b61000e611d9f565b5061000e611cd1565b5061000e611baa565b5061000e611a6a565b5061000e611a4b565b5061000e6119bf565b5061000e6114b6565b5061000e61132e565b5061000e6112c6565b5061000e610e8e565b5061000e610c4f565b5061000e610b61565b5061000e6108fa565b5061000e6108d0565b5061000e610871565b5061000e610841565b5061000e610822565b5061000e610803565b5061000e610757565b5061000e61072e565b5061000e610684565b5061000e6105cc565b5061000e6105a2565b5061000e610557565b5061000e61047c565b5061000e61042a565b5061000e610346565b5061000e61025e565b6001600160e01b031981160361000e57565b503461000e57602036600319011261000e57602060043561027e8161024c565b63ffffffff60e01b1663780e9d6360e01b81149081156102a4575b506040519015158152f35b6380ac58cd60e01b8114915081156102d6575b81156102c5575b5038610299565b6301ffc9a760e01b149050386102be565b635b5e139f60e01b811491506102b7565b600091031261000e57565b919082519283825260005b84811061031e575050826000602080949584010152601f8019910116010190565b6020818301810151848301820152016102fd565b9060206103439281815201906102f2565b90565b503461000e57600080600319360112610427576040519080805461036981611549565b808552916001918083169081156103fd57506001146103a3575b61039f8561039381870382610de4565b60405191829182610332565b0390f35b80809450527f290decd9548b62a8d60345a988386fc84ba6bc95484008f6362f93160ef3e5635b8284106103e55750505081016020016103938261039f610383565b805460208587018101919091529093019281016103ca565b86955061039f9693506020925061039394915060ff191682840152151560051b8201019293610383565b80fd5b503461000e57602036600319011261000e576020610449600435611f79565b6040516001600160a01b039091168152f35b6001600160a01b0381160361000e57565b610184359061047a8261045b565b565b503461000e57604036600319011261000e5760043561049a8161045b565b6024356104a681611ee4565b916001600160a01b038084169082168114610508576104d8936104d39133149081156104da575b50611f07565b6122f6565b005b6001600160a01b0316600090815260056020908152604080832033845290915290205460ff169050386104cd565b60405162461bcd60e51b815260206004820152602160248201527f4552433732313a20617070726f76616c20746f2063757272656e74206f776e656044820152603960f91b6064820152608490fd5b503461000e57600036600319011261000e576020600854604051908152f35b606090600319011261000e5760043561058e8161045b565b9060243561059b8161045b565b9060443590565b503461000e576104d86105b436610576565b916105c76105c284336120bc565b611fb7565b61218e565b503461000e57604036600319011261000e576004356105ea8161045b565b602435906105f781611e21565b82101561062b576001600160a01b031660009081526006602090815260408083209383529281529082902054915191825290f35b60405162461bcd60e51b815260206004820152602b60248201527f455243373231456e756d657261626c653a206f776e657220696e646578206f7560448201526a74206f6620626f756e647360a81b6064820152608490fd5b503461000e57604036600319011261000e576004356106a28161045b565b601b54602435906106c3906001600160a01b03165b6001600160a01b031690565b916106cf8333146136ed565b6001600160a01b031691826107235750601b5460009250829182918291906106ff906001600160a01b03166106b7565b5af16107096123d8565b501561071157005b60405163036b46f360e01b8152600490fd5b6104d8923090612cfa565b503461000e576104d861074036610576565b906040519261074e84610dc9565b60008452612019565b503461000e57602036600319011261000e576004356008548110156107a95760086000527ff3f7a9fe364faab93b216da50a3214154f22a0a2b415b23a84c8169e8b636ee30154604051908152602090f35b60405162461bcd60e51b815260206004820152602c60248201527f455243373231456e756d657261626c653a20676c6f62616c20696e646578206f60448201526b7574206f6620626f756e647360a01b6064820152608490fd5b503461000e57600036600319011261000e576020601c54604051908152f35b503461000e57602036600319011261000e576020610449600435611ee4565b503461000e57602036600319011261000e5760206108696004356108648161045b565b611e21565b604051908152f35b503461000e576000806003193601126104275761088c611dc9565b600b80546001600160a01b0319811690915581906001600160a01b03167f8be0079c531659141344cd1fd0a4f28419497f9722a3daafe3b4186f6b6457e08280a380f35b503461000e57600036600319011261000e57600b546040516001600160a01b039091168152602090f35b503461000e57600080600319360112610427576040519080600180549161092083611549565b808652928281169081156103fd57506001146109465761039f8561039381870382610de4565b92508083527fb10e2d527612073b26eecdfd717e6a320cf44b4afac2b0732d9fcbe2b7fa0cf65b8284106109885750505081016020016103938261039f610383565b8054602085870181019190915290930192810161096d565b6000915b600483106109b157505050565b8151805182526020908101516001600160a01b03168183015260019390930192909101906040016109a4565b60808201916000815b600482106109f5575050505090565b9091929380846001920383528551610a2d610a18825160408086528501906102f2565b602093848094015190848184039101526102f2565b9601920192019092916109e6565b90815180825260208080930193019160005b828110610a5b575050505090565b835185529381019392810192600101610a4d565b90610343916020815281516020820152602082015190610a9d610260928360408401526102808301906102f2565b604084015163ffffffff16606083015291606084015163ffffffff166080830152610ad0608085015160a08401906109a0565b60a084015115156101a083015260c08401516001600160a01b03166101c0830152610160610b43610b2d610b1760e088015196601f199788888303016101e08901526109dd565b61010088015187878303016102008801526102f2565b61012087015186868303016102208701526102f2565b61014086015115156102408501529401519282850301910152610a3b565b503461000e5760208060031936011261000e576040805191610b8283610d57565b6000908184526060818501528183850152816060850152825190610ba582610dae565b825b60808110610c185761039f85606061016089888860808301528060a08301528060c0830152610bd46131e0565b60e083015283610100830152836101208301526101408201520152610c0d610c08600435600052600c602052604060002090565b613327565b905191829182610a6f565b81908551610c2581610d80565b85815285838201528185015201610ba7565b8015150361000e57565b610164359061047a82610c37565b503461000e57604036600319011261000e57600435610c6d8161045b565b602435610c7981610c37565b6001600160a01b03821691338314610cfb5781610cb8610cc99233600052600560205260406000209060018060a01b0316600052602052604060002090565b9060ff801983541691151516179055565b604051901515815233907f17307eab39ab6107e8899845ad3d59bd9653f200f220920489ca2b5937696c3190602090a3005b60405162461bcd60e51b815260206004820152601960248201527f4552433732313a20617070726f766520746f2063616c6c6572000000000000006044820152606490fd5b50634e487b7160e01b600052604160045260246000fd5b61018081019081106001600160401b03821117610d7357604052565b610d7b610d40565b604052565b604081019081106001600160401b03821117610d7357604052565b6001600160401b038111610d7357604052565b608081019081106001600160401b03821117610d7357604052565b602081019081106001600160401b03821117610d7357604052565b90601f801991011681019081106001600160401b03821117610d7357604052565b6040519061047a82610d57565b6020906001600160401b038111610e2f575b601f01601f19160190565b610e37610d40565b610e24565b929192610e4882610e12565b91610e566040519384610de4565b82948184528183011161000e578281602093846000960137010152565b9080601f8301121561000e5781602061034393359101610e3c565b50608036600319011261000e5760443560048035602435610eae8461045b565b6064356001600160401b03811161000e57610ecc9036908501610e73565b92601693610ef8610ef386610eeb87600052600c602052604060002090565b015460ff1690565b612a9f565b610f65610f3484610f2f610f266002610f1b8a600052600c602052604060002090565b015463ffffffff1690565b63ffffffff1690565b612ada565b610f5e610f266002610f5089600052600c602052604060002090565b015460201c63ffffffff1690565b1015612aef565b610f7984600052600c602052604060002090565b95600b87015460ff81169081611241575b50611230576000906001600160a01b038082169160038a0190845b87811061117a575b50505050501561116a5793610fc183612b80565b946000906017600289019801915b8581106110cd575050601b54610ff192506106b791506001600160a01b031681565b611012611005600d54975463ffffffff1690565b9363ffffffff8516612c58565b90803b1561000e576040805163d4cfd7b760e01b815233948101948552602085019890985283019190915263ffffffff90921660608201527f63b7afc79e6379a07137b441dd4e3db719cc1f55602e7091a6f0f97f05eb2588949160009183919082908490829060800103925af180156110c0575b6110a7575b506110a2600d5492604051938493339185612c65565b0390a1005b806110b46110ba92610d9b565b806102e7565b3861108c565b6110c86123cb565b611087565b611165906111528a61112d611117611112601c936110fd85546110f7816110f2612bb2565b613188565b33612e3f565b611108898654612fba565b5463ffffffff1690565b612bdb565b8d5463ffffffff191663ffffffff909116178d55565b61113f61113a8854612887565b601655565b548061114b848d612bf1565b5285612c13565b6111606001601c5401601c55565b612887565b610fcf565b50604051630b27db6160e11b8152fd5b8861118582856128c2565b5060019081015486166001600160a01b031687146111ad5750506111a890612887565b610fa5565b96509450919290916111bf81856128c2565b505415610fad57611216611211611209836111f76111ef6112269a6111e761121e988c6128c2565b505490612b4d565b30338a612cfa565b601b546001600160a01b0316976128c2565b50548b612b4d565b612b37565b612710900490565b921690612cbc565b8338808080610fad565b6040516316f8624360e11b81528390fd5b6040516370a0823160e01b8152338682019081529092506020918391829081908501039160081c6001600160a01b03165afa9081156112b9575b60009161128b575b501538610f8a565b6112ac915060203d81116112b2575b6112a48183610de4565b810190612b28565b38611283565b503d61129a565b6112c16123cb565b61127b565b503461000e57608036600319011261000e576004356112e48161045b565b6024356112f08161045b565b606435916001600160401b03831161000e573660238401121561000e576113246104d8933690602481600401359101610e3c565b9160443591612019565b503461000e57602036600319011261000e57600435600081815260026020526040902054611366906001600160a01b03161515611e98565b600052600a60205261039f61137e60406000206118a3565b600060405161138c81610dc9565b526040519182916020835260208301906102f2565b90816083121561000e5760408051906113b982610dae565b81936101649080821161000e576064955b8287106113da5750929450505050565b838783031261000e57835184916113f082610d80565b88358252602091828a01356114048161045b565b838201528152019601956113ca565b81601f8201121561000e57604080519261142c84610dae565b83608084019282841161000e5784915b84831061144c5750505050505090565b6001600160401b03833581811161000e57870191838387031261000e57835161147481610d80565b833583811161000e5787611489918601610e73565b81526020928385013590811161000e57876114a79160209601610e73565b8382015281520192019161143c565b506101c036600319011261000e576001600160401b0360043581811161000e576114e4903690600401610e73565b60243582811161000e576114fc903690600401610e73565b60443563ffffffff8116810361000e57611515366113a1565b61151d610c41565b9161152661046c565b936101a43596871161000e576115436104d8973690600401611413565b9561251c565b90600182811c92168015611579575b602083101461156357565b634e487b7160e01b600052602260045260246000fd5b91607f1691611558565b60405190600082600f549161159783611549565b8083529260019081811690811561161d57506001146115be575b5061047a92500383610de4565b600f600090815291507f8d1108e10bcb7c27dddfc02ed9d693a074039d026cf4ea4240b40f7d581ac8025b848310611602575061047a9350508101602001386115b1565b81935090816020925483858a010152019101909185926115e9565b90506020925061047a94915060ff191682840152151560051b820101386115b1565b604051906000826011549161165383611549565b8083529260019081811690811561161d5750600114611679575061047a92500383610de4565b6011600090815291507f31ecc21a745e3968a04e9570e4425bc18fa8019c68028196b546d1669c200c685b8483106116bd575061047a9350508101602001386115b1565b81935090816020925483858a010152019101909185926116a4565b60405190600082601254916116ec83611549565b8083529260019081811690811561161d5750600114611712575061047a92500383610de4565b6012600090815291507fbb8a6a4669ba250d26cd7a459eca9d215f8307e33aebe50379bc5a3617ec34445b848310611756575061047a9350508101602001386115b1565b81935090816020925483858a0101520191019091859261173d565b604051906000826013549161178583611549565b8083529260019081811690811561161d57506001146117ab575061047a92500383610de4565b6013600090815291507f66de8ffda797e3de9c05e8fc57b3bf0ec28a930d40b0d285d93c06501cf6a0905b8483106117ef575061047a9350508101602001386115b1565b81935090816020925483858a010152019101909185926117d6565b604051906000826015549161181e83611549565b8083529260019081811690811561161d5750600114611844575061047a92500383610de4565b6015600090815291507f55f448fdea98c4d29eb340757ef0a66cd03dbb9538908a6a81d96026b71ec4755b848310611888575061047a9350508101602001386115b1565b81935090816020925483858a0101520191019091859261186f565b90604051918260008254926118b784611549565b90818452600194858116908160001461192457506001146118e1575b505061047a92500383610de4565b9093915060005260209081600020936000915b81831061190c57505061047a935082010138806118d3565b855488840185015294850194879450918301916118f4565b91505061047a94506020925060ff191682840152151560051b82010138806118d3565b97946119a9949361197361010099946119b799949d9c9d8c5260208c61012091829101528c01906102f2565b63ffffffff91821660408c0152941660608a0152151560808901526001600160a01b031660a088015286820360c08801526102f2565b9084820360e08601526102f2565b931515910152565b503461000e57602036600319011261000e57600435600052600c6020526040600020805461039f6119f2600184016118a3565b600284015493600b810154611a09601483016118a3565b9060ff6016611a1a601586016118a3565b940154169360405197889763ffffffff9260ff60018060a01b038660081c16951693808460201c169316918a611947565b503461000e57600036600319011261000e576020601954604051908152f35b503461000e57604036600319011261000e57602060ff611ac7600435611a8f8161045b565b60243590611a9c8261045b565b60018060a01b03166000526005845260406000209060018060a01b0316600052602052604060002090565b54166040519015158152f35b906002821015611ae05752565b634e487b7160e01b600052602160045260246000fd5b979495611b5b899b9e9d9b611b8b98611b4e61047a9f9b969860606101609f9a611b779a611b38611b4692611b699b89526101808060208b01528901906102f2565b9087820360408901526102f2565b940190611ad3565b8b820360808d01526102f2565b9089820360a08b01526102f2565b9087820360c08901526102f2565b9160e08601528482036101008601526102f2565b6101208301979097526101408201526001600160a01b03909216910152565b503461000e5760008060031936011261042757600d54604051918281600e54611bd281611549565b80845293600191808316908115611cad5750600114611c50575b5050611bfa92500383610de4565b61039f611c05611583565b60ff60105416611c1361163f565b611c1b6116d8565b611c23611771565b60145490611c2f61180a565b92601654946017549660018060a01b0360185416986040519c8d9c8d611af6565b9150600e82527fbb7b4a454dc3493923482f07822329ed19e8244eff582cc204f8554c3620c3fd5b848310611c925750611bfa93505081016020013880611bec565b81935090816020925483858a01015201910190918592611c78565b91505060209250611bfa94915060ff191682840152151560051b8201013880611bec565b503461000e57602036600319011261000e57600435611cef8161045b565b611cf7611dc9565b6001600160a01b03908116908115611d4b57600b54826bffffffffffffffffffffffff60a01b821617600b55167f8be0079c531659141344cd1fd0a4f28419497f9722a3daafe3b4186f6b6457e0600080a3005b60405162461bcd60e51b815260206004820152602660248201527f4f776e61626c653a206e6577206f776e657220697320746865207a65726f206160448201526564647265737360d01b6064820152608490fd5b503461000e57600036600319011261000e57601b546040516001600160a01b039091168152602090f35b600b546001600160a01b03163303611ddd57565b606460405162461bcd60e51b815260206004820152602060248201527f4f776e61626c653a2063616c6c6572206973206e6f7420746865206f776e65726044820152fd5b6001600160a01b03168015611e4157600052600360205260406000205490565b60405162461bcd60e51b815260206004820152602960248201527f4552433732313a2061646472657373207a65726f206973206e6f7420612076616044820152683634b21037bbb732b960b91b6064820152608490fd5b15611e9f57565b60405162461bcd60e51b815260206004820152601860248201527f4552433732313a20696e76616c696420746f6b656e20494400000000000000006044820152606490fd5b6000908152600260205260409020546001600160a01b0316610343811515611e98565b15611f0e57565b60405162461bcd60e51b815260206004820152603d60248201527f4552433732313a20617070726f76652063616c6c6572206973206e6f7420746f60448201527f6b656e206f776e6572206f7220617070726f76656420666f7220616c6c0000006064820152608490fd5b600081815260026020526040902054611f9c906001600160a01b03161515611e98565b6000908152600460205260409020546001600160a01b031690565b15611fbe57565b60405162461bcd60e51b815260206004820152602d60248201527f4552433732313a2063616c6c6572206973206e6f7420746f6b656e206f776e6560448201526c1c881bdc88185c1c1c9bdd9959609a1b6064820152608490fd5b9161047a9391612040936120306105c284336120bc565b61203b83838361218e565b6124c9565b612098565b60809060208152603260208201527f4552433732313a207472616e7366657220746f206e6f6e20455243373231526560408201527131b2b4bb32b91034b6b83632b6b2b73a32b960711b60608201520190565b1561209f57565b60405162461bcd60e51b8152806120b860048201612045565b0390fd5b6001600160a01b03806120ce84611ee4565b169281831692848414948515612104575b505083156120ee575b50505090565b6120fa91929350611f79565b16143880806120e8565b60009081526005602090815260408083206001600160a01b03949094168352929052205460ff16935038806120df565b1561213b57565b60405162461bcd60e51b815260206004820152602560248201527f4552433732313a207472616e736665722066726f6d20696e636f72726563742060448201526437bbb732b960d91b6064820152608490fd5b6121b29061219b84611ee4565b6001600160a01b0382811693909182168414612134565b83169283156122a557612224826121cd878461227e966133ff565b6121e3856121dd6106b78a611ee4565b14612134565b61220a6121fa886000526004602052604060002090565b80546001600160a01b0319169055565b6001600160a01b0316600090815260036020526040902090565b80546000190190556001600160a01b03811660009081526003602052604090206001815401905561225f856000526002602052604060002090565b80546001600160a01b0319166001600160a01b03909216919091179055565b7fddf252ad1be2c89b69c2b068fc378daa952ba7f163c4a11628f55a4df523b3ef600080a4565b60405162461bcd60e51b8152602060048201526024808201527f4552433732313a207472616e7366657220746f20746865207a65726f206164646044820152637265737360e01b6064820152608490fd5b600082815260046020526040902080546001600160a01b0319166001600160a01b0383161790556001600160a01b038061232f84611ee4565b169116907f8c5be1e5ebec7d5bd14f71427d1e84f3dd0314c0f7b2291e5b200ac8c7c3b925600080a4565b9081602091031261000e57516103438161024c565b610343939260809260018060a01b0316825260006020830152604082015281606082015201906102f2565b6001600160a01b039182168152911660208201526040810191909152608060608201819052610343929101906102f2565b506040513d6000823e3d90fd5b3d15612403573d906123e982610e12565b916123f76040519384610de4565b82523d6000602084013e565b606090565b909190803b156124c15761243a602091600093604051948580948193630a85bd0160e11b998a8452336004850161236f565b03926001600160a01b03165af160009181612491575b506124835761245d6123d8565b8051908161247e5760405162461bcd60e51b8152806120b860048201612045565b602001fd5b6001600160e01b0319161490565b6124b391925060203d81116124ba575b6124ab8183610de4565b81019061235a565b9038612450565b503d6124a1565b505050600190565b92909190823b156124fc5761243a926020926000604051809681958294630a85bd0160e11b9a8b8552336004860161239a565b50505050600190565b50634e487b7160e01b600052603260045260246000fd5b91949092612528611dc9565b6019549661254088600052600c602052604060002090565b90888255612599886002840161255d8163ffffffff198154169055565b61256a8860018701612794565b6125778960158701612794565b9067ffffffff0000000082549160201b169067ffffffff000000001916179055565b6003820160005b6004811061270257505086806126f1575b6126df576125f884600b84016125d38a829060ff801983541691151516179055565b8054610100600160a81b03191660089290921b610100600160a81b0316919091179055565b600c820160005b600481106126b857505050601601805460ff19166001179055612626600160195401601955565b601a548061266c575b50907f0a93fa2f927a74a47cf4ad0fc6b28a9facb0a73c2599f408488a39328c554b189461266792600d549760405196879687612a3b565b0390a3565b91909134106126a65760008080803461268f6106b7601b5460018060a01b031690565b5af16126996123d8565b501561071157903861262f565b604051630fb2c9dd60e41b8152600490fd5b806111606126c96126da93866128a3565b516126d483866128c2565b90612931565b6125ff565b6040516318a6b01160e21b8152600490fd5b506001600160a01b038416156125b1565b8061116061271361272493886128a3565b5161271e83866128c2565b906128e4565b6125a0565b50634e487b7160e01b600052600060045260246000fd5b90601f811161274e57505050565b600091825260208220906020601f850160051c8301941061278a575b601f0160051c01915b82811061277f57505050565b818155600101612773565b909250829061276a565b91909182516001600160401b038111612863575b6127bc816127b68454611549565b84612740565b602080601f83116001146127f85750819293946000926127ed575b50508160011b916000199060031b1c1916179055565b0151905038806127d7565b90601f1983169561280e85600052602060002090565b926000905b88821061284b57505083600195969710612832575b505050811b019055565b015160001960f88460031b161c19169055388080612828565b80600185968294968601518155019501930190612813565b61286b610d40565b6127a8565b50634e487b7160e01b600052601160045260246000fd5b6001906000198114612897570190565b61289f612870565b0190565b9060048110156128b5575b60051b0190565b6128bd612505565b6128ae565b9060048110156128d7575b60011b0190600090565b6128df612505565b6128cd565b9061047a92600191612924575b805183556020828060a01b039101511691019060018060a01b03166bffffffffffffffffffffffff60a01b825416179055565b61292c612729565b6128f1565b9190612a2e575b80519081516001600160401b038111612a21575b6129608161295a8654611549565b86612740565b6020928390601f83116001146129ac5791806001949261047a9796946000926129a1575b5050600019600383901b1c191690841b1784555b01519101612794565b015190503880612984565b90601f198316916129c287600052602060002090565b9260005b818110612a0a5750926001959392859261047a9998968895106129f1575b505050811b018455612998565b015160001960f88460031b161c191690553880806129e4565b9293876001819287860151815501950193016129c6565b612a29610d40565b61294c565b612a36612729565b612938565b94919363ffffffff612a716101a096612a63612a89959b9a979b6101c0808c528b01906102f2565b9089820360208b01526102f2565b986000604089015216606087015260808601906109a0565b15156101808401526001600160a01b0316910152565b15612aa657565b60405162461bcd60e51b815260206004820152600c60248201526b114e90d85d139bd15e1a5cdd60a21b6044820152606490fd5b91908201809211612ae757565b61047a612870565b15612af657565b60405162461bcd60e51b815260206004820152600a602482015269229d2737a9ba37b1b59760b11b6044820152606490fd5b9081602091031261000e575190565b90606482029180830460641490151715612ae757565b81810292918115918404141715612ae757565b6020906001600160401b038111612b785760051b0190565b6128bd610d40565b90612b8a82612b60565b612b976040519182610de4565b8281528092612ba8601f1991612b60565b0190602036910137565b60405190612bbf82610d80565b600d82526c02a35b71021b7bab73a32b91d1609d1b6020830152565b60019063ffffffff809116908114612897570190565b6020918151811015612c06575b60051b010190565b612c0e612505565b612bfe565b805490600160401b821015612c4b575b60018201808255821015612c3e575b60005260206000200155565b612c46612505565b612c32565b612c53610d40565b612c23565b91908203918211612ae757565b60a09092919260808101938152602094859384830152600180841b031660408201526080606082015285518094520193019160005b828110612ca8575050505090565b835185529381019392810192600101612c9a565b60405163a9059cbb60e01b60208201526001600160a01b03909216602483015260448083019390935291815261047a91612cf582610dae565b612d5f565b6040516323b872dd60e01b60208201526001600160a01b03928316602482015292909116604483015260648083019390935291815261047a9160a082018281106001600160401b03821117612d52575b604052612d5f565b612d5a610d40565b612d4a565b604051612dbd916001600160a01b0316612d7882610d80565b6000806020958685527f5361666545524332303a206c6f772d6c6576656c2063616c6c206661696c656487860152868151910182855af1612db76123d8565b916130f7565b805180612dc957505050565b8183918101031261000e57810151612de081610c37565b15612de85750565b6084906040519062461bcd60e51b82526004820152602a60248201527f5361666545524332303a204552433230206f7065726174696f6e20646964206e6044820152691bdd081cdd58d8d9595960b21b6064820152fd5b90604051612e4c81610dc9565b600081526001600160a01b038316918215612f2a5761047a938161204094612e92612e8c83600052600260205260018060a01b0360406000205416151590565b15612f6e565b612e9b82613563565b612ea5828461352b565b600082815260026020526040902054612ec8906001600160a01b03161515612e8c565b6001600160a01b038316600090815260036020526040902060018154019055612eff8361225f846000526002602052604060002090565b60007fddf252ad1be2c89b69c2b068fc378daa952ba7f163c4a11628f55a4df523b3ef8180a4612408565b606460405162461bcd60e51b815260206004820152602060248201527f4552433732313a206d696e7420746f20746865207a65726f20616464726573736044820152fd5b15612f7557565b60405162461bcd60e51b815260206004820152601c60248201527f4552433732313a20746f6b656e20616c7265616479206d696e746564000000006044820152606490fd5b6000818152600260205260409020549192916001600160a01b03161561309b576000526020600a81526040600020908351906001600160401b03821161308e575b61300f826130098554611549565b85612740565b80601f831160011461303d5750819293946000926127ed5750508160011b916000199060031b1c1916179055565b90601f1983169561305385600052602060002090565b926000905b8882106130765750508360019596971061283257505050811b019055565b80600185968294968601518155019501930190613058565b613096610d40565b612ffb565b60405162461bcd60e51b815260206004820152602e60248201527f45524337323155524953746f726167653a2055524920736574206f66206e6f6e60448201526d32bc34b9ba32b73a103a37b5b2b760911b6064820152608490fd5b91929015613159575081511561310b575090565b3b156131145790565b60405162461bcd60e51b815260206004820152601d60248201527f416464726573733a2063616c6c20746f206e6f6e2d636f6e74726163740000006044820152606490fd5b82519091501561316c5750805190602001fd5b60405162461bcd60e51b81529081906120b89060048301610332565b6000919082916131cd60405180926131b96020830195632d839cb360e21b87526040602485015260648401906102f2565b90604483015203601f198101835282610de4565b51906a636f6e736f6c652e6c6f675afa50565b6040908151916131ef83610dae565b8260005b6080811061320057505050565b602090835161320e81610d80565b60608082528382015281840152016131f3565b90604080519261323084610dae565b600090845b600483106132435750505050565b600260019185519061325482610d80565b84548252838060a01b0384860154169160209283820152815201920192019190613235565b90604080519261328884610dae565b600090845b6004831061329b5750505050565b60026001918551906132ac82610d80565b6132b5856118a3565b82526132c28486016118a3565b916020928382015281520192019201919061328d565b9060405191828154918282526020928383019160005283600020936000905b82821061330d5750505061047a92500383610de4565b8554845260019586019588955093810193909101906132f7565b906133f76017613335610e05565b9380548552613346600182016118a3565b602086810191909152600282015463ffffffff8082166040890152911c16606086015261337560038201613221565b6080860152600b81015460ff8116151560a08701526133a19060081c6001600160a01b031660c0870152565b6133ad600c8201613279565b60e08601526133be601482016118a3565b6101008601526133d0601582016118a3565b6101208601526133f16133e7601683015460ff1690565b1515610140870152565b016132d8565b610160830152565b9091906001600160a01b038082169182613442575061341d83613563565b83168061343057505061047a91506135d7565b03613439575050565b61047a9161352b565b8185168303613452575b5061341d565b61345b81611e21565b600019810190811161351e575b6134b4600092868452600760205260408420548381036134c5575b5083613499886000526007602052604060002090565b556001600160a01b0316600090815260066020526040902090565b90825260205260408120553861344c565b86855260066020526040852084865260205261351760408620546134fb8460018060a01b03166000526006602052604060002090565b8388526020528060408820556000526007602052604060002090565b5538613483565b613526612870565b613468565b60409061353781611e21565b9260009160018060a01b0316825260066020528282208483526020528083832055815260076020522055565b60085481600052600960205280604060002055600160401b8110156135ca575b60018101806008558110156135bd575b60086000527ff3f7a9fe364faab93b216da50a3214154f22a0a2b415b23a84c8169e8b636ee30155565b6135c5612505565b613593565b6135d2610d40565b613583565b6008805460001992908381018181116136e0575b613687600093849281845260096020528460408520549110156136d3575b8684526136767ff3f7a9fe364faab93b216da50a3214154f22a0a2b415b23a84c8169e8b636ee29586810154908310156136c6575b88865280837ff3f7a9fe364faab93b216da50a3214154f22a0a2b415b23a84c8169e8b636ee301556000526009602052604060002090565b556000526009602052604060002090565b5582549384156136b257840193808510156136a5575b838352015555565b6136ad612505565b61369d565b634e487b7160e01b83526031600452602483fd5b6136ce612505565b61363e565b6136db612505565b613609565b6136e8612870565b6135eb565b156136f457565b60405162461bcd60e51b815260206004820152600960248201526827a7262ca0a226a4a760b91b6044820152606490fdfea2646970667358221220d6ee3193dd080ded075da3aee434801e2c4f0a2aead170ceef50379df65f4eea64736f6c63430008110033bb7b4a454dc3493923482f07822329ed19e8244eff582cc204f8554c3620c3fdbb8a6a4669ba250d26cd7a459eca9d215f8307e33aebe50379bc5a3617ec344455f448fdea98c4d29eb340757ef0a66cd03dbb9538908a6a81d96026b71ec47531ecc21a745e3968a04e9570e4425bc18fa8019c68028196b546d1669c200c68290decd9548b62a8d60345a988386fc84ba6bc95484008f6362f93160ef3e56366de8ffda797e3de9c05e8fc57b3bf0ec28a930d40b0d285d93c06501cf6a090b10e2d527612073b26eecdfd717e6a320cf44b4afac2b0732d9fcbe2b7fa0cf68d1108e10bcb7c27dddfc02ed9d693a074039d026cf4ea4240b40f7d581ac802a2646970667358221220029bbde57e07d88018dec76ae979d543c5433c4359be60e31ed685550f65d73364736f6c63430008110033",
  "devdoc": {
    "kind": "dev",
    "methods": {
      "createNewEvent(string,string,(uint256,string,string,uint8,string,string,string,uint256,string,uint256,uint256,address))": {
        "details": "Create A new Event."
      },
      "owner()": {
        "details": "Returns the address of the current owner."
      },
      "renounceOwnership()": {
        "details": "Leaves the contract without owner. It will not be possible to call `onlyOwner` functions anymore. Can only be called by the current owner. NOTE: Renouncing ownership will leave the contract without an owner, thereby removing any functionality that is only available to the owner."
      },
      "transferOwnership(address)": {
        "details": "Transfers ownership of the contract to a new account (`newOwner`). Can only be called by the current owner."
      }
    },
    "version": 1
  },
  "userdoc": {
    "kind": "user",
    "methods": {},
    "version": 1
  },
  "storageLayout": {
    "storage": [
      {
        "astId": 601,
        "contract": "src/EventManager.sol:EventManager",
        "label": "_owner",
        "offset": 0,
        "slot": "0",
        "type": "t_address"
      },
      {
        "astId": 13190,
        "contract": "src/EventManager.sol:EventManager",
        "label": "_events",
        "offset": 0,
        "slot": "1",
        "type": "t_mapping(t_uint256,t_address)"
      },
      {
        "astId": 13193,
        "contract": "src/EventManager.sol:EventManager",
        "label": "_counter",
        "offset": 0,
        "slot": "2",
        "type": "t_struct(Counter)3057_storage"
      },
      {
        "astId": 13198,
        "contract": "src/EventManager.sol:EventManager",
        "label": "_ownersEvents",
        "offset": 0,
        "slot": "3",
        "type": "t_mapping(t_address,t_array(t_uint256)dyn_storage)"
      },
      {
        "astId": 13204,
        "contract": "src/EventManager.sol:EventManager",
        "label": "_ticketSales",
        "offset": 0,
        "slot": "4",
        "type": "t_mapping(t_address,t_array(t_struct(TicketSale)13186_storage)dyn_storage)"
      },
      {
        "astId": 13206,
        "contract": "src/EventManager.sol:EventManager",
        "label": "eventCreationFee",
        "offset": 0,
        "slot": "5",
        "type": "t_uint256"
      },
      {
        "astId": 13219,
        "contract": "src/EventManager.sol:EventManager",
        "label": "ticketCategoryCreationFee",
        "offset": 0,
        "slot": "6",
        "type": "t_uint256"
      }
    ],
    "types": {
      "t_address": {
        "encoding": "inplace",
        "label": "address",
        "numberOfBytes": "20"
      },
      "t_array(t_struct(TicketSale)13186_storage)dyn_storage": {
        "base": "t_struct(TicketSale)13186_storage",
        "encoding": "dynamic_array",
        "label": "struct EventManager.TicketSale[]",
        "numberOfBytes": "32"
      },
      "t_array(t_uint256)dyn_storage": {
        "base": "t_uint256",
        "encoding": "dynamic_array",
        "label": "uint256[]",
        "numberOfBytes": "32"
      },
      "t_mapping(t_address,t_array(t_struct(TicketSale)13186_storage)dyn_storage)": {
        "encoding": "mapping",
        "key": "t_address",
        "label": "mapping(address => struct EventManager.TicketSale[])",
        "numberOfBytes": "32",
        "value": "t_array(t_struct(TicketSale)13186_storage)dyn_storage"
      },
      "t_mapping(t_address,t_array(t_uint256)dyn_storage)": {
        "encoding": "mapping",
        "key": "t_address",
        "label": "mapping(address => uint256[])",
        "numberOfBytes": "32",
        "value": "t_array(t_uint256)dyn_storage"
      },
      "t_mapping(t_uint256,t_address)": {
        "encoding": "mapping",
        "key": "t_uint256",
        "label": "mapping(uint256 => address)",
        "numberOfBytes": "32",
        "value": "t_address"
      },
      "t_struct(Counter)3057_storage": {
        "encoding": "inplace",
        "label": "struct Counters.Counter",
        "members": [
          {
            "astId": 3056,
            "contract": "src/EventManager.sol:EventManager",
            "label": "_value",
            "offset": 0,
            "slot": "0",
            "type": "t_uint256"
          }
        ],
        "numberOfBytes": "32"
      },
      "t_struct(TicketSale)13186_storage": {
        "encoding": "inplace",
        "label": "struct EventManager.TicketSale",
        "members": [
          {
            "astId": 13181,
            "contract": "src/EventManager.sol:EventManager",
            "label": "eventId",
            "offset": 0,
            "slot": "0",
            "type": "t_uint256"
          },
          {
            "astId": 13183,
            "contract": "src/EventManager.sol:EventManager",
            "label": "startTicket",
            "offset": 0,
            "slot": "1",
            "type": "t_uint256"
          },
          {
            "astId": 13185,
            "contract": "src/EventManager.sol:EventManager",
            "label": "endTicket",
            "offset": 0,
            "slot": "2",
            "type": "t_uint256"
          }
        ],
        "numberOfBytes": "96"
      },
      "t_uint256": {
        "encoding": "inplace",
        "label": "uint256",
        "numberOfBytes": "32"
      }
    }
  }
}