{
  "address": "0xbFEc06476ffC67e285Afca10a1b248C5ce955291",
  "abi": [
    {
      "inputs": [],
      "stateMutability": "nonpayable",
      "type": "constructor"
    },
    {
      "inputs": [],
      "name": "CurrencySendFailure",
      "type": "error"
    },
    {
      "anonymous": false,
      "inputs": [
        {
          "indexed": true,
          "internalType": "address",
          "name": "previousOwner",
          "type": "address"
        },
        {
          "indexed": true,
          "internalType": "address",
          "name": "newOwner",
          "type": "address"
        }
      ],
      "name": "OwnershipTransferred",
      "type": "event"
    },
    {
      "anonymous": false,
      "inputs": [
        {
          "indexed": true,
          "internalType": "address",
          "name": "owner",
          "type": "address"
        },
        {
          "indexed": true,
          "internalType": "uint256",
          "name": "eventID",
          "type": "uint256"
        }
      ],
      "name": "eventCreated",
      "type": "event"
    },
    {
      "inputs": [
        {
          "internalType": "address",
          "name": "currency",
          "type": "address"
        },
        {
          "internalType": "uint256",
          "name": "valueToWithdraw",
          "type": "uint256"
        }
      ],
      "name": "adminWithdrawal",
      "outputs": [],
      "stateMutability": "nonpayable",
      "type": "function"
    },
    {
      "inputs": [
        {
          "internalType": "address",
          "name": "owner",
          "type": "address"
        },
        {
          "internalType": "uint256",
          "name": "start",
          "type": "uint256"
        },
        {
          "internalType": "uint256",
          "name": "offset",
          "type": "uint256"
        }
      ],
      "name": "allOwnersEvents",
      "outputs": [
        {
          "internalType": "uint256[]",
          "name": "",
          "type": "uint256[]"
        }
      ],
      "stateMutability": "view",
      "type": "function"
    },
    {
      "inputs": [
        {
          "internalType": "string",
          "name": "ticketNFTName",
          "type": "string"
        },
        {
          "internalType": "string",
          "name": "ticketNFTSymbol",
          "type": "string"
        },
        {
          "components": [
            {
              "internalType": "uint256",
              "name": "id",
              "type": "uint256"
            },
            {
              "internalType": "string",
              "name": "name",
              "type": "string"
            },
            {
              "internalType": "string",
              "name": "desc",
              "type": "string"
            },
            {
              "internalType": "enum Types.EventTypes",
              "name": "eventType",
              "type": "uint8"
            },
            {
              "internalType": "string",
              "name": "orgName",
              "type": "string"
            },
            {
              "internalType": "string",
              "name": "logo",
              "type": "string"
            },
            {
              "internalType": "string",
              "name": "email",
              "type": "string"
            },
            {
              "internalType": "uint256",
              "name": "date",
              "type": "uint256"
            },
            {
              "internalType": "string",
              "name": "website",
              "type": "string"
            },
            {
              "internalType": "uint256",
              "name": "ticketsSold",
              "type": "uint256"
            },
            {
              "internalType": "uint256",
              "name": "maxCapacity",
              "type": "uint256"
            },
            {
              "internalType": "address",
              "name": "owner",
              "type": "address"
            }
          ],
          "internalType": "struct Types.EventStruct",
          "name": "eventDetails",
          "type": "tuple"
        }
      ],
      "name": "createNewEvent",
      "outputs": [],
      "stateMutability": "payable",
      "type": "function"
    },
    {
      "inputs": [
        {
          "internalType": "uint256",
          "name": "index",
          "type": "uint256"
        }
      ],
      "name": "eventAt",
      "outputs": [
        {
          "internalType": "address",
          "name": "value",
          "type": "address"
        }
      ],
      "stateMutability": "view",
      "type": "function"
    },
    {
      "inputs": [],
      "name": "eventCreationFee",
      "outputs": [
        {
          "internalType": "uint256",
          "name": "",
          "type": "uint256"
        }
      ],
      "stateMutability": "view",
      "type": "function"
    },
    {
      "inputs": [],
      "name": "eventsSize",
      "outputs": [
        {
          "internalType": "uint256",
          "name": "size",
          "type": "uint256"
        }
      ],
      "stateMutability": "view",
      "type": "function"
    },
    {
      "inputs": [
        {
          "internalType": "address",
          "name": "ownerAddress",
          "type": "address"
        }
      ],
      "name": "getOwnedTickets",
      "outputs": [
        {
          "components": [
            {
              "internalType": "uint256",
              "name": "eventId",
              "type": "uint256"
            },
            {
              "internalType": "uint256",
              "name": "startTicket",
              "type": "uint256"
            },
            {
              "internalType": "uint256",
              "name": "endTicket",
              "type": "uint256"
            }
          ],
          "internalType": "struct EventManager.TicketSale[]",
          "name": "",
          "type": "tuple[]"
        }
      ],
      "stateMutability": "view",
      "type": "function"
    },
    {
      "inputs": [],
      "name": "owner",
      "outputs": [
        {
          "internalType": "address",
          "name": "",
          "type": "address"
        }
      ],
      "stateMutability": "view",
      "type": "function"
    },
    {
      "inputs": [
        {
          "internalType": "address",
          "name": "ownerAddress",
          "type": "address"
        },
        {
          "internalType": "uint256",
          "name": "eventId",
          "type": "uint256"
        },
        {
          "internalType": "uint256",
          "name": "ticketStart",
          "type": "uint256"
        },
        {
          "internalType": "uint256",
          "name": "ticketEnd",
          "type": "uint256"
        }
      ],
      "name": "recordTicketsale",
      "outputs": [],
      "stateMutability": "nonpayable",
      "type": "function"
    },
    {
      "inputs": [],
      "name": "renounceOwnership",
      "outputs": [],
      "stateMutability": "nonpayable",
      "type": "function"
    },
    {
      "inputs": [
        {
          "internalType": "uint256",
          "name": "newEventCreationFee",
          "type": "uint256"
        }
      ],
      "name": "setEventCreationFee",
      "outputs": [],
      "stateMutability": "nonpayable",
      "type": "function"
    },
    {
      "inputs": [
        {
          "internalType": "uint256",
          "name": "newticketTransactionFee",
          "type": "uint256"
        }
      ],
      "name": "setTicketTransactionFee",
      "outputs": [],
      "stateMutability": "nonpayable",
      "type": "function"
    },
    {
      "inputs": [],
      "name": "ticketTransactionFee",
      "outputs": [
        {
          "internalType": "uint256",
          "name": "",
          "type": "uint256"
        }
      ],
      "stateMutability": "view",
      "type": "function"
    },
    {
      "inputs": [
        {
          "internalType": "address",
          "name": "newOwner",
          "type": "address"
        }
      ],
      "name": "transferOwnership",
      "outputs": [],
      "stateMutability": "nonpayable",
      "type": "function"
    },
    {
      "stateMutability": "payable",
      "type": "receive"
    }
  ],
  "transactionHash": "0x460a5e1c54400e837330f37220708b35fccc7fd095ea51582d4e700b2d00f81c",
  "args": [],
  "numDeployments": 1,
  "solcInputHash": "4a98d64b58c6ba319eb44865f2c0410c",
  "bytecode": "0x608080604052346100725760008054336001600160a01b0319821681178355916001600160a01b03909116907f8be0079c531659141344cd1fd0a4f28419497f9722a3daafe3b4186f6b6457e09080a360006006556101f4600755671bc16d674ec8000060055561574790816100788239f35b600080fdfe60808060405260043610156200001f575b5036156200001d57600080fd5b005b600090813560e01c9081630c3fabeb1462000c7f5750806332b1ea321462000c4a57806337307c3d1462000b375780634527746f1462000a38578063516e6a201462000a1157806360c04ce214620009ea5780636f5e80d814620009ca578063715018a6146200096c5780638da5cb5b14620009435780638ff6212914620009235780639c25a5e914620003dd578063d4cfd7b7146200031d578063e4f5e2f6146200019a5763f2fde38b03620000105734620001975760203660031901126200019757620000ed62000c9d565b620000f762000d76565b6001600160a01b03908116908115620001435782546001600160a01b0319811683178455167f8be0079c531659141344cd1fd0a4f28419497f9722a3daafe3b4186f6b6457e08380a380f35b60405162461bcd60e51b815260206004820152602660248201527f4f776e61626c653a206e6577206f776e657220697320746865207a65726f206160448201526564647265737360d01b6064820152608490fd5b80fd5b5034620001975760603660031901126200019757620001b862000c9d565b6001600160a01b031680825260036020818152604084205460249460443594909386359392868186101562000314575b620001f582918762000e40565b11620002fd575b50620002088662000e72565b9162000218604051938462000ceb565b868352620002268762000e72565b83850190601f1901368237855b6200023f898862000e40565b811015620002b9578288528386526200025c8160408a2062000e11565b905490851b1c6200026e888362000e64565b8651811015620002a65760051b86018701526000198114620002935760010162000233565b634e487b7160e01b885260116004528988fd5b634e487b7160e01b8a5260326004528b8afd5b8486838a60405193838594850191818652518092526040850193925b828110620002e557505050500390f35b835185528695509381019392810192600101620002d5565b6200030c919650849062000e64565b9438620001fc565b869550620001e8565b50346200019757608036600319011262000197576001600160a01b036200034362000c9d565b168152600460205260408120906040516200035e8162000cb9565b6024358152602081016044358152604082019060643582528454600160401b811015620003c95760018101808755811015620003b55784956002949552600360208720910201935184555160018401555191015580f35b634e487b7160e01b85526032600452602485fd5b634e487b7160e01b85526041600452602485fd5b506003199060603683011262000197576004356001600160401b0381116200091f576200040f90369060040162000d29565b6024356001600160401b03811162000917576200043190369060040162000d29565b926001600160401b0360443511620009175761018090604435360301126200091f5760405161018081018181106001600160401b038211176200089057604052604435600401358152602460443501356001600160401b0381116200091b57620004a49060043691604435010162000d29565b60208201526044803501356001600160401b0381116200091b57620004d29060043691604435010162000d29565b60408201526064604435013560028110156200091b576060820152608460443501356001600160401b0381116200091b57620005179060043691604435010162000d29565b608082015260a460443501356001600160401b0381116200091b57620005469060043691604435010162000d29565b60a082015260c460443501356001600160401b0381116200091b57620005759060043691604435010162000d29565b60c082015260e4604435013560e08201526001600160401b036101046044350135116200091757620005b4366044356101048101350160040162000d29565b61010082015260443561012481013561012083015261014481013561014083015261016401356001600160a01b03811690036200091757610164604435013561016082015260055480620008d9575b5060016002540180600255336101608301528152600654906007549060405193846148878101106001600160401b0361488787011117620008c55761488762000e8b863960c0614887860152815160c061488787010152620006a162000683602084015161018060e06148878a0101526102406148878901019062000dcf565b6040840151614887880180830360bf19016101009091015262000dcf565b60608301516002811015620008b1579286979892620007676200073762000719620006fa620007af96620007c6996101208e61488701015260808701518d61014060bf1961488783018503019161488701015262000dcf565b60a08601516148878d0180830360bf1901610160919091015262000dcf565b60c08501516148878c0180830360bf19016101809091015262000dcf565b60e08401516101a06148878c01015261010084015160bf196148878c018303016101c06148878d01015262000dcf565b6101208301516148878a016101e0810191909152610140840151610200820152610160909301516001600160a01b031661022084015282810360209093019290925262000dcf565b906148878601820360406148878801015262000dcf565b913060606148878601015260806148878501015260a061488784010152039082f08015620008a45760025482526001602052604082209060018060a01b03166bffffffffffffffffffffffff60a01b82541617905533815260036020526040812060025490805490600160401b8210156200089057906200084d9160018201815562000e11565b819291549060031b600019811b9283911b16911916179055600254337f6c187a21126f97259f4571813b2fd10bb11732bf880540a1b462dced7a21b5dd8380a380f35b634e487b7160e01b84526041600452602484fd5b50604051903d90823e3d90fd5b634e487b7160e01b88526021600452602488fd5b634e487b7160e01b86526041600452602486fd5b3410620008e7573862000603565b60405162461bcd60e51b8152602060048201526008602482015267454d3a4e4f46454560c01b6044820152606490fd5b8280fd5b8380fd5b5080fd5b503462000197578060031936011262000197576020600554604051908152f35b50346200019757806003193601126200019757546040516001600160a01b039091168152602090f35b503462000197578060031936011262000197576200098962000d76565b80546001600160a01b03198116825581906001600160a01b03167f8be0079c531659141344cd1fd0a4f28419497f9722a3daafe3b4186f6b6457e08280a380f35b503462000197578060031936011262000197576020600754604051908152f35b503462000197576020366003190112620001975762000a0862000d76565b60043560055580f35b503462000197576020366003190112620001975762000a2f62000d76565b60043560075580f35b50346200019757602090816003193601126200019757906001600160a01b0362000a6162000c9d565b1682526004815260408220805462000a798162000e72565b9062000a89604051928362000ceb565b8082528382018093865284862086915b83831062000af457505050506040519280840191818552518092526040840192945b82811062000ac95784840385f35b8551805185528083015185840152604090810151908501529481019460609093019260010162000abb565b60038760019260409a9997989a5162000b0d8162000cb9565b85548152848601548382015260028601546040820152815201920192019190969493959662000a99565b50346200019757604036600319011262000197578062000b5662000c9d565b816024359162000b6562000d76565b6001600160a01b03168062000bc95750808092335af13d1562000bc3573d62000b8e8162000d0d565b9062000b9e604051928362000ceb565b81528260203d92013e5b1562000bb15780f35b60405163036b46f360e01b8152600490fd5b62000ba8565b9050606460209260405194859384926323b872dd60e01b845230600485015233602485015260448401525af1801562000c3f5762000c05575080f35b6020813d821162000c36575b8162000c206020938362000ceb565b810103126200091f575180151503620001975780f35b3d915062000c11565b6040513d84823e3d90fd5b5034620001975760203660031901126200019757602090600435815260018252604060018060a01b0391205416604051908152f35b9050346200091f57816003193601126200091f576020906002548152f35b600435906001600160a01b038216820362000cb457565b600080fd5b606081019081106001600160401b0382111762000cd557604052565b634e487b7160e01b600052604160045260246000fd5b90601f801991011681019081106001600160401b0382111762000cd557604052565b6001600160401b03811162000cd557601f01601f191660200190565b81601f8201121562000cb45780359062000d438262000d0d565b9262000d53604051948562000ceb565b8284526020838301011162000cb457816000926020809301838601378301015290565b6000546001600160a01b0316330362000d8b57565b606460405162461bcd60e51b815260206004820152602060248201527f4f776e61626c653a2063616c6c6572206973206e6f7420746865206f776e65726044820152fd5b919082519283825260005b84811062000dfc575050826000602080949584010152601f8019910116010190565b60208183018101518483018201520162000dda565b805482101562000e2a5760005260206000200190600090565b634e487b7160e01b600052603260045260246000fd5b9190820180921162000e4e57565b634e487b7160e01b600052601160045260246000fd5b9190820391821162000e4e57565b6001600160401b03811162000cd55760051b6020019056fe60806040523462000e17576200488780380390816200001e8162000e1c565b91823960c081838101031262000e175780516001600160401b03811162000e1757810191610180918284838301031262000e17576040519283016001600160401b0381118482101762000739576040528351835260208401516001600160401b03811162000e1757620000979083830190860162000e42565b602084015260408401516001600160401b03811162000e1757620000c19083830190860162000e42565b60408401526060840151600281101562000e1757606084015260808401516001600160401b03811162000e1757620000ff9083830190860162000e42565b608084015260a08401516001600160401b03811162000e1757620001299083830190860162000e42565b60a084015260c08401516001600160401b03811162000e1757620001539083830190860162000e42565b60c084015260e08481015190840152610100808501519093906001600160401b03811162000e17576200018c9084840190870162000e42565b8185015261012085810151908201526101408086015181830152610160909501516001600160a01b038116810362000e175761016082015260208201516001600160401b03811162000e1757620001e99084840190840162000e42565b60408301519093906001600160401b03811162000e17576200021091840190840162000e42565b606083015194906001600160a01b038616860362000e1757608084015160a090940151855190956001600160401b038211620007395760005490600182811c9216801562000e0c575b6020831014620007185781601f84931162000dac575b50602090601f831160011462000d305760009262000d24575b50508160011b916000199060031b1c1916176000555b8051906001600160401b038211620007395760015490600182811c9216801562000d19575b6020831014620007185781601f84931162000cb8575b50602090601f831160011462000c3a5760009262000c2e575b50508160011b916000199060031b1c1916176001555b620003133362000eb4565b8151600d5560208201518051906001600160401b0382116200073957600e5490600182811c9216801562000c23575b6020831014620007185781601f84931162000bc2575b50602090601f831160011462000b445760009262000b38575b50508160011b916000199060031b1c191617600e555b60408201518051906001600160401b0382116200073957600f5490600182811c9216801562000b2d575b6020831014620007185781601f84931162000acc575b50602090601f831160011462000a525760009262000a46575b50508160011b916000199060031b1c191617600f555b6060820151600281101562000a305760ff801960105416911617601055608082015180519060018060401b038211620007395760115490600182811c9216801562000a25575b6020831014620007185781601f849311620009c4575b50602090601f831160011462000946576000926200093a575b50508160011b916000199060031b1c1916176011555b60a08201518051906001600160401b038211620007395760125490600182811c921680156200092f575b6020831014620007185781601f849311620008ce575b50602090601f8311600114620008505760009262000844575b50508160011b916000199060031b1c1916176012555b60c08201518051906001600160401b038211620007395760135490600182811c9216801562000839575b6020831014620007185781601f849311620007d5575b50602090601f83116001146200075b576000926200074f575b50508160011b916000199060031b1c1916176013555b60e082015160145581015180519095906001600160401b0381116200073957601554600181811c911680156200072e575b60208210146200071857601f8111620006bf575b506020601f821160011462000641578190620006259860009262000635575b50508160011b916000199060031b1c1916176015555b8101516017556101600151601880546001600160a01b039283166001600160a01b031991821681179092556000601655601b8054969093169516949094179055601a55601d5562000eb4565b604051613889908162000efe8239f35b015190503880620005c3565b60156000908152600080516020620047c78339815191529890601f198416905b818110620006a65750916200062599918460019594106200068c575b505050811b01601555620005d9565b015160001960f88460031b161c191690553880806200067d565b838301518b556001909a01996020938401930162000661565b6015600052600080516020620047c7833981519152601f830160051c810191602084106200070d575b601f0160051c01905b818110620007005750620005a4565b60008155600101620006f1565b9091508190620006e8565b634e487b7160e01b600052602260045260246000fd5b90607f169062000590565b634e487b7160e01b600052604160045260246000fd5b01519050388062000549565b60136000908152600080516020620048278339815191529350601f198516905b818110620007bc5750908460019594939210620007a2575b505050811b016013556200055f565b015160001960f88460031b161c1916905538808062000793565b929360206001819287860151815501950193016200077b565b601360005290915060008051602062004827833981519152601f840160051c810191602085106200082e575b90601f859493920160051c01905b8181106200081e575062000530565b600081558493506001016200080f565b909150819062000801565b91607f16916200051a565b015190503880620004da565b601260009081529350600080516020620047a783398151915291905b601f1984168510620008b2576001945083601f1981161062000898575b505050811b01601255620004f0565b015160001960f88460031b161c1916905538808062000889565b818101518355602094850194600190930192909101906200086c565b6012600052909150600080516020620047a7833981519152601f840160051c81016020851062000927575b90849392915b601f830160051c8201811062000917575050620004c1565b60008155859450600101620008ff565b5080620008f9565b91607f1691620004ab565b0151905038806200046b565b601160009081529350600080516020620047e783398151915291905b601f1984168510620009a8576001945083601f198116106200098e575b505050811b0160115562000481565b015160001960f88460031b161c191690553880806200097f565b8181015183556020948501946001909301929091019062000962565b6011600052909150600080516020620047e7833981519152601f840160051c81016020851062000a1d575b90849392915b601f830160051c8201811062000a0d57505062000452565b60008155859450600101620009f5565b5080620009ef565b91607f16916200043c565b634e487b7160e01b600052602160045260246000fd5b015190503880620003e0565b600f6000908152600080516020620048678339815191529350601f198516905b81811062000ab3575090846001959493921062000a99575b505050811b01600f55620003f6565b015160001960f88460031b161c1916905538808062000a8a565b9293602060018192878601518155019501930162000a72565b600f60005290915060008051602062004867833981519152601f840160051c81016020851062000b25575b90849392915b601f830160051c8201811062000b15575050620003c7565b6000815585945060010162000afd565b508062000af7565b91607f1691620003b1565b01519050388062000371565b600e600090815293506000805160206200478783398151915291905b601f198416851062000ba6576001945083601f1981161062000b8c575b505050811b01600e5562000387565b015160001960f88460031b161c1916905538808062000b7d565b8181015183556020948501946001909301929091019062000b60565b600e60005290915060008051602062004787833981519152601f840160051c81016020851062000c1b575b90849392915b601f830160051c8201811062000c0b57505062000358565b6000815585945060010162000bf3565b508062000bed565b91607f169162000342565b015190503880620002f2565b6001600090815293506000805160206200484783398151915291905b601f198416851062000c9c576001945083601f1981161062000c82575b505050811b0160015562000308565b015160001960f88460031b161c1916905538808062000c73565b8181015183556020948501946001909301929091019062000c56565b600160005290915060008051602062004847833981519152601f840160051c81016020851062000d11575b90849392915b601f830160051c8201811062000d01575050620002d9565b6000815585945060010162000ce9565b508062000ce3565b91607f1691620002c3565b01519050388062000288565b600080805293506000805160206200480783398151915291905b601f198416851062000d90576001945083601f1981161062000d76575b505050811b016000556200029e565b015160001960f88460031b161c1916905538808062000d67565b8181015183556020948501946001909301929091019062000d4a565b6000805290915060008051602062004807833981519152601f840160051c81016020851062000e04575b90849392915b601f830160051c8201811062000df45750506200026f565b6000815585945060010162000ddc565b508062000dd6565b91607f169162000259565b600080fd5b6040519190601f01601f191682016001600160401b038111838210176200073957604052565b919080601f8401121562000e175782516001600160401b038111620007395760209062000e78601f8201601f1916830162000e1c565b9281845282828701011162000e175760005b81811062000ea057508260009394955001015290565b858101830151848201840152820162000e8a565b600b80546001600160a01b039283166001600160a01b0319821681179092559091167f8be0079c531659141344cd1fd0a4f28419497f9722a3daafe3b4186f6b6457e0600080a356fe60806040526004361015610013575b600080fd5b60003560e01c806301ffc9a71461025757806306fdde031461024e578063081812fc14610245578063095ea7b31461023c57806318160ddd1461023357806323b872dd1461022a5780632f745c591461022157806337307c3d1461021857806342842e0e1461020f5780634f6ccce7146102065780635b07c9a7146101fd5780636352211e146101f45780636f5e80d8146101eb57806370a08231146101e2578063715018a6146101d95780638da5cb5b146101d057806395d89b41146101c7578063a0426f7c146101be578063a22cb465146101b5578063b4720c92146101ac578063b88d4fde146101a3578063c87b56dd1461019a578063cd6d8f8514610191578063cef2646d14610188578063def6fc5f1461017f578063e985e9c514610176578063f1386cd61461016d578063f2fde38b146101645763f851a4401461015c57600080fd5b61000e611e99565b5061000e611dcf565b5061000e611ca8565b5061000e611b73565b5061000e611b54565b5061000e611ac8565b5061000e6115bf565b5061000e61142c565b5061000e6113cc565b5061000e610ef0565b5061000e610cb5565b5061000e610bc5565b5061000e61095e565b5061000e610934565b5061000e6108d5565b5061000e6108a9565b5061000e61088a565b5061000e61086b565b5061000e61084c565b5061000e6107a0565b5061000e610777565b5061000e6106d1565b5061000e61061d565b5061000e6105f3565b5061000e61059f565b5061000e6104c8565b5061000e61043e565b5061000e61035a565b5061000e610272565b6001600160e01b031981160361000e57565b503461000e57602036600319011261000e57602060043561029281610260565b63ffffffff60e01b1663780e9d6360e01b81149081156102b8575b506040519015158152f35b6380ac58cd60e01b8114915081156102ea575b81156102d9575b50386102ad565b6301ffc9a760e01b149050386102d2565b635b5e139f60e01b811491506102cb565b600091031261000e57565b919082519283825260005b848110610332575050826000602080949584010152601f8019910116010190565b602081830181015184830182015201610311565b906020610357928181520190610306565b90565b503461000e5760008060031936011261043b576040519080805461037d81611652565b8085529160019180831690811561041157506001146103b7575b6103b3856103a781870382610e46565b60405191829182610346565b0390f35b80809450527f290decd9548b62a8d60345a988386fc84ba6bc95484008f6362f93160ef3e5635b8284106103f95750505081016020016103a7826103b3610397565b805460208587018101919091529093019281016103de565b8695506103b3969350602092506103a794915060ff191682840152151560051b8201019293610397565b80fd5b503461000e57602036600319011261000e57602061045d600435612073565b6040516001600160a01b039091168152f35b600435906001600160a01b038216820361000e57565b604435906001600160a01b038216820361000e57565b602435906001600160a01b038216820361000e57565b61018435906001600160a01b038216820361000e57565b503461000e57604036600319011261000e576104e261046f565b6024356104ee81611fde565b916001600160a01b038084169082168114610550576105209361051b913314908115610522575b50612001565b6123f0565b005b6001600160a01b0316600090815260056020908152604080832033845290915290205460ff16905038610515565b60405162461bcd60e51b815260206004820152602160248201527f4552433732313a20617070726f76616c20746f2063757272656e74206f776e656044820152603960f91b6064820152608490fd5b503461000e57600036600319011261000e576020600854604051908152f35b606090600319011261000e576001600160a01b0390600435828116810361000e5791602435908116810361000e579060443590565b503461000e57610520610605366105be565b9161061861061384336121b6565b6120b1565b612288565b503461000e57604036600319011261000e5761063761046f565b6024359061064481611f1b565b821015610678576001600160a01b031660009081526006602090815260408083209383529281529082902054915191825290f35b60405162461bcd60e51b815260206004820152602b60248201527f455243373231456e756d657261626c653a206f776e657220696e646578206f7560448201526a74206f6620626f756e647360a81b6064820152608490fd5b503461000e57604036600319011261000e576106eb61046f565b601b546024359061070c906001600160a01b03165b6001600160a01b031690565b9161071883331461381b565b6001600160a01b0316918261076c5750601b546000925082918291829190610748906001600160a01b0316610700565b5af16107526124d2565b501561075a57005b60405163036b46f360e01b8152600490fd5b610520923090612e28565b503461000e57610520610789366105be565b906040519261079784610e2b565b60008452612113565b503461000e57602036600319011261000e576004356008548110156107f25760086000527ff3f7a9fe364faab93b216da50a3214154f22a0a2b415b23a84c8169e8b636ee30154604051908152602090f35b60405162461bcd60e51b815260206004820152602c60248201527f455243373231456e756d657261626c653a20676c6f62616c20696e646578206f60448201526b7574206f6620626f756e647360a01b6064820152608490fd5b503461000e57600036600319011261000e576020601c54604051908152f35b503461000e57602036600319011261000e57602061045d600435611fde565b503461000e57600036600319011261000e576020601d54604051908152f35b503461000e57602036600319011261000e5760206108cd6108c861046f565b611f1b565b604051908152f35b503461000e5760008060031936011261043b576108f0611ec3565b600b80546001600160a01b0319811690915581906001600160a01b03167f8be0079c531659141344cd1fd0a4f28419497f9722a3daafe3b4186f6b6457e08280a380f35b503461000e57600036600319011261000e57600b546040516001600160a01b039091168152602090f35b503461000e5760008060031936011261043b576040519080600180549161098483611652565b8086529282811690811561041157506001146109aa576103b3856103a781870382610e46565b92508083527fb10e2d527612073b26eecdfd717e6a320cf44b4afac2b0732d9fcbe2b7fa0cf65b8284106109ec5750505081016020016103a7826103b3610397565b805460208587018101919091529093019281016109d1565b6000915b60048310610a1557505050565b8151805182526020908101516001600160a01b0316818301526001939093019290910190604001610a08565b60808201916000815b60048210610a59575050505090565b9091929380846001920383528551610a91610a7c82516040808652850190610306565b60209384809401519084818403910152610306565b960192019201909291610a4a565b90815180825260208080930193019160005b828110610abf575050505090565b835185529381019392810192600101610ab1565b90610357916020815281516020820152602082015190610b0161026092836040840152610280830190610306565b604084015163ffffffff16606083015291606084015163ffffffff166080830152610b34608085015160a0840190610a04565b60a084015115156101a083015260c08401516001600160a01b03166101c0830152610160610ba7610b91610b7b60e088015196601f199788888303016101e0890152610a41565b6101008801518787830301610200880152610306565b6101208701518686830301610220870152610306565b61014086015115156102408501529401519282850301910152610a9f565b503461000e5760208060031936011261000e576040805191610be683610db9565b6000908184526060818501528183850152816060850152825190610c0982610e10565b825b60808110610c7c576103b385606061016089888860808301528060a08301528060c0830152610c3861330e565b60e083015283610100830152836101208301526101408201520152610c71610c6c600435600052600c602052604060002090565b613455565b905191829182610ad3565b81908551610c8981610de2565b85815285838201528185015201610c0b565b8015150361000e57565b6101643590610cb382610c9b565b565b503461000e57604036600319011261000e57610ccf61046f565b602435610cdb81610c9b565b6001600160a01b03821691338314610d5d5781610d1a610d2b9233600052600560205260406000209060018060a01b0316600052602052604060002090565b9060ff801983541691151516179055565b604051901515815233907f17307eab39ab6107e8899845ad3d59bd9653f200f220920489ca2b5937696c3190602090a3005b60405162461bcd60e51b815260206004820152601960248201527f4552433732313a20617070726f766520746f2063616c6c6572000000000000006044820152606490fd5b50634e487b7160e01b600052604160045260246000fd5b61018081019081106001600160401b03821117610dd557604052565b610ddd610da2565b604052565b604081019081106001600160401b03821117610dd557604052565b6001600160401b038111610dd557604052565b608081019081106001600160401b03821117610dd557604052565b602081019081106001600160401b03821117610dd557604052565b90601f801991011681019081106001600160401b03821117610dd557604052565b60405190610cb382610db9565b6020906001600160401b038111610e91575b601f01601f19160190565b610e99610da2565b610e86565b929192610eaa82610e74565b91610eb86040519384610e46565b82948184528183011161000e578281602093846000960137010152565b9080601f8301121561000e5781602061035793359101610e9e565b50608036600319011261000e5760243560048035610f0c610485565b926064356001600160401b03811161000e57610f2b9036908501610ed5565b92601693610f57610f5286610f4a87600052600c602052604060002090565b015460ff1690565b612b99565b610fc4610f9384610f8e610f856002610f7a8a600052600c602052604060002090565b015463ffffffff1690565b63ffffffff1690565b612bd4565b610fbd610f856002610faf89600052600c602052604060002090565b015460201c63ffffffff1690565b1015612be9565b610fd884600052600c602052604060002090565b95600b87015460ff81169081611347575b50611336576000906001600160a01b039081169060038901835b8681106111d7575b50505050156111c7579361101e83612cae565b946000906017600289019801915b85811061112a575050601b5461104e925061070091506001600160a01b031681565b61106f611062600d54975463ffffffff1690565b9363ffffffff8516612d86565b90803b1561000e576040805163d4cfd7b760e01b815233948101948552602085019890985283019190915263ffffffff90921660608201527f63b7afc79e6379a07137b441dd4e3db719cc1f55602e7091a6f0f97f05eb2588949160009183919082908490829060800103925af1801561111d575b611104575b506110ff600d5492604051938493339185612d93565b0390a1005b8061111161111792610dfd565b806102fb565b386110e9565b6111256124c5565b6110e4565b6111c2906111af8a61118a61117461116f601c9361115a85546111548161114f612ce0565b6132b6565b33612f6d565b6111658986546130e8565b5463ffffffff1690565b612d09565b8d5463ffffffff191663ffffffff909116178d55565b61119c6111978854612981565b601655565b54806111a8848d612d1f565b5285612d41565b6111bd6001601c5401601c55565b612981565b61102c565b50604051630b27db6160e11b8152fd5b876111e282846129bc565b5060019081015485166001600160a01b0316861461120a57505061120590612981565b611003565b95509193909261121a84866129bc565b5054611227575b5061100b565b816112df575050600080936112af61127783956112aa6112a261126387986112513461114f612c44565b61125b85896129bc565b505490612c31565b9261128761127f611277601d548097612c31565b612710900490565b61114f612c6b565b601b5461129c906001600160a01b0316610700565b966129bc565b50548d612c31565b612c31565b908282156112d6575bf1156112c9575b3880858180611221565b6112d16124c5565b6112bf565b506108fc6112b8565b909161127761132561131d8661130b61130361132e9661125b8c9b6112d19d6129bc565b30338a612e28565b601b546001600160a01b0316976129bc565b50548b612c31565b601d5490612c31565b921690612dea565b6040516316f8624360e11b81528390fd5b6040516370a0823160e01b8152338682019081529092506020918391829081908501039160081c6001600160a01b03165afa9081156113bf575b600091611391575b501538610fe9565b6113b2915060203d81116113b8575b6113aa8183610e46565b810190612c22565b38611389565b503d6113a0565b6113c76124c5565b611381565b503461000e57608036600319011261000e576113e661046f565b6113ee61049b565b606435916001600160401b03831161000e573660238401121561000e57611422610520933690602481600401359101610e9e565b9160443591612113565b503461000e57602036600319011261000e57600435600081815260026020526040902054611464906001600160a01b03161515611f92565b600052600a6020526103b361147c60406000206119ac565b600060405161148a81610e2b565b52604051918291602083526020830190610306565b90816083121561000e5760408051906114b782610e10565b81936101649080821161000e576064955b8287106114d85750929450505050565b838783031261000e578351906114ed82610de2565b87358252602080890135929091906001600160a01b038416840361000e578693838201528152019601956114c8565b81601f8201121561000e57604080519261153584610e10565b83608084019282841161000e5784915b8483106115555750505050505090565b6001600160401b03833581811161000e57870191838387031261000e57835161157d81610de2565b833583811161000e5787611592918601610ed5565b81526020928385013590811161000e57876115b09160209601610ed5565b83820152815201920191611545565b506101c036600319011261000e576001600160401b0360043581811161000e576115ed903690600401610ed5565b60243582811161000e57611605903690600401610ed5565b60443563ffffffff8116810361000e5761161e3661149f565b611626610ca5565b9161162f6104b1565b936101a43596871161000e5761164c61052097369060040161151c565b95612616565b90600182811c92168015611682575b602083101461166c57565b634e487b7160e01b600052602260045260246000fd5b91607f1691611661565b60405190600082600f54916116a083611652565b8083529260019081811690811561172657506001146116c7575b50610cb392500383610e46565b600f600090815291507f8d1108e10bcb7c27dddfc02ed9d693a074039d026cf4ea4240b40f7d581ac8025b84831061170b5750610cb39350508101602001386116ba565b81935090816020925483858a010152019101909185926116f2565b905060209250610cb394915060ff191682840152151560051b820101386116ba565b604051906000826011549161175c83611652565b8083529260019081811690811561172657506001146117825750610cb392500383610e46565b6011600090815291507f31ecc21a745e3968a04e9570e4425bc18fa8019c68028196b546d1669c200c685b8483106117c65750610cb39350508101602001386116ba565b81935090816020925483858a010152019101909185926117ad565b60405190600082601254916117f583611652565b80835292600190818116908115611726575060011461181b5750610cb392500383610e46565b6012600090815291507fbb8a6a4669ba250d26cd7a459eca9d215f8307e33aebe50379bc5a3617ec34445b84831061185f5750610cb39350508101602001386116ba565b81935090816020925483858a01015201910190918592611846565b604051906000826013549161188e83611652565b8083529260019081811690811561172657506001146118b45750610cb392500383610e46565b6013600090815291507f66de8ffda797e3de9c05e8fc57b3bf0ec28a930d40b0d285d93c06501cf6a0905b8483106118f85750610cb39350508101602001386116ba565b81935090816020925483858a010152019101909185926118df565b604051906000826015549161192783611652565b80835292600190818116908115611726575060011461194d5750610cb392500383610e46565b6015600090815291507f55f448fdea98c4d29eb340757ef0a66cd03dbb9538908a6a81d96026b71ec4755b8483106119915750610cb39350508101602001386116ba565b81935090816020925483858a01015201910190918592611978565b90604051918260008254926119c084611652565b908184526001948581169081600014611a2d57506001146119ea575b5050610cb392500383610e46565b9093915060005260209081600020936000915b818310611a15575050610cb3935082010138806119dc565b855488840185015294850194879450918301916119fd565b915050610cb394506020925060ff191682840152151560051b82010138806119dc565b9794611ab29493611a7c6101009994611ac099949d9c9d8c5260208c61012091829101528c0190610306565b63ffffffff91821660408c0152941660608a0152151560808901526001600160a01b031660a088015286820360c0880152610306565b9084820360e0860152610306565b931515910152565b503461000e57602036600319011261000e57600435600052600c602052604060002080546103b3611afb600184016119ac565b600284015493600b810154611b12601483016119ac565b9060ff6016611b23601586016119ac565b940154169360405197889763ffffffff9260ff60018060a01b038660081c16951693808460201c169316918a611a50565b503461000e57600036600319011261000e576020601954604051908152f35b503461000e57604036600319011261000e57602060ff611bc5611b9461046f565b611b9c61049b565b6001600160a01b0391821660009081526005865260408082209290931681526020919091522090565b54166040519015158152f35b906002821015611bde5752565b634e487b7160e01b600052602160045260246000fd5b979495611c59899b9e9d9b611c8998611c4c610cb39f9b969860606101609f9a611c759a611c36611c4492611c679b89526101808060208b0152890190610306565b908782036040890152610306565b940190611bd1565b8b820360808d0152610306565b9089820360a08b0152610306565b9087820360c0890152610306565b9160e0860152848203610100860152610306565b6101208301979097526101408201526001600160a01b03909216910152565b503461000e5760008060031936011261043b57600d54604051918281600e54611cd081611652565b80845293600191808316908115611dab5750600114611d4e575b5050611cf892500383610e46565b6103b3611d0361168c565b60ff60105416611d11611748565b611d196117e1565b611d2161187a565b60145490611d2d611913565b92601654946017549660018060a01b0360185416986040519c8d9c8d611bf4565b9150600e82527fbb7b4a454dc3493923482f07822329ed19e8244eff582cc204f8554c3620c3fd5b848310611d905750611cf893505081016020013880611cea565b81935090816020925483858a01015201910190918592611d76565b91505060209250611cf894915060ff191682840152151560051b8201013880611cea565b503461000e57602036600319011261000e57611de961046f565b611df1611ec3565b6001600160a01b03908116908115611e4557600b54826bffffffffffffffffffffffff60a01b821617600b55167f8be0079c531659141344cd1fd0a4f28419497f9722a3daafe3b4186f6b6457e0600080a3005b60405162461bcd60e51b815260206004820152602660248201527f4f776e61626c653a206e6577206f776e657220697320746865207a65726f206160448201526564647265737360d01b6064820152608490fd5b503461000e57600036600319011261000e57601b546040516001600160a01b039091168152602090f35b600b546001600160a01b03163303611ed757565b606460405162461bcd60e51b815260206004820152602060248201527f4f776e61626c653a2063616c6c6572206973206e6f7420746865206f776e65726044820152fd5b6001600160a01b03168015611f3b57600052600360205260406000205490565b60405162461bcd60e51b815260206004820152602960248201527f4552433732313a2061646472657373207a65726f206973206e6f7420612076616044820152683634b21037bbb732b960b91b6064820152608490fd5b15611f9957565b60405162461bcd60e51b815260206004820152601860248201527f4552433732313a20696e76616c696420746f6b656e20494400000000000000006044820152606490fd5b6000908152600260205260409020546001600160a01b0316610357811515611f92565b1561200857565b60405162461bcd60e51b815260206004820152603d60248201527f4552433732313a20617070726f76652063616c6c6572206973206e6f7420746f60448201527f6b656e206f776e6572206f7220617070726f76656420666f7220616c6c0000006064820152608490fd5b600081815260026020526040902054612096906001600160a01b03161515611f92565b6000908152600460205260409020546001600160a01b031690565b156120b857565b60405162461bcd60e51b815260206004820152602d60248201527f4552433732313a2063616c6c6572206973206e6f7420746f6b656e206f776e6560448201526c1c881bdc88185c1c1c9bdd9959609a1b6064820152608490fd5b91610cb3939161213a9361212a61061384336121b6565b612135838383612288565b6125c3565b612192565b60809060208152603260208201527f4552433732313a207472616e7366657220746f206e6f6e20455243373231526560408201527131b2b4bb32b91034b6b83632b6b2b73a32b960711b60608201520190565b1561219957565b60405162461bcd60e51b8152806121b26004820161213f565b0390fd5b6001600160a01b03806121c884611fde565b1692818316928484149485156121fe575b505083156121e8575b50505090565b6121f491929350612073565b16143880806121e2565b60009081526005602090815260408083206001600160a01b03949094168352929052205460ff16935038806121d9565b1561223557565b60405162461bcd60e51b815260206004820152602560248201527f4552433732313a207472616e736665722066726f6d20696e636f72726563742060448201526437bbb732b960d91b6064820152608490fd5b6122ac9061229584611fde565b6001600160a01b038281169390918216841461222e565b831692831561239f5761231e826122c787846123789661352d565b6122dd856122d76107008a611fde565b1461222e565b6123046122f4886000526004602052604060002090565b80546001600160a01b0319169055565b6001600160a01b0316600090815260036020526040902090565b80546000190190556001600160a01b038116600090815260036020526040902060018154019055612359856000526002602052604060002090565b80546001600160a01b0319166001600160a01b03909216919091179055565b7fddf252ad1be2c89b69c2b068fc378daa952ba7f163c4a11628f55a4df523b3ef600080a4565b60405162461bcd60e51b8152602060048201526024808201527f4552433732313a207472616e7366657220746f20746865207a65726f206164646044820152637265737360e01b6064820152608490fd5b600082815260046020526040902080546001600160a01b0319166001600160a01b0383161790556001600160a01b038061242984611fde565b169116907f8c5be1e5ebec7d5bd14f71427d1e84f3dd0314c0f7b2291e5b200ac8c7c3b925600080a4565b9081602091031261000e575161035781610260565b610357939260809260018060a01b031682526000602083015260408201528160608201520190610306565b6001600160a01b03918216815291166020820152604081019190915260806060820181905261035792910190610306565b506040513d6000823e3d90fd5b3d156124fd573d906124e382610e74565b916124f16040519384610e46565b82523d6000602084013e565b606090565b909190803b156125bb57612534602091600093604051948580948193630a85bd0160e11b998a84523360048501612469565b03926001600160a01b03165af16000918161258b575b5061257d576125576124d2565b805190816125785760405162461bcd60e51b8152806121b26004820161213f565b602001fd5b6001600160e01b0319161490565b6125ad91925060203d81116125b4575b6125a58183610e46565b810190612454565b903861254a565b503d61259b565b505050600190565b92909190823b156125f657612534926020926000604051809681958294630a85bd0160e11b9a8b85523360048601612494565b50505050600190565b50634e487b7160e01b600052603260045260246000fd5b91949092612622611ec3565b6019549661263a88600052600c602052604060002090565b9088825561269388600284016126578163ffffffff198154169055565b612664886001870161288e565b612671896015870161288e565b9067ffffffff0000000082549160201b169067ffffffff000000001916179055565b6003820160005b600481106127fc57505086806127eb575b6127d9576126f284600b84016126cd8a829060ff801983541691151516179055565b8054610100600160a81b03191660089290921b610100600160a81b0316919091179055565b600c820160005b600481106127b257505050601601805460ff19166001179055612720600160195401601955565b601a5480612766575b50907f0a93fa2f927a74a47cf4ad0fc6b28a9facb0a73c2599f408488a39328c554b189461276192600d549760405196879687612b35565b0390a3565b91909134106127a057600080808034612789610700601b5460018060a01b031690565b5af16127936124d2565b501561075a579038612729565b604051630fb2c9dd60e41b8152600490fd5b806111bd6127c36127d4938661299d565b516127ce83866129bc565b90612a2b565b6126f9565b6040516318a6b01160e21b8152600490fd5b506001600160a01b038416156126ab565b806111bd61280d61281e938861299d565b5161281883866129bc565b906129de565b61269a565b50634e487b7160e01b600052600060045260246000fd5b90601f811161284857505050565b600091825260208220906020601f850160051c83019410612884575b601f0160051c01915b82811061287957505050565b81815560010161286d565b9092508290612864565b91909182516001600160401b03811161295d575b6128b6816128b08454611652565b8461283a565b602080601f83116001146128f25750819293946000926128e7575b50508160011b916000199060031b1c1916179055565b0151905038806128d1565b90601f1983169561290885600052602060002090565b926000905b8882106129455750508360019596971061292c575b505050811b019055565b015160001960f88460031b161c19169055388080612922565b8060018596829496860151815501950193019061290d565b612965610da2565b6128a2565b50634e487b7160e01b600052601160045260246000fd5b6001906000198114612991570190565b61299961296a565b0190565b9060048110156129af575b60051b0190565b6129b76125ff565b6129a8565b9060048110156129d1575b60011b0190600090565b6129d96125ff565b6129c7565b90610cb392600191612a1e575b805183556020828060a01b039101511691019060018060a01b03166bffffffffffffffffffffffff60a01b825416179055565b612a26612823565b6129eb565b9190612b28575b80519081516001600160401b038111612b1b575b612a5a81612a548654611652565b8661283a565b6020928390601f8311600114612aa657918060019492610cb3979694600092612a9b575b5050600019600383901b1c191690841b1784555b0151910161288e565b015190503880612a7e565b90601f19831691612abc87600052602060002090565b9260005b818110612b0457509260019593928592610cb3999896889510612aeb575b505050811b018455612a92565b015160001960f88460031b161c19169055388080612ade565b929387600181928786015181550195019301612ac0565b612b23610da2565b612a46565b612b30612823565b612a32565b94919363ffffffff612b6b6101a096612b5d612b83959b9a979b6101c0808c528b0190610306565b9089820360208b0152610306565b98600060408901521660608701526080860190610a04565b15156101808401526001600160a01b0316910152565b15612ba057565b60405162461bcd60e51b815260206004820152600c60248201526b114e90d85d139bd15e1a5cdd60a21b6044820152606490fd5b91908201809211612be157565b610cb361296a565b15612bf057565b60405162461bcd60e51b815260206004820152600a602482015269229d2737a9ba37b1b59760b11b6044820152606490fd5b9081602091031261000e575190565b81810292918115918404141715612be157565b60405190612c5182610de2565b600b82526a036b9b3973b30b63ab29d160ad1b6020830152565b60405190612c7882610de2565b6007825266436f737420203160c81b6020830152565b6020906001600160401b038111612ca65760051b0190565b6129b7610da2565b90612cb882612c8e565b612cc56040519182610e46565b8281528092612cd6601f1991612c8e565b0190602036910137565b60405190612ced82610de2565b600d82526c02a35b71021b7bab73a32b91d1609d1b6020830152565b60019063ffffffff809116908114612991570190565b6020918151811015612d34575b60051b010190565b612d3c6125ff565b612d2c565b805490600160401b821015612d79575b60018201808255821015612d6c575b60005260206000200155565b612d746125ff565b612d60565b612d81610da2565b612d51565b91908203918211612be157565b60a09092919260808101938152602094859384830152600180841b031660408201526080606082015285518094520193019160005b828110612dd6575050505090565b835185529381019392810192600101612dc8565b60405163a9059cbb60e01b60208201526001600160a01b039092166024830152604480830193909352918152610cb391612e2382610e10565b612e8d565b6040516323b872dd60e01b60208201526001600160a01b039283166024820152929091166044830152606480830193909352918152610cb39160a082018281106001600160401b03821117612e80575b604052612e8d565b612e88610da2565b612e78565b604051612eeb916001600160a01b0316612ea682610de2565b6000806020958685527f5361666545524332303a206c6f772d6c6576656c2063616c6c206661696c656487860152868151910182855af1612ee56124d2565b91613225565b805180612ef757505050565b8183918101031261000e57810151612f0e81610c9b565b15612f165750565b6084906040519062461bcd60e51b82526004820152602a60248201527f5361666545524332303a204552433230206f7065726174696f6e20646964206e6044820152691bdd081cdd58d8d9595960b21b6064820152fd5b90604051612f7a81610e2b565b600081526001600160a01b03831691821561305857610cb3938161213a94612fc0612fba83600052600260205260018060a01b0360406000205416151590565b1561309c565b612fc982613691565b612fd38284613659565b600082815260026020526040902054612ff6906001600160a01b03161515612fba565b6001600160a01b03831660009081526003602052604090206001815401905561302d83612359846000526002602052604060002090565b60007fddf252ad1be2c89b69c2b068fc378daa952ba7f163c4a11628f55a4df523b3ef8180a4612502565b606460405162461bcd60e51b815260206004820152602060248201527f4552433732313a206d696e7420746f20746865207a65726f20616464726573736044820152fd5b156130a357565b60405162461bcd60e51b815260206004820152601c60248201527f4552433732313a20746f6b656e20616c7265616479206d696e746564000000006044820152606490fd5b6000818152600260205260409020549192916001600160a01b0316156131c9576000526020600a81526040600020908351906001600160401b0382116131bc575b61313d826131378554611652565b8561283a565b80601f831160011461316b5750819293946000926128e75750508160011b916000199060031b1c1916179055565b90601f1983169561318185600052602060002090565b926000905b8882106131a45750508360019596971061292c57505050811b019055565b80600185968294968601518155019501930190613186565b6131c4610da2565b613129565b60405162461bcd60e51b815260206004820152602e60248201527f45524337323155524953746f726167653a2055524920736574206f66206e6f6e60448201526d32bc34b9ba32b73a103a37b5b2b760911b6064820152608490fd5b919290156132875750815115613239575090565b3b156132425790565b60405162461bcd60e51b815260206004820152601d60248201527f416464726573733a2063616c6c20746f206e6f6e2d636f6e74726163740000006044820152606490fd5b82519091501561329a5750805190602001fd5b60405162461bcd60e51b81529081906121b29060048301610346565b6000919082916132fb60405180926132e76020830195632d839cb360e21b8752604060248501526064840190610306565b90604483015203601f198101835282610e46565b51906a636f6e736f6c652e6c6f675afa50565b60409081519161331d83610e10565b8260005b6080811061332e57505050565b602090835161333c81610de2565b6060808252838201528184015201613321565b90604080519261335e84610e10565b600090845b600483106133715750505050565b600260019185519061338282610de2565b84548252838060a01b0384860154169160209283820152815201920192019190613363565b9060408051926133b684610e10565b600090845b600483106133c95750505050565b60026001918551906133da82610de2565b6133e3856119ac565b82526133f08486016119ac565b91602092838201528152019201920191906133bb565b9060405191828154918282526020928383019160005283600020936000905b82821061343b57505050610cb392500383610e46565b855484526001958601958895509381019390910190613425565b906135256017613463610e67565b9380548552613474600182016119ac565b602086810191909152600282015463ffffffff8082166040890152911c1660608601526134a36003820161334f565b6080860152600b81015460ff8116151560a08701526134cf9060081c6001600160a01b031660c0870152565b6134db600c82016133a7565b60e08601526134ec601482016119ac565b6101008601526134fe601582016119ac565b61012086015261351f613515601683015460ff1690565b1515610140870152565b01613406565b610160830152565b9091906001600160a01b038082169182613570575061354b83613691565b83168061355e575050610cb39150613705565b03613567575050565b610cb391613659565b8185168303613580575b5061354b565b61358981611f1b565b600019810190811161364c575b6135e2600092868452600760205260408420548381036135f3575b50836135c7886000526007602052604060002090565b556001600160a01b0316600090815260066020526040902090565b90825260205260408120553861357a565b86855260066020526040852084865260205261364560408620546136298460018060a01b03166000526006602052604060002090565b8388526020528060408820556000526007602052604060002090565b55386135b1565b61365461296a565b613596565b60409061366581611f1b565b9260009160018060a01b0316825260066020528282208483526020528083832055815260076020522055565b60085481600052600960205280604060002055600160401b8110156136f8575b60018101806008558110156136eb575b60086000527ff3f7a9fe364faab93b216da50a3214154f22a0a2b415b23a84c8169e8b636ee30155565b6136f36125ff565b6136c1565b613700610da2565b6136b1565b60088054600019929083810181811161380e575b6137b560009384928184526009602052846040852054911015613801575b8684526137a47ff3f7a9fe364faab93b216da50a3214154f22a0a2b415b23a84c8169e8b636ee29586810154908310156137f4575b88865280837ff3f7a9fe364faab93b216da50a3214154f22a0a2b415b23a84c8169e8b636ee301556000526009602052604060002090565b556000526009602052604060002090565b5582549384156137e057840193808510156137d3575b838352015555565b6137db6125ff565b6137cb565b634e487b7160e01b83526031600452602483fd5b6137fc6125ff565b61376c565b6138096125ff565b613737565b61381661296a565b613719565b1561382257565b60405162461bcd60e51b815260206004820152600960248201526827a7262ca0a226a4a760b91b6044820152606490fdfea26469706673582212208440f00d923fe20eff760a88909c1caa13f03a13b984790dc02d52d73627700264736f6c63430008110033bb7b4a454dc3493923482f07822329ed19e8244eff582cc204f8554c3620c3fdbb8a6a4669ba250d26cd7a459eca9d215f8307e33aebe50379bc5a3617ec344455f448fdea98c4d29eb340757ef0a66cd03dbb9538908a6a81d96026b71ec47531ecc21a745e3968a04e9570e4425bc18fa8019c68028196b546d1669c200c68290decd9548b62a8d60345a988386fc84ba6bc95484008f6362f93160ef3e56366de8ffda797e3de9c05e8fc57b3bf0ec28a930d40b0d285d93c06501cf6a090b10e2d527612073b26eecdfd717e6a320cf44b4afac2b0732d9fcbe2b7fa0cf68d1108e10bcb7c27dddfc02ed9d693a074039d026cf4ea4240b40f7d581ac802a2646970667358221220a4e747c11df7246e9d581723904ead669dc14bd1f6c3ff09c45c7cf9fa51546c64736f6c63430008110033",
  "devdoc": {
    "kind": "dev",
    "methods": {
      "createNewEvent(string,string,(uint256,string,string,uint8,string,string,string,uint256,string,uint256,uint256,address))": {
        "details": "Create A new Event."
      },
      "owner()": {
        "details": "Returns the address of the current owner."
      },
      "renounceOwnership()": {
        "details": "Leaves the contract without owner. It will not be possible to call `onlyOwner` functions anymore. Can only be called by the current owner. NOTE: Renouncing ownership will leave the contract without an owner, thereby removing any functionality that is only available to the owner."
      },
      "transferOwnership(address)": {
        "details": "Transfers ownership of the contract to a new account (`newOwner`). Can only be called by the current owner."
      }
    },
    "version": 1
  },
  "userdoc": {
    "kind": "user",
    "methods": {},
    "version": 1
  },
  "storageLayout": {
    "storage": [
      {
        "astId": 601,
        "contract": "src/EventManager.sol:EventManager",
        "label": "_owner",
        "offset": 0,
        "slot": "0",
        "type": "t_address"
      },
      {
        "astId": 13253,
        "contract": "src/EventManager.sol:EventManager",
        "label": "_events",
        "offset": 0,
        "slot": "1",
        "type": "t_mapping(t_uint256,t_address)"
      },
      {
        "astId": 13256,
        "contract": "src/EventManager.sol:EventManager",
        "label": "_counter",
        "offset": 0,
        "slot": "2",
        "type": "t_struct(Counter)3057_storage"
      },
      {
        "astId": 13261,
        "contract": "src/EventManager.sol:EventManager",
        "label": "_ownersEvents",
        "offset": 0,
        "slot": "3",
        "type": "t_mapping(t_address,t_array(t_uint256)dyn_storage)"
      },
      {
        "astId": 13267,
        "contract": "src/EventManager.sol:EventManager",
        "label": "_ticketSales",
        "offset": 0,
        "slot": "4",
        "type": "t_mapping(t_address,t_array(t_struct(TicketSale)13249_storage)dyn_storage)"
      },
      {
        "astId": 13269,
        "contract": "src/EventManager.sol:EventManager",
        "label": "eventCreationFee",
        "offset": 0,
        "slot": "5",
        "type": "t_uint256"
      },
      {
        "astId": 13282,
        "contract": "src/EventManager.sol:EventManager",
        "label": "ticketCategoryCreationFee",
        "offset": 0,
        "slot": "6",
        "type": "t_uint256"
      },
      {
        "astId": 13285,
        "contract": "src/EventManager.sol:EventManager",
        "label": "ticketTransactionFee",
        "offset": 0,
        "slot": "7",
        "type": "t_uint256"
      }
    ],
    "types": {
      "t_address": {
        "encoding": "inplace",
        "label": "address",
        "numberOfBytes": "20"
      },
      "t_array(t_struct(TicketSale)13249_storage)dyn_storage": {
        "base": "t_struct(TicketSale)13249_storage",
        "encoding": "dynamic_array",
        "label": "struct EventManager.TicketSale[]",
        "numberOfBytes": "32"
      },
      "t_array(t_uint256)dyn_storage": {
        "base": "t_uint256",
        "encoding": "dynamic_array",
        "label": "uint256[]",
        "numberOfBytes": "32"
      },
      "t_mapping(t_address,t_array(t_struct(TicketSale)13249_storage)dyn_storage)": {
        "encoding": "mapping",
        "key": "t_address",
        "label": "mapping(address => struct EventManager.TicketSale[])",
        "numberOfBytes": "32",
        "value": "t_array(t_struct(TicketSale)13249_storage)dyn_storage"
      },
      "t_mapping(t_address,t_array(t_uint256)dyn_storage)": {
        "encoding": "mapping",
        "key": "t_address",
        "label": "mapping(address => uint256[])",
        "numberOfBytes": "32",
        "value": "t_array(t_uint256)dyn_storage"
      },
      "t_mapping(t_uint256,t_address)": {
        "encoding": "mapping",
        "key": "t_uint256",
        "label": "mapping(uint256 => address)",
        "numberOfBytes": "32",
        "value": "t_address"
      },
      "t_struct(Counter)3057_storage": {
        "encoding": "inplace",
        "label": "struct Counters.Counter",
        "members": [
          {
            "astId": 3056,
            "contract": "src/EventManager.sol:EventManager",
            "label": "_value",
            "offset": 0,
            "slot": "0",
            "type": "t_uint256"
          }
        ],
        "numberOfBytes": "32"
      },
      "t_struct(TicketSale)13249_storage": {
        "encoding": "inplace",
        "label": "struct EventManager.TicketSale",
        "members": [
          {
            "astId": 13244,
            "contract": "src/EventManager.sol:EventManager",
            "label": "eventId",
            "offset": 0,
            "slot": "0",
            "type": "t_uint256"
          },
          {
            "astId": 13246,
            "contract": "src/EventManager.sol:EventManager",
            "label": "startTicket",
            "offset": 0,
            "slot": "1",
            "type": "t_uint256"
          },
          {
            "astId": 13248,
            "contract": "src/EventManager.sol:EventManager",
            "label": "endTicket",
            "offset": 0,
            "slot": "2",
            "type": "t_uint256"
          }
        ],
        "numberOfBytes": "96"
      },
      "t_uint256": {
        "encoding": "inplace",
        "label": "uint256",
        "numberOfBytes": "32"
      }
    }
  }
}