{
  "address": "0x98C1aCF895ED348a5aa1DbdD4A87b6b392ff69De",
  "abi": [
    {
      "inputs": [],
      "stateMutability": "nonpayable",
      "type": "constructor"
    },
    {
      "inputs": [],
      "name": "CurrencySendFailure",
      "type": "error"
    },
    {
      "anonymous": false,
      "inputs": [
        {
          "indexed": true,
          "internalType": "address",
          "name": "previousOwner",
          "type": "address"
        },
        {
          "indexed": true,
          "internalType": "address",
          "name": "newOwner",
          "type": "address"
        }
      ],
      "name": "OwnershipTransferred",
      "type": "event"
    },
    {
      "anonymous": false,
      "inputs": [
        {
          "indexed": true,
          "internalType": "address",
          "name": "owner",
          "type": "address"
        },
        {
          "indexed": true,
          "internalType": "uint256",
          "name": "eventID",
          "type": "uint256"
        }
      ],
      "name": "eventCreated",
      "type": "event"
    },
    {
      "inputs": [
        {
          "internalType": "address",
          "name": "currency",
          "type": "address"
        },
        {
          "internalType": "uint256",
          "name": "valueToWithdraw",
          "type": "uint256"
        }
      ],
      "name": "adminWithdrawal",
      "outputs": [],
      "stateMutability": "nonpayable",
      "type": "function"
    },
    {
      "inputs": [
        {
          "internalType": "address",
          "name": "owner",
          "type": "address"
        },
        {
          "internalType": "uint256",
          "name": "start",
          "type": "uint256"
        },
        {
          "internalType": "uint256",
          "name": "offset",
          "type": "uint256"
        }
      ],
      "name": "allOwnersEvents",
      "outputs": [
        {
          "internalType": "uint256[]",
          "name": "",
          "type": "uint256[]"
        }
      ],
      "stateMutability": "view",
      "type": "function"
    },
    {
      "inputs": [
        {
          "internalType": "string",
          "name": "ticketNFTName",
          "type": "string"
        },
        {
          "internalType": "string",
          "name": "ticketNFTSymbol",
          "type": "string"
        },
        {
          "components": [
            {
              "internalType": "uint256",
              "name": "id",
              "type": "uint256"
            },
            {
              "internalType": "string",
              "name": "name",
              "type": "string"
            },
            {
              "internalType": "string",
              "name": "desc",
              "type": "string"
            },
            {
              "internalType": "enum Types.EventTypes",
              "name": "eventType",
              "type": "uint8"
            },
            {
              "internalType": "string",
              "name": "orgName",
              "type": "string"
            },
            {
              "internalType": "string",
              "name": "logo",
              "type": "string"
            },
            {
              "internalType": "string",
              "name": "email",
              "type": "string"
            },
            {
              "internalType": "uint256",
              "name": "date",
              "type": "uint256"
            },
            {
              "internalType": "string",
              "name": "website",
              "type": "string"
            },
            {
              "internalType": "uint256",
              "name": "ticketsSold",
              "type": "uint256"
            },
            {
              "internalType": "uint256",
              "name": "maxCapacity",
              "type": "uint256"
            },
            {
              "internalType": "address",
              "name": "owner",
              "type": "address"
            }
          ],
          "internalType": "struct Types.EventStruct",
          "name": "eventDetails",
          "type": "tuple"
        }
      ],
      "name": "createNewEvent",
      "outputs": [],
      "stateMutability": "payable",
      "type": "function"
    },
    {
      "inputs": [
        {
          "internalType": "uint256",
          "name": "index",
          "type": "uint256"
        }
      ],
      "name": "eventAt",
      "outputs": [
        {
          "internalType": "address",
          "name": "value",
          "type": "address"
        }
      ],
      "stateMutability": "view",
      "type": "function"
    },
    {
      "inputs": [],
      "name": "eventCreationFee",
      "outputs": [
        {
          "internalType": "uint256",
          "name": "",
          "type": "uint256"
        }
      ],
      "stateMutability": "view",
      "type": "function"
    },
    {
      "inputs": [],
      "name": "eventsSize",
      "outputs": [
        {
          "internalType": "uint256",
          "name": "size",
          "type": "uint256"
        }
      ],
      "stateMutability": "view",
      "type": "function"
    },
    {
      "inputs": [
        {
          "internalType": "address",
          "name": "ownerAddress",
          "type": "address"
        }
      ],
      "name": "getOwnedTickets",
      "outputs": [
        {
          "components": [
            {
              "internalType": "uint256",
              "name": "eventId",
              "type": "uint256"
            },
            {
              "internalType": "uint256",
              "name": "startTicket",
              "type": "uint256"
            },
            {
              "internalType": "uint256",
              "name": "endTicket",
              "type": "uint256"
            }
          ],
          "internalType": "struct EventManager.TicketSale[]",
          "name": "",
          "type": "tuple[]"
        }
      ],
      "stateMutability": "view",
      "type": "function"
    },
    {
      "inputs": [],
      "name": "owner",
      "outputs": [
        {
          "internalType": "address",
          "name": "",
          "type": "address"
        }
      ],
      "stateMutability": "view",
      "type": "function"
    },
    {
      "inputs": [
        {
          "internalType": "address",
          "name": "ownerAddress",
          "type": "address"
        },
        {
          "internalType": "uint256",
          "name": "eventId",
          "type": "uint256"
        },
        {
          "internalType": "uint256",
          "name": "ticketStart",
          "type": "uint256"
        },
        {
          "internalType": "uint256",
          "name": "ticketEnd",
          "type": "uint256"
        }
      ],
      "name": "recordTicketsale",
      "outputs": [],
      "stateMutability": "nonpayable",
      "type": "function"
    },
    {
      "inputs": [],
      "name": "renounceOwnership",
      "outputs": [],
      "stateMutability": "nonpayable",
      "type": "function"
    },
    {
      "inputs": [
        {
          "internalType": "uint256",
          "name": "newEventCreationFee",
          "type": "uint256"
        }
      ],
      "name": "setEventCreationFee",
      "outputs": [],
      "stateMutability": "nonpayable",
      "type": "function"
    },
    {
      "inputs": [
        {
          "internalType": "address",
          "name": "newOwner",
          "type": "address"
        }
      ],
      "name": "transferOwnership",
      "outputs": [],
      "stateMutability": "nonpayable",
      "type": "function"
    }
  ],
  "transactionHash": "0x4e15ae90337f33a6c6db4c39cf8dbbc8c98f635a4ddf1346313eec7089d2d6c2",
  "args": [],
  "numDeployments": 6,
  "solcInputHash": "6c1c1d305ba3ffb844ff8f8ddfda4d05",
  "bytecode": "0x6080806040523461005f5760008054336001600160a01b0319821681178355906001600160a01b03167f8be0079c531659141344cd1fd0a4f28419497f9722a3daafe3b4186f6b6457e08380a3806006556005556153be90816100658239f35b600080fdfe60808060405260043610156200001457600080fd5b600090813560e01c9081630c3fabeb1462000c105750806332b1ea321462000bdb57806337307c3d1462000ac85780634527746f14620009c957806360c04ce214620009a2578063715018a614620009445780638da5cb5b146200091b5780638ff6212914620008fb5780639c25a5e914620003bf578063d4cfd7b714620002ff578063e4f5e2f6146200017c5763f2fde38b14620000b257600080fd5b34620001795760203660031901126200017957620000cf62000c2e565b620000d962000d07565b6001600160a01b03908116908115620001255782546001600160a01b0319811683178455167f8be0079c531659141344cd1fd0a4f28419497f9722a3daafe3b4186f6b6457e08380a380f35b60405162461bcd60e51b815260206004820152602660248201527f4f776e61626c653a206e6577206f776e657220697320746865207a65726f206160448201526564647265737360d01b6064820152608490fd5b80fd5b50346200017957606036600319011262000179576200019a62000c2e565b6001600160a01b0316808252600360208181526040842054602494604435949093863593928681861015620002f6575b620001d782918762000dd1565b11620002df575b50620001ea8662000e03565b91620001fa604051938462000c7c565b868352620002088762000e03565b83850190601f1901368237855b62000221898862000dd1565b8110156200029b578288528386526200023e8160408a2062000da2565b905490851b1c62000250888362000df5565b8651811015620002885760051b86018701526000198114620002755760010162000215565b634e487b7160e01b885260116004528988fd5b634e487b7160e01b8a5260326004528b8afd5b8486838a60405193838594850191818652518092526040850193925b828110620002c757505050500390f35b835185528695509381019392810192600101620002b7565b620002ee919650849062000df5565b9438620001de565b869550620001ca565b50346200017957608036600319011262000179576001600160a01b036200032562000c2e565b16815260046020526040812090604051620003408162000c4a565b6024358152602081016044358152604082019060643582528454600160401b811015620003ab5760018101808755811015620003975784956002949552600360208720910201935184555160018401555191015580f35b634e487b7160e01b85526032600452602485fd5b634e487b7160e01b85526041600452602485fd5b50600319606036820112620008f7576004356001600160401b038111620008f357620003f090369060040162000cba565b906024356001600160401b038111620008eb576200041390369060040162000cba565b906001600160401b0360443511620008eb576101809060443536030112620008f3576040519061018082018281106001600160401b03821117620003ab57604052604435600401358252602460443501356001600160401b038111620008ef57620004879060043691604435010162000cba565b60208301526044803501356001600160401b038111620008ef57620004b59060043691604435010162000cba565b6040830152606460443501356002811015620008ef576060830152608460443501356001600160401b038111620008ef57620004fa9060043691604435010162000cba565b608083015260a460443501356001600160401b038111620008ef57620005299060043691604435010162000cba565b60a083015260c460443501356001600160401b038111620008ef57620005589060043691604435010162000cba565b60c083015260e4604435013560e08301526001600160401b03610104604435013511620008eb5762000597366044356101048101350160040162000cba565b61010083015260443561012481013561012084015261014481013561014084015261016401356001600160a01b0381169003620008eb57610164604435013561016083015260055480620008ad575b506001600254018060025533610160840152825260065491604051938461456d8101106001600160401b0361456d87011117620008995761456d62000e1c863960a061456d860152815160a061456d870101526200067f62000662602084015161018060c061456d8a01015261022061456d8901019062000d60565b604084015161456d8801808303609f190160e09091015262000d60565b60608301516002811015620008855792869594926200074462000714620006f6620006d86200078c96620007a3996101008d61456d01015260808701518c610120609f1961456d83018503019161456d01015262000d60565b60a086015161456d8c01808303609f19016101409091015262000d60565b60c085015161456d8b01808303609f19016101609091015262000d60565b60e084015161018061456d8b010152610100840151609f1961456d8b018303016101a061456d8c01015262000d60565b61012083015161456d89016101c08101919091526101408401516101e0820152610160909301516001600160a01b031661020084015282810360209093019290925262000d60565b9061456d85018203604061456d8701015262000d60565b9030606061456d85010152608061456d84010152039082f08015620008785760025482526001602052604082209060018060a01b03166bffffffffffffffffffffffff60a01b82541617905533815260036020526040812060025490805490600160401b821015620008645790620008219160018201815562000da2565b819291549060031b600019811b9283911b16911916179055600254337f6c187a21126f97259f4571813b2fd10bb11732bf880540a1b462dced7a21b5dd8380a380f35b634e487b7160e01b84526041600452602484fd5b50604051903d90823e3d90fd5b634e487b7160e01b88526021600452602488fd5b634e487b7160e01b86526041600452602486fd5b3410620008bb5738620005e6565b60405162461bcd60e51b8152602060048201526008602482015267454d3a4e4f46454560c01b6044820152606490fd5b8380fd5b8480fd5b8280fd5b5080fd5b503462000179578060031936011262000179576020600554604051908152f35b50346200017957806003193601126200017957546040516001600160a01b039091168152602090f35b503462000179578060031936011262000179576200096162000d07565b80546001600160a01b03198116825581906001600160a01b03167f8be0079c531659141344cd1fd0a4f28419497f9722a3daafe3b4186f6b6457e08280a380f35b5034620001795760203660031901126200017957620009c062000d07565b60043560055580f35b50346200017957602090816003193601126200017957906001600160a01b03620009f262000c2e565b1682526004815260408220805462000a0a8162000e03565b9062000a1a604051928362000c7c565b8082528382018093865284862086915b83831062000a8557505050506040519280840191818552518092526040840192945b82811062000a5a5784840385f35b8551805185528083015185840152604090810151908501529481019460609093019260010162000a4c565b60038760019260409a9997989a5162000a9e8162000c4a565b85548152848601548382015260028601546040820152815201920192019190969493959662000a2a565b50346200017957604036600319011262000179578062000ae762000c2e565b816024359162000af662000d07565b6001600160a01b03168062000b5a5750808092335af13d1562000b54573d62000b1f8162000c9e565b9062000b2f604051928362000c7c565b81528260203d92013e5b1562000b425780f35b60405163036b46f360e01b8152600490fd5b62000b39565b9050606460209260405194859384926323b872dd60e01b845230600485015233602485015260448401525af1801562000bd05762000b96575080f35b6020813d821162000bc7575b8162000bb16020938362000c7c565b81010312620008f7575180151503620001795780f35b3d915062000ba2565b6040513d84823e3d90fd5b5034620001795760203660031901126200017957602090600435815260018252604060018060a01b0391205416604051908152f35b905034620008f75781600319360112620008f7576020906002548152f35b600435906001600160a01b038216820362000c4557565b600080fd5b606081019081106001600160401b0382111762000c6657604052565b634e487b7160e01b600052604160045260246000fd5b90601f801991011681019081106001600160401b0382111762000c6657604052565b6001600160401b03811162000c6657601f01601f191660200190565b81601f8201121562000c455780359062000cd48262000c9e565b9262000ce4604051948562000c7c565b8284526020838301011162000c4557816000926020809301838601378301015290565b6000546001600160a01b0316330362000d1c57565b606460405162461bcd60e51b815260206004820152602060248201527f4f776e61626c653a2063616c6c6572206973206e6f7420746865206f776e65726044820152fd5b919082519283825260005b84811062000d8d575050826000602080949584010152601f8019910116010190565b60208183018101518483018201520162000d6b565b805482101562000dbb5760005260206000200190600090565b634e487b7160e01b600052603260045260246000fd5b9190820180921162000ddf57565b634e487b7160e01b600052601160045260246000fd5b9190820391821162000ddf57565b6001600160401b03811162000c665760051b6020019056fe60806040523462000e09576200456d80380390816200001e8162000e0e565b91823960a081838101031262000e095780516001600160401b03811162000e09578101916101808084838501031262000e09576040519081016001600160401b038111828210176200072b576040528351815260208401516001600160401b03811162000e0957620000969083850190860162000e34565b602082015260408401516001600160401b03811162000e0957620000c09083850190860162000e34565b60408201526060840151600281101562000e0957606082015260808401516001600160401b03811162000e0957620000fe9083850190860162000e34565b608082015260a08401516001600160401b03811162000e0957620001289083850190860162000e34565b60a082015260c08401516001600160401b03811162000e0957620001529083850190860162000e34565b60c082015260e08481015190820152610100808501516001600160401b03811162000e0957620001889084860190870162000e34565b8282015261012085810151908301526101408086015181840152610160909501516001600160a01b038116810362000e095761016083015260208401516001600160401b03811162000e0957620001e59084860190860162000e34565b60408501519093906001600160401b03811162000e09576200020c91860190860162000e34565b6060850151946001600160a01b038616860362000e095760800151845190946001600160401b0382116200072b5760005490600182811c9216801562000dfe575b60208310146200070a5781601f84931162000d9e575b50602090601f831160011462000d225760009262000d16575b50508160011b916000199060031b1c1916176000555b8051906001600160401b0382116200072b5760015490600182811c9216801562000d0b575b60208310146200070a5781601f84931162000caa575b50602090601f831160011462000c2c5760009262000c20575b50508160011b916000199060031b1c1916176001555b620003073362000ea6565b8151600d5560208201518051906001600160401b0382116200072b57600e5490600182811c9216801562000c15575b60208310146200070a5781601f84931162000bb4575b50602090601f831160011462000b365760009262000b2a575b50508160011b916000199060031b1c191617600e555b60408201518051906001600160401b0382116200072b57600f5490600182811c9216801562000b1f575b60208310146200070a5781601f84931162000abe575b50602090601f831160011462000a445760009262000a38575b50508160011b916000199060031b1c191617600f555b6060820151600281101562000a225760ff801960105416911617601055608082015180519060018060401b0382116200072b5760115490600182811c9216801562000a17575b60208310146200070a5781601f849311620009b6575b50602090601f831160011462000938576000926200092c575b50508160011b916000199060031b1c1916176011555b60a08201518051906001600160401b0382116200072b5760125490600182811c9216801562000921575b60208310146200070a5781601f849311620008c0575b50602090601f8311600114620008425760009262000836575b50508160011b916000199060031b1c1916176012555b60c08201518051906001600160401b0382116200072b5760135490600182811c921680156200082b575b60208310146200070a5781601f849311620007c7575b50602090601f83116001146200074d5760009262000741575b50508160011b916000199060031b1c1916176013555b60e0820151601455810151805194906001600160401b0386116200072b57601554600181811c9116801562000720575b60208210146200070a57601f8111620006b1575b50602090601f871160011462000632576200061696916000918362000626575b50508160011b916000199060031b1c1916176015555b8101516017556101600151601880546001600160a01b039283166001600160a01b031991821681179092556000601655601b8054959093169416939093179055601a5562000ea6565b60405161357d908162000ef08239f35b015190503880620005b7565b60156000908152600080516020620044ad833981519152929190601f198916905b818110620006985750916001939189620006169a94106200067e575b505050811b01601555620005cd565b015160001960f88460031b161c191690553880806200066f565b9293602060018192878601518155019501930162000653565b6015600052600080516020620044ad833981519152601f880160051c81019160208910620006ff575b601f0160051c01905b818110620006f2575062000597565b60008155600101620006e3565b9091508190620006da565b634e487b7160e01b600052602260045260246000fd5b90607f169062000583565b634e487b7160e01b600052604160045260246000fd5b0151905038806200053d565b601360009081526000805160206200450d8339815191529350601f198516905b818110620007ae575090846001959493921062000794575b505050811b0160135562000553565b015160001960f88460031b161c1916905538808062000785565b929360206001819287860151815501950193016200076d565b60136000529091506000805160206200450d833981519152601f840160051c8101916020851062000820575b90601f859493920160051c01905b81811062000810575062000524565b6000815584935060010162000801565b9091508190620007f3565b91607f16916200050e565b015190503880620004ce565b6012600090815293506000805160206200448d83398151915291905b601f1984168510620008a4576001945083601f198116106200088a575b505050811b01601255620004e4565b015160001960f88460031b161c191690553880806200087b565b818101518355602094850194600190930192909101906200085e565b60126000529091506000805160206200448d833981519152601f840160051c81016020851062000919575b90849392915b601f830160051c8201811062000909575050620004b5565b60008155859450600101620008f1565b5080620008eb565b91607f16916200049f565b0151905038806200045f565b601160009081529350600080516020620044cd83398151915291905b601f19841685106200099a576001945083601f1981161062000980575b505050811b0160115562000475565b015160001960f88460031b161c1916905538808062000971565b8181015183556020948501946001909301929091019062000954565b6011600052909150600080516020620044cd833981519152601f840160051c81016020851062000a0f575b90849392915b601f830160051c82018110620009ff57505062000446565b60008155859450600101620009e7565b5080620009e1565b91607f169162000430565b634e487b7160e01b600052602160045260246000fd5b015190503880620003d4565b600f60009081526000805160206200454d8339815191529350601f198516905b81811062000aa5575090846001959493921062000a8b575b505050811b01600f55620003ea565b015160001960f88460031b161c1916905538808062000a7c565b9293602060018192878601518155019501930162000a64565b600f6000529091506000805160206200454d833981519152601f840160051c81016020851062000b17575b90849392915b601f830160051c8201811062000b07575050620003bb565b6000815585945060010162000aef565b508062000ae9565b91607f1691620003a5565b01519050388062000365565b600e600090815293506000805160206200446d83398151915291905b601f198416851062000b98576001945083601f1981161062000b7e575b505050811b01600e556200037b565b015160001960f88460031b161c1916905538808062000b6f565b8181015183556020948501946001909301929091019062000b52565b600e6000529091506000805160206200446d833981519152601f840160051c81016020851062000c0d575b90849392915b601f830160051c8201811062000bfd5750506200034c565b6000815585945060010162000be5565b508062000bdf565b91607f169162000336565b015190503880620002e6565b6001600090815293506000805160206200452d83398151915291905b601f198416851062000c8e576001945083601f1981161062000c74575b505050811b01600155620002fc565b015160001960f88460031b161c1916905538808062000c65565b8181015183556020948501946001909301929091019062000c48565b60016000529091506000805160206200452d833981519152601f840160051c81016020851062000d03575b90849392915b601f830160051c8201811062000cf3575050620002cd565b6000815585945060010162000cdb565b508062000cd5565b91607f1691620002b7565b0151905038806200027c565b60008080529350600080516020620044ed83398151915291905b601f198416851062000d82576001945083601f1981161062000d68575b505050811b0160005562000292565b015160001960f88460031b161c1916905538808062000d59565b8181015183556020948501946001909301929091019062000d3c565b60008052909150600080516020620044ed833981519152601f840160051c81016020851062000df6575b90849392915b601f830160051c8201811062000de657505062000263565b6000815585945060010162000dce565b508062000dc8565b91607f16916200024d565b600080fd5b6040519190601f01601f191682016001600160401b038111838210176200072b57604052565b919080601f8401121562000e095782516001600160401b0381116200072b5760209062000e6a601f8201601f1916830162000e0e565b9281845282828701011162000e095760005b81811062000e9257508260009394955001015290565b858101830151848201840152820162000e7c565b600b80546001600160a01b039283166001600160a01b0319821681179092559091167f8be0079c531659141344cd1fd0a4f28419497f9722a3daafe3b4186f6b6457e0600080a356fe60806040526004361015610013575b600080fd5b60003560e01c806301ffc9a71461022f57806306fdde0314610226578063081812fc1461021d578063095ea7b31461021457806318160ddd1461020b57806323b872dd146102025780632f745c59146101f957806342842e0e146101f05780634f6ccce7146101e75780635b07c9a7146101de5780636352211e146101d557806370a08231146101cc578063715018a6146101c35780638da5cb5b146101ba57806395d89b41146101b1578063a22cb465146101a8578063b4720c921461019f578063b88d4fde14610196578063c87b56dd1461018d578063c887987c14610184578063cd6d8f851461017b578063cef2646d14610172578063def6fc5f14610169578063e985e9c514610160578063f1386cd614610157578063f2fde38b1461014e5763f851a4401461014657600080fd5b61000e611c8a565b5061000e611bbc565b5061000e611a95565b5061000e611955565b5061000e611936565b5061000e6118aa565b5061000e6113a1565b5061000e6111be565b5061000e610fd4565b5061000e610f6c565b5061000e610b39565b5061000e6108fa565b5061000e61083c565b5061000e610812565b5061000e6107b3565b5061000e610783565b5061000e610764565b5061000e610745565b5061000e610699565b5061000e610670565b5061000e6105b8565b5061000e61058e565b5061000e610543565b5061000e610468565b5061000e610416565b5061000e610332565b5061000e61024a565b6001600160e01b031981160361000e57565b503461000e57602036600319011261000e57602060043561026a81610238565b63ffffffff60e01b1663780e9d6360e01b8114908115610290575b506040519015158152f35b6380ac58cd60e01b8114915081156102c2575b81156102b1575b5038610285565b6301ffc9a760e01b149050386102aa565b635b5e139f60e01b811491506102a3565b600091031261000e57565b919082519283825260005b84811061030a575050826000602080949584010152601f8019910116010190565b6020818301810151848301820152016102e9565b90602061032f9281815201906102de565b90565b503461000e57600080600319360112610413576040519080805461035581611434565b808552916001918083169081156103e9575060011461038f575b61038b8561037f81870382610a8f565b6040519182918261031e565b0390f35b80809450527f290decd9548b62a8d60345a988386fc84ba6bc95484008f6362f93160ef3e5635b8284106103d157505050810160200161037f8261038b61036f565b805460208587018101919091529093019281016103b6565b86955061038b9693506020925061037f94915060ff191682840152151560051b820101929361036f565b80fd5b503461000e57602036600319011261000e576020610435600435611e64565b6040516001600160a01b039091168152f35b6001600160a01b0381160361000e57565b610184359061046682610447565b565b503461000e57604036600319011261000e5760043561048681610447565b60243561049281611dcf565b916001600160a01b0380841690821681146104f4576104c4936104bf9133149081156104c6575b50611df2565b6121e1565b005b6001600160a01b0316600090815260056020908152604080832033845290915290205460ff169050386104b9565b60405162461bcd60e51b815260206004820152602160248201527f4552433732313a20617070726f76616c20746f2063757272656e74206f776e656044820152603960f91b6064820152608490fd5b503461000e57600036600319011261000e576020600854604051908152f35b606090600319011261000e5760043561057a81610447565b9060243561058781610447565b9060443590565b503461000e576104c46105a036610562565b916105b36105ae8433611fa7565b611ea2565b612079565b503461000e57604036600319011261000e576004356105d681610447565b602435906105e381611d0c565b821015610617576001600160a01b031660009081526006602090815260408083209383529281529082902054915191825290f35b60405162461bcd60e51b815260206004820152602b60248201527f455243373231456e756d657261626c653a206f776e657220696e646578206f7560448201526a74206f6620626f756e647360a81b6064820152608490fd5b503461000e576104c461068236610562565b906040519261069084610a74565b60008452611f04565b503461000e57602036600319011261000e576004356008548110156106eb5760086000527ff3f7a9fe364faab93b216da50a3214154f22a0a2b415b23a84c8169e8b636ee30154604051908152602090f35b60405162461bcd60e51b815260206004820152602c60248201527f455243373231456e756d657261626c653a20676c6f62616c20696e646578206f60448201526b7574206f6620626f756e647360a01b6064820152608490fd5b503461000e57600036600319011261000e576020601c54604051908152f35b503461000e57602036600319011261000e576020610435600435611dcf565b503461000e57602036600319011261000e5760206107ab6004356107a681610447565b611d0c565b604051908152f35b503461000e57600080600319360112610413576107ce611cb4565b600b80546001600160a01b0319811690915581906001600160a01b03167f8be0079c531659141344cd1fd0a4f28419497f9722a3daafe3b4186f6b6457e08280a380f35b503461000e57600036600319011261000e57600b546040516001600160a01b039091168152602090f35b503461000e57600080600319360112610413576040519080600180549161086283611434565b808652928281169081156103e957506001146108885761038b8561037f81870382610a8f565b92508083527fb10e2d527612073b26eecdfd717e6a320cf44b4afac2b0732d9fcbe2b7fa0cf65b8284106108ca57505050810160200161037f8261038b61036f565b805460208587018101919091529093019281016108af565b8015150361000e57565b6101643590610466826108e2565b503461000e57604036600319011261000e5760043561091881610447565b602435610924816108e2565b6001600160a01b038216913383146109a657816109636109749233600052600560205260406000209060018060a01b0316600052602052604060002090565b9060ff801983541691151516179055565b604051901515815233907f17307eab39ab6107e8899845ad3d59bd9653f200f220920489ca2b5937696c3190602090a3005b60405162461bcd60e51b815260206004820152601960248201527f4552433732313a20617070726f766520746f2063616c6c6572000000000000006044820152606490fd5b50634e487b7160e01b600052604160045260246000fd5b6001600160401b038111610a1557604052565b610a1d6109eb565b604052565b61016081019081106001600160401b03821117610a1557604052565b604081019081106001600160401b03821117610a1557604052565b608081019081106001600160401b03821117610a1557604052565b602081019081106001600160401b03821117610a1557604052565b90601f801991011681019081106001600160401b03821117610a1557604052565b6040519061046682610a22565b6020906001600160401b038111610ada575b601f01601f19160190565b610ae26109eb565b610acf565b929192610af382610abd565b91610b016040519384610a8f565b82948184528183011161000e578281602093846000960137010152565b9080601f8301121561000e5781602061032f93359101610ae7565b50608036600319011261000e5760443560048035602435610b5984610447565b6064356001600160401b03811161000e57610b779036908501610b1e565b92601694610ba3610b9e87610b9687600052600c602052604060002090565b015460ff1690565b61299c565b610c10610bdf84610bda610bd16002610bc68a600052600c602052604060002090565b015463ffffffff1690565b63ffffffff1690565b6129d7565b610c09610bd16002610bfb89600052600c602052604060002090565b015460201c63ffffffff1690565b10156129ec565b610c2484600052600c602052604060002090565b90600b82015460ff81169081610ee7575b50610ed6576000906001600160a01b03808216916003850190845b878110610e20575b505050505015610e105794610c6c83612a7d565b94600260009701965b848110610d7e575050601b54610ca29150610c96906001600160a01b031681565b6001600160a01b031690565b610cc3610cb6600d54975463ffffffff1690565b9363ffffffff8516612b10565b90803b1561000e576040805163d4cfd7b760e01b815233948101948552602085019890985283019190915263ffffffff90921660608201527f63b7afc79e6379a07137b441dd4e3db719cc1f55602e7091a6f0f97f05eb2588949160009183919082908490829060800103925af18015610d71575b610d58575b50610d53600d5492604051938493339185612b1d565b0390a1005b80610d65610d6b92610a02565b806102d3565b38610d3d565b610d796122b6565b610d38565b610e0b90601c610da08154610d9a81610d95612aaf565b613040565b33612cf7565b610dab848254612e72565b610dda610dc4610dbf8c5463ffffffff1690565b612ad8565b8b5463ffffffff191663ffffffff909116178b55565b610dec610de78654612784565b601655565b54610df7828a612aee565b52610e066001601c5401601c55565b612784565b610c75565b50604051630b27db6160e11b8152fd5b88610e2b82856127bf565b5060019081015486166001600160a01b03168714610e53575050610e4e90612784565b610c50565b9650945091929091610e6581856127bf565b505415610c5857610ebc610eb7610eaf83610e9d610e95610ecc9a610e8d610ec4988c6127bf565b505490612a4a565b30338a612bb2565b601b546001600160a01b0316976127bf565b50548b612a4a565b612a34565b612710900490565b921690612b74565b8338808080610c58565b6040516316f8624360e11b81528390fd5b6040516370a0823160e01b8152338682019081529092506020918391829081908501039160081c6001600160a01b03165afa908115610f5f575b600091610f31575b501538610c35565b610f52915060203d8111610f58575b610f4a8183610a8f565b810190612a25565b38610f29565b503d610f40565b610f676122b6565b610f21565b503461000e57608036600319011261000e57600435610f8a81610447565b602435610f9681610447565b606435916001600160401b03831161000e573660238401121561000e57610fca6104c4933690602481600401359101610ae7565b9160443591611f04565b503461000e57602036600319011261000e5760043560008181526002602052604090205461100c906001600160a01b03161515611d83565b600052600a60205261038b611024604060002061178e565b600060405161103281610a74565b526040519182916020835260208301906102de565b6000915b6004831061105857505050565b8151805182526020908101516001600160a01b031681830152600193909301929091019060400161104b565b60808201916000815b6004821061109c575050505090565b90919293808460019203835285516110d46110bf825160408086528501906102de565b602093848094015190848184039101526102de565b96019201920190929161108d565b61032f90602081528251602082015260208301516101406111b4611114610240938460408701526102608601906102de565b604087015163ffffffff166060860152606087015163ffffffff166080860152611146608088015160a0870190611047565b60a087015115156101a086015260c08701516001600160a01b03166101c086015261119d61118760e089015192601f199384898303016101e08a0152611084565b61010089015183888303016102008901526102de565b9061012088015190868303016102208701526102de565b9401511515910152565b503461000e5760208060031936011261000e57604080516111de81610a22565b6000908181526060848201528183820152816060820152825161120081610a59565b825b6080811061126d5761038b8585610140868660808201528260a08201528260c082015261122d613098565b60e082015260606101008201526060610120820152015261126261125d600435600052600c602052604060002090565b613190565b9051918291826110e2565b8590855161127a81610a3e565b85815285838201528184015201611202565b90816083121561000e5760408051906112a482610a59565b81936101649080821161000e576064955b8287106112c55750929450505050565b838783031261000e57835184916112db82610a3e565b88358252602091828a01356112ef81610447565b838201528152019601956112b5565b81601f8201121561000e57604080519261131784610a59565b83608084019282841161000e5784915b8483106113375750505050505090565b6001600160401b03833581811161000e57870191838387031261000e57835161135f81610a3e565b833583811161000e5787611374918601610b1e565b81526020928385013590811161000e57876113929160209601610b1e565b83820152815201920191611327565b506101c036600319011261000e576001600160401b0360043581811161000e576113cf903690600401610b1e565b60243582811161000e576113e7903690600401610b1e565b60443563ffffffff8116810361000e576114003661128c565b6114086108ec565b91611411610458565b936101a43596871161000e5761142e6104c49736906004016112fe565b95612407565b90600182811c92168015611464575b602083101461144e57565b634e487b7160e01b600052602260045260246000fd5b91607f1691611443565b60405190600082600f549161148283611434565b8083529260019081811690811561150857506001146114a9575b5061046692500383610a8f565b600f600090815291507f8d1108e10bcb7c27dddfc02ed9d693a074039d026cf4ea4240b40f7d581ac8025b8483106114ed575061046693505081016020013861149c565b81935090816020925483858a010152019101909185926114d4565b90506020925061046694915060ff191682840152151560051b8201013861149c565b604051906000826011549161153e83611434565b808352926001908181169081156115085750600114611564575061046692500383610a8f565b6011600090815291507f31ecc21a745e3968a04e9570e4425bc18fa8019c68028196b546d1669c200c685b8483106115a8575061046693505081016020013861149c565b81935090816020925483858a0101520191019091859261158f565b60405190600082601254916115d783611434565b8083529260019081811690811561150857506001146115fd575061046692500383610a8f565b6012600090815291507fbb8a6a4669ba250d26cd7a459eca9d215f8307e33aebe50379bc5a3617ec34445b848310611641575061046693505081016020013861149c565b81935090816020925483858a01015201910190918592611628565b604051906000826013549161167083611434565b808352926001908181169081156115085750600114611696575061046692500383610a8f565b6013600090815291507f66de8ffda797e3de9c05e8fc57b3bf0ec28a930d40b0d285d93c06501cf6a0905b8483106116da575061046693505081016020013861149c565b81935090816020925483858a010152019101909185926116c1565b604051906000826015549161170983611434565b80835292600190818116908115611508575060011461172f575061046692500383610a8f565b6015600090815291507f55f448fdea98c4d29eb340757ef0a66cd03dbb9538908a6a81d96026b71ec4755b848310611773575061046693505081016020013861149c565b81935090816020925483858a0101520191019091859261175a565b90604051918260008254926117a284611434565b90818452600194858116908160001461180f57506001146117cc575b505061046692500383610a8f565b9093915060005260209081600020936000915b8183106117f7575050610466935082010138806117be565b855488840185015294850194879450918301916117df565b91505061046694506020925060ff191682840152151560051b82010138806117be565b9794611894949361185e61010099946118a299949d9c9d8c5260208c61012091829101528c01906102de565b63ffffffff91821660408c0152941660608a0152151560808901526001600160a01b031660a088015286820360c08801526102de565b9084820360e08601526102de565b931515910152565b503461000e57602036600319011261000e57600435600052600c6020526040600020805461038b6118dd6001840161178e565b600284015493600b8101546118f46014830161178e565b9060ff60166119056015860161178e565b940154169360405197889763ffffffff9260ff60018060a01b038660081c16951693808460201c169316918a611832565b503461000e57600036600319011261000e576020601954604051908152f35b503461000e57604036600319011261000e57602060ff6119b260043561197a81610447565b6024359061198782610447565b60018060a01b03166000526005845260406000209060018060a01b0316600052602052604060002090565b54166040519015158152f35b9060028210156119cb5752565b634e487b7160e01b600052602160045260246000fd5b979495611a46899b9e9d9b611a7698611a396104669f9b969860606101609f9a611a629a611a23611a3192611a549b89526101808060208b01528901906102de565b9087820360408901526102de565b9401906119be565b8b820360808d01526102de565b9089820360a08b01526102de565b9087820360c08901526102de565b9160e08601528482036101008601526102de565b6101208301979097526101408201526001600160a01b03909216910152565b503461000e5760008060031936011261041357600d54604051918281600e54611abd81611434565b80845293600191808316908115611b985750600114611b3b575b5050611ae592500383610a8f565b61038b611af061146e565b60ff60105416611afe61152a565b611b066115c3565b611b0e61165c565b60145490611b1a6116f5565b92601654946017549660018060a01b0360185416986040519c8d9c8d6119e1565b9150600e82527fbb7b4a454dc3493923482f07822329ed19e8244eff582cc204f8554c3620c3fd5b848310611b7d5750611ae593505081016020013880611ad7565b81935090816020925483858a01015201910190918592611b63565b91505060209250611ae594915060ff191682840152151560051b8201013880611ad7565b503461000e57602036600319011261000e57600435611bda81610447565b611be2611cb4565b6001600160a01b03908116908115611c3657600b54826bffffffffffffffffffffffff60a01b821617600b55167f8be0079c531659141344cd1fd0a4f28419497f9722a3daafe3b4186f6b6457e0600080a3005b60405162461bcd60e51b815260206004820152602660248201527f4f776e61626c653a206e6577206f776e657220697320746865207a65726f206160448201526564647265737360d01b6064820152608490fd5b503461000e57600036600319011261000e57601b546040516001600160a01b039091168152602090f35b600b546001600160a01b03163303611cc857565b606460405162461bcd60e51b815260206004820152602060248201527f4f776e61626c653a2063616c6c6572206973206e6f7420746865206f776e65726044820152fd5b6001600160a01b03168015611d2c57600052600360205260406000205490565b60405162461bcd60e51b815260206004820152602960248201527f4552433732313a2061646472657373207a65726f206973206e6f7420612076616044820152683634b21037bbb732b960b91b6064820152608490fd5b15611d8a57565b60405162461bcd60e51b815260206004820152601860248201527f4552433732313a20696e76616c696420746f6b656e20494400000000000000006044820152606490fd5b6000908152600260205260409020546001600160a01b031661032f811515611d83565b15611df957565b60405162461bcd60e51b815260206004820152603d60248201527f4552433732313a20617070726f76652063616c6c6572206973206e6f7420746f60448201527f6b656e206f776e6572206f7220617070726f76656420666f7220616c6c0000006064820152608490fd5b600081815260026020526040902054611e87906001600160a01b03161515611d83565b6000908152600460205260409020546001600160a01b031690565b15611ea957565b60405162461bcd60e51b815260206004820152602d60248201527f4552433732313a2063616c6c6572206973206e6f7420746f6b656e206f776e6560448201526c1c881bdc88185c1c1c9bdd9959609a1b6064820152608490fd5b916104669391611f2b93611f1b6105ae8433611fa7565b611f26838383612079565b6123b4565b611f83565b60809060208152603260208201527f4552433732313a207472616e7366657220746f206e6f6e20455243373231526560408201527131b2b4bb32b91034b6b83632b6b2b73a32b960711b60608201520190565b15611f8a57565b60405162461bcd60e51b815280611fa360048201611f30565b0390fd5b6001600160a01b0380611fb984611dcf565b169281831692848414948515611fef575b50508315611fd9575b50505090565b611fe591929350611e64565b1614388080611fd3565b60009081526005602090815260408083206001600160a01b03949094168352929052205460ff1693503880611fca565b1561202657565b60405162461bcd60e51b815260206004820152602560248201527f4552433732313a207472616e736665722066726f6d20696e636f72726563742060448201526437bbb732b960d91b6064820152608490fd5b61209d9061208684611dcf565b6001600160a01b038281169390918216841461201f565b83169283156121905761210f826120b8878461216996613254565b6120ce856120c8610c968a611dcf565b1461201f565b6120f56120e5886000526004602052604060002090565b80546001600160a01b0319169055565b6001600160a01b0316600090815260036020526040902090565b80546000190190556001600160a01b03811660009081526003602052604090206001815401905561214a856000526002602052604060002090565b80546001600160a01b0319166001600160a01b03909216919091179055565b7fddf252ad1be2c89b69c2b068fc378daa952ba7f163c4a11628f55a4df523b3ef600080a4565b60405162461bcd60e51b8152602060048201526024808201527f4552433732313a207472616e7366657220746f20746865207a65726f206164646044820152637265737360e01b6064820152608490fd5b600082815260046020526040902080546001600160a01b0319166001600160a01b0383161790556001600160a01b038061221a84611dcf565b169116907f8c5be1e5ebec7d5bd14f71427d1e84f3dd0314c0f7b2291e5b200ac8c7c3b925600080a4565b9081602091031261000e575161032f81610238565b61032f939260809260018060a01b0316825260006020830152604082015281606082015201906102de565b6001600160a01b03918216815291166020820152604081019190915260806060820181905261032f929101906102de565b506040513d6000823e3d90fd5b3d156122ee573d906122d482610abd565b916122e26040519384610a8f565b82523d6000602084013e565b606090565b909190803b156123ac57612325602091600093604051948580948193630a85bd0160e11b998a8452336004850161225a565b03926001600160a01b03165af16000918161237c575b5061236e576123486122c3565b805190816123695760405162461bcd60e51b815280611fa360048201611f30565b602001fd5b6001600160e01b0319161490565b61239e91925060203d81116123a5575b6123968183610a8f565b810190612245565b903861233b565b503d61238c565b505050600190565b92909190823b156123e757612325926020926000604051809681958294630a85bd0160e11b9a8b85523360048601612285565b50505050600190565b50634e487b7160e01b600052603260045260246000fd5b91949092612413611cb4565b6019549661242b88600052600c602052604060002090565b9088825561248488600284016124488163ffffffff198154169055565b6124558860018701612691565b6124628960158701612691565b9067ffffffff0000000082549160201b169067ffffffff000000001916179055565b6003820160005b600481106125ff57505086806125ee575b6125dc576124e384600b84016124be8a829060ff801983541691151516179055565b8054610100600160a81b03191660089290921b610100600160a81b0316919091179055565b600c820160005b600481106125b557505050601601805460ff19166001179055612511600160195401601955565b601a5480612557575b50907f0a93fa2f927a74a47cf4ad0fc6b28a9facb0a73c2599f408488a39328c554b189461255292600d549760405196879687612938565b0390a3565b91909134106125a35760008080803461257a610c96601b5460018060a01b031690565b5af16125846122c3565b501561259157903861251a565b60405163036b46f360e01b8152600490fd5b604051630fb2c9dd60e41b8152600490fd5b80610e066125c66125d793866127a0565b516125d183866127bf565b9061282e565b6124ea565b6040516318a6b01160e21b8152600490fd5b506001600160a01b0384161561249c565b80610e0661261061262193886127a0565b5161261b83866127bf565b906127e1565b61248b565b50634e487b7160e01b600052600060045260246000fd5b90601f811161264b57505050565b600091825260208220906020601f850160051c83019410612687575b601f0160051c01915b82811061267c57505050565b818155600101612670565b9092508290612667565b91909182516001600160401b038111612760575b6126b9816126b38454611434565b8461263d565b602080601f83116001146126f55750819293946000926126ea575b50508160011b916000199060031b1c1916179055565b0151905038806126d4565b90601f1983169561270b85600052602060002090565b926000905b8882106127485750508360019596971061272f575b505050811b019055565b015160001960f88460031b161c19169055388080612725565b80600185968294968601518155019501930190612710565b6127686109eb565b6126a5565b50634e487b7160e01b600052601160045260246000fd5b6001906000198114612794570190565b61279c61276d565b0190565b9060048110156127b2575b60051b0190565b6127ba6123f0565b6127ab565b9060048110156127d4575b60011b0190600090565b6127dc6123f0565b6127ca565b9061046692600191612821575b805183556020828060a01b039101511691019060018060a01b03166bffffffffffffffffffffffff60a01b825416179055565b612829612626565b6127ee565b919061292b575b80519081516001600160401b03811161291e575b61285d816128578654611434565b8661263d565b6020928390601f83116001146128a95791806001949261046697969460009261289e575b5050600019600383901b1c191690841b1784555b01519101612691565b015190503880612881565b90601f198316916128bf87600052602060002090565b9260005b818110612907575092600195939285926104669998968895106128ee575b505050811b018455612895565b015160001960f88460031b161c191690553880806128e1565b9293876001819287860151815501950193016128c3565b6129266109eb565b612849565b612933612626565b612835565b94919363ffffffff61296e6101a096612960612986959b9a979b6101c0808c528b01906102de565b9089820360208b01526102de565b98600060408901521660608701526080860190611047565b15156101808401526001600160a01b0316910152565b156129a357565b60405162461bcd60e51b815260206004820152600c60248201526b114e90d85d139bd15e1a5cdd60a21b6044820152606490fd5b919082018092116129e457565b61046661276d565b156129f357565b60405162461bcd60e51b815260206004820152600a602482015269229d2737a9ba37b1b59760b11b6044820152606490fd5b9081602091031261000e575190565b906064820291808304606414901517156129e457565b818102929181159184041417156129e457565b6020906001600160401b038111612a755760051b0190565b6127ba6109eb565b90612a8782612a5d565b612a946040519182610a8f565b8281528092612aa5601f1991612a5d565b0190602036910137565b60405190612abc82610a3e565b600d82526c02a35b71021b7bab73a32b91d1609d1b6020830152565b60019063ffffffff809116908114612794570190565b6020918151811015612b03575b60051b010190565b612b0b6123f0565b612afb565b919082039182116129e457565b60a09092919260808101938152602094859384830152600180841b031660408201526080606082015285518094520193019160005b828110612b60575050505090565b835185529381019392810192600101612b52565b60405163a9059cbb60e01b60208201526001600160a01b03909216602483015260448083019390935291815261046691612bad82610a59565b612c17565b6040516323b872dd60e01b60208201526001600160a01b0392831660248201529290911660448301526064808301939093529181526104669160a082018281106001600160401b03821117612c0a575b604052612c17565b612c126109eb565b612c02565b604051612c75916001600160a01b0316612c3082610a3e565b6000806020958685527f5361666545524332303a206c6f772d6c6576656c2063616c6c206661696c656487860152868151910182855af1612c6f6122c3565b91612faf565b805180612c8157505050565b8183918101031261000e57810151612c98816108e2565b15612ca05750565b6084906040519062461bcd60e51b82526004820152602a60248201527f5361666545524332303a204552433230206f7065726174696f6e20646964206e6044820152691bdd081cdd58d8d9595960b21b6064820152fd5b90604051612d0481610a74565b600081526001600160a01b038316918215612de2576104669381611f2b94612d4a612d4483600052600260205260018060a01b0360406000205416151590565b15612e26565b612d53826133b8565b612d5d8284613380565b600082815260026020526040902054612d80906001600160a01b03161515612d44565b6001600160a01b038316600090815260036020526040902060018154019055612db78361214a846000526002602052604060002090565b60007fddf252ad1be2c89b69c2b068fc378daa952ba7f163c4a11628f55a4df523b3ef8180a46122f3565b606460405162461bcd60e51b815260206004820152602060248201527f4552433732313a206d696e7420746f20746865207a65726f20616464726573736044820152fd5b15612e2d57565b60405162461bcd60e51b815260206004820152601c60248201527f4552433732313a20746f6b656e20616c7265616479206d696e746564000000006044820152606490fd5b6000818152600260205260409020549192916001600160a01b031615612f53576000526020600a81526040600020908351906001600160401b038211612f46575b612ec782612ec18554611434565b8561263d565b80601f8311600114612ef55750819293946000926126ea5750508160011b916000199060031b1c1916179055565b90601f19831695612f0b85600052602060002090565b926000905b888210612f2e5750508360019596971061272f57505050811b019055565b80600185968294968601518155019501930190612f10565b612f4e6109eb565b612eb3565b60405162461bcd60e51b815260206004820152602e60248201527f45524337323155524953746f726167653a2055524920736574206f66206e6f6e60448201526d32bc34b9ba32b73a103a37b5b2b760911b6064820152608490fd5b919290156130115750815115612fc3575090565b3b15612fcc5790565b60405162461bcd60e51b815260206004820152601d60248201527f416464726573733a2063616c6c20746f206e6f6e2d636f6e74726163740000006044820152606490fd5b8251909150156130245750805190602001fd5b60405162461bcd60e51b8152908190611fa3906004830161031e565b60009190829161308560405180926130716020830195632d839cb360e21b87526040602485015260648401906102de565b90604483015203601f198101835282610a8f565b51906a636f6e736f6c652e6c6f675afa50565b6040908151916130a783610a59565b8260005b608081106130b857505050565b60209083516130c681610a3e565b60608082528382015281840152016130ab565b9060408051926130e884610a59565b600090845b600483106130fb5750505050565b600260019185519061310c82610a3e565b84548252838060a01b03848601541691602092838201528152019201920191906130ed565b90604080519261314084610a59565b600090845b600483106131535750505050565b600260019185519061316482610a3e565b61316d8561178e565b825261317a84860161178e565b9160209283820152815201920192019190613145565b9061046661324a60166131a1610ab0565b94805486526131b26001820161178e565b602087810191909152600282015463ffffffff80821660408a0152911c1660608701526131e1600382016130d9565b6080870152600b81015460ff8116151560a088015261320d9060081c6001600160a01b031660c0880152565b613219600c8201613131565b60e087015261322a6014820161178e565b61010087015261323c6015820161178e565b610120870152015460ff1690565b1515610140840152565b9091906001600160a01b0380821691826132975750613272836133b8565b8316806132855750506104669150613431565b0361328e575050565b61046691613380565b81851683036132a7575b50613272565b6132b081611d0c565b6000198101908111613373575b6133096000928684526007602052604084205483810361331a575b50836132ee886000526007602052604060002090565b556001600160a01b0316600090815260066020526040902090565b9082526020526040812055386132a1565b86855260066020526040852084865260205261336c60408620546133508460018060a01b03166000526006602052604060002090565b8388526020528060408820556000526007602052604060002090565b55386132d8565b61337b61276d565b6132bd565b60409061338c81611d0c565b9260009160018060a01b0316825260066020528282208483526020528083832055815260076020522055565b6008548160005260096020528060406000205568010000000000000000811015613424575b6001810180600855811015613417575b60086000527ff3f7a9fe364faab93b216da50a3214154f22a0a2b415b23a84c8169e8b636ee30155565b61341f6123f0565b6133ed565b61342c6109eb565b6133dd565b60088054600019929083810181811161353a575b6134e16000938492818452600960205284604085205491101561352d575b8684526134d07ff3f7a9fe364faab93b216da50a3214154f22a0a2b415b23a84c8169e8b636ee2958681015490831015613520575b88865280837ff3f7a9fe364faab93b216da50a3214154f22a0a2b415b23a84c8169e8b636ee301556000526009602052604060002090565b556000526009602052604060002090565b55825493841561350c57840193808510156134ff575b838352015555565b6135076123f0565b6134f7565b634e487b7160e01b83526031600452602483fd5b6135286123f0565b613498565b6135356123f0565b613463565b61354261276d565b61344556fea2646970667358221220d539aaa0258e66afa0c81a5706ee8dc3d2a79587f9afe0d8b5110369357973e164736f6c63430008110033bb7b4a454dc3493923482f07822329ed19e8244eff582cc204f8554c3620c3fdbb8a6a4669ba250d26cd7a459eca9d215f8307e33aebe50379bc5a3617ec344455f448fdea98c4d29eb340757ef0a66cd03dbb9538908a6a81d96026b71ec47531ecc21a745e3968a04e9570e4425bc18fa8019c68028196b546d1669c200c68290decd9548b62a8d60345a988386fc84ba6bc95484008f6362f93160ef3e56366de8ffda797e3de9c05e8fc57b3bf0ec28a930d40b0d285d93c06501cf6a090b10e2d527612073b26eecdfd717e6a320cf44b4afac2b0732d9fcbe2b7fa0cf68d1108e10bcb7c27dddfc02ed9d693a074039d026cf4ea4240b40f7d581ac802a264697066735822122033c3f28ffc51a8e09148393e57fd1e90e8843b5cb8c6fd31edf2a9efbe49d0b064736f6c63430008110033",
  "devdoc": {
    "kind": "dev",
    "methods": {
      "createNewEvent(string,string,(uint256,string,string,uint8,string,string,string,uint256,string,uint256,uint256,address))": {
        "details": "Create A new Event."
      },
      "owner()": {
        "details": "Returns the address of the current owner."
      },
      "renounceOwnership()": {
        "details": "Leaves the contract without owner. It will not be possible to call `onlyOwner` functions anymore. Can only be called by the current owner. NOTE: Renouncing ownership will leave the contract without an owner, thereby removing any functionality that is only available to the owner."
      },
      "transferOwnership(address)": {
        "details": "Transfers ownership of the contract to a new account (`newOwner`). Can only be called by the current owner."
      }
    },
    "version": 1
  },
  "userdoc": {
    "kind": "user",
    "methods": {},
    "version": 1
  },
  "storageLayout": {
    "storage": [
      {
        "astId": 7,
        "contract": "src/EventManager.sol:EventManager",
        "label": "_owner",
        "offset": 0,
        "slot": "0",
        "type": "t_address"
      },
      {
        "astId": 12529,
        "contract": "src/EventManager.sol:EventManager",
        "label": "_events",
        "offset": 0,
        "slot": "1",
        "type": "t_mapping(t_uint256,t_address)"
      },
      {
        "astId": 12532,
        "contract": "src/EventManager.sol:EventManager",
        "label": "_counter",
        "offset": 0,
        "slot": "2",
        "type": "t_struct(Counter)2463_storage"
      },
      {
        "astId": 12537,
        "contract": "src/EventManager.sol:EventManager",
        "label": "_ownersEvents",
        "offset": 0,
        "slot": "3",
        "type": "t_mapping(t_address,t_array(t_uint256)dyn_storage)"
      },
      {
        "astId": 12543,
        "contract": "src/EventManager.sol:EventManager",
        "label": "_ticketSales",
        "offset": 0,
        "slot": "4",
        "type": "t_mapping(t_address,t_array(t_struct(TicketSale)12525_storage)dyn_storage)"
      },
      {
        "astId": 12545,
        "contract": "src/EventManager.sol:EventManager",
        "label": "eventCreationFee",
        "offset": 0,
        "slot": "5",
        "type": "t_uint256"
      },
      {
        "astId": 12558,
        "contract": "src/EventManager.sol:EventManager",
        "label": "ticketCategoryCreationFee",
        "offset": 0,
        "slot": "6",
        "type": "t_uint256"
      }
    ],
    "types": {
      "t_address": {
        "encoding": "inplace",
        "label": "address",
        "numberOfBytes": "20"
      },
      "t_array(t_struct(TicketSale)12525_storage)dyn_storage": {
        "base": "t_struct(TicketSale)12525_storage",
        "encoding": "dynamic_array",
        "label": "struct EventManager.TicketSale[]",
        "numberOfBytes": "32"
      },
      "t_array(t_uint256)dyn_storage": {
        "base": "t_uint256",
        "encoding": "dynamic_array",
        "label": "uint256[]",
        "numberOfBytes": "32"
      },
      "t_mapping(t_address,t_array(t_struct(TicketSale)12525_storage)dyn_storage)": {
        "encoding": "mapping",
        "key": "t_address",
        "label": "mapping(address => struct EventManager.TicketSale[])",
        "numberOfBytes": "32",
        "value": "t_array(t_struct(TicketSale)12525_storage)dyn_storage"
      },
      "t_mapping(t_address,t_array(t_uint256)dyn_storage)": {
        "encoding": "mapping",
        "key": "t_address",
        "label": "mapping(address => uint256[])",
        "numberOfBytes": "32",
        "value": "t_array(t_uint256)dyn_storage"
      },
      "t_mapping(t_uint256,t_address)": {
        "encoding": "mapping",
        "key": "t_uint256",
        "label": "mapping(uint256 => address)",
        "numberOfBytes": "32",
        "value": "t_address"
      },
      "t_struct(Counter)2463_storage": {
        "encoding": "inplace",
        "label": "struct Counters.Counter",
        "members": [
          {
            "astId": 2462,
            "contract": "src/EventManager.sol:EventManager",
            "label": "_value",
            "offset": 0,
            "slot": "0",
            "type": "t_uint256"
          }
        ],
        "numberOfBytes": "32"
      },
      "t_struct(TicketSale)12525_storage": {
        "encoding": "inplace",
        "label": "struct EventManager.TicketSale",
        "members": [
          {
            "astId": 12520,
            "contract": "src/EventManager.sol:EventManager",
            "label": "eventId",
            "offset": 0,
            "slot": "0",
            "type": "t_uint256"
          },
          {
            "astId": 12522,
            "contract": "src/EventManager.sol:EventManager",
            "label": "startTicket",
            "offset": 0,
            "slot": "1",
            "type": "t_uint256"
          },
          {
            "astId": 12524,
            "contract": "src/EventManager.sol:EventManager",
            "label": "endTicket",
            "offset": 0,
            "slot": "2",
            "type": "t_uint256"
          }
        ],
        "numberOfBytes": "96"
      },
      "t_uint256": {
        "encoding": "inplace",
        "label": "uint256",
        "numberOfBytes": "32"
      }
    }
  }
}