{
  "address": "0x2F91F4B170F0D4897FdD24A94833F3485ed3372a",
  "abi": [
    {
      "inputs": [],
      "stateMutability": "nonpayable",
      "type": "constructor"
    },
    {
      "anonymous": false,
      "inputs": [
        {
          "indexed": true,
          "internalType": "address",
          "name": "owner",
          "type": "address"
        },
        {
          "indexed": true,
          "internalType": "address",
          "name": "approved",
          "type": "address"
        },
        {
          "indexed": true,
          "internalType": "uint256",
          "name": "tokenId",
          "type": "uint256"
        }
      ],
      "name": "Approval",
      "type": "event"
    },
    {
      "anonymous": false,
      "inputs": [
        {
          "indexed": true,
          "internalType": "address",
          "name": "owner",
          "type": "address"
        },
        {
          "indexed": true,
          "internalType": "address",
          "name": "operator",
          "type": "address"
        },
        {
          "indexed": false,
          "internalType": "bool",
          "name": "approved",
          "type": "bool"
        }
      ],
      "name": "ApprovalForAll",
      "type": "event"
    },
    {
      "anonymous": false,
      "inputs": [
        {
          "indexed": true,
          "internalType": "address",
          "name": "previousOwner",
          "type": "address"
        },
        {
          "indexed": true,
          "internalType": "address",
          "name": "newOwner",
          "type": "address"
        }
      ],
      "name": "OwnershipTransferred",
      "type": "event"
    },
    {
      "anonymous": false,
      "inputs": [
        {
          "indexed": true,
          "internalType": "address",
          "name": "from",
          "type": "address"
        },
        {
          "indexed": true,
          "internalType": "address",
          "name": "to",
          "type": "address"
        },
        {
          "indexed": true,
          "internalType": "uint256",
          "name": "tokenId",
          "type": "uint256"
        }
      ],
      "name": "Transfer",
      "type": "event"
    },
    {
      "inputs": [
        {
          "internalType": "address",
          "name": "to",
          "type": "address"
        },
        {
          "internalType": "uint256",
          "name": "tokenId",
          "type": "uint256"
        }
      ],
      "name": "approve",
      "outputs": [],
      "stateMutability": "nonpayable",
      "type": "function"
    },
    {
      "inputs": [
        {
          "internalType": "address",
          "name": "owner",
          "type": "address"
        }
      ],
      "name": "balanceOf",
      "outputs": [
        {
          "internalType": "uint256",
          "name": "",
          "type": "uint256"
        }
      ],
      "stateMutability": "view",
      "type": "function"
    },
    {
      "inputs": [
        {
          "internalType": "uint256",
          "name": "tokenId",
          "type": "uint256"
        }
      ],
      "name": "getApproved",
      "outputs": [
        {
          "internalType": "address",
          "name": "",
          "type": "address"
        }
      ],
      "stateMutability": "view",
      "type": "function"
    },
    {
      "inputs": [
        {
          "internalType": "address",
          "name": "owner",
          "type": "address"
        },
        {
          "internalType": "address",
          "name": "operator",
          "type": "address"
        }
      ],
      "name": "isApprovedForAll",
      "outputs": [
        {
          "internalType": "bool",
          "name": "",
          "type": "bool"
        }
      ],
      "stateMutability": "view",
      "type": "function"
    },
    {
      "inputs": [
        {
          "internalType": "address",
          "name": "recipient",
          "type": "address"
        }
      ],
      "name": "mintToken",
      "outputs": [],
      "stateMutability": "nonpayable",
      "type": "function"
    },
    {
      "inputs": [],
      "name": "name",
      "outputs": [
        {
          "internalType": "string",
          "name": "",
          "type": "string"
        }
      ],
      "stateMutability": "view",
      "type": "function"
    },
    {
      "inputs": [],
      "name": "owner",
      "outputs": [
        {
          "internalType": "address",
          "name": "",
          "type": "address"
        }
      ],
      "stateMutability": "view",
      "type": "function"
    },
    {
      "inputs": [
        {
          "internalType": "uint256",
          "name": "tokenId",
          "type": "uint256"
        }
      ],
      "name": "ownerOf",
      "outputs": [
        {
          "internalType": "address",
          "name": "",
          "type": "address"
        }
      ],
      "stateMutability": "view",
      "type": "function"
    },
    {
      "inputs": [
        {
          "internalType": "address",
          "name": "",
          "type": "address"
        },
        {
          "internalType": "uint256",
          "name": "",
          "type": "uint256"
        }
      ],
      "name": "ownershipRecord",
      "outputs": [
        {
          "internalType": "uint256",
          "name": "tokenId",
          "type": "uint256"
        },
        {
          "internalType": "uint256",
          "name": "timeStamp",
          "type": "uint256"
        },
        {
          "internalType": "string",
          "name": "tokenURI",
          "type": "string"
        }
      ],
      "stateMutability": "view",
      "type": "function"
    },
    {
      "inputs": [],
      "name": "renounceOwnership",
      "outputs": [],
      "stateMutability": "nonpayable",
      "type": "function"
    },
    {
      "inputs": [
        {
          "internalType": "address",
          "name": "from",
          "type": "address"
        },
        {
          "internalType": "address",
          "name": "to",
          "type": "address"
        },
        {
          "internalType": "uint256",
          "name": "tokenId",
          "type": "uint256"
        }
      ],
      "name": "safeTransferFrom",
      "outputs": [],
      "stateMutability": "nonpayable",
      "type": "function"
    },
    {
      "inputs": [
        {
          "internalType": "address",
          "name": "from",
          "type": "address"
        },
        {
          "internalType": "address",
          "name": "to",
          "type": "address"
        },
        {
          "internalType": "uint256",
          "name": "tokenId",
          "type": "uint256"
        },
        {
          "internalType": "bytes",
          "name": "data",
          "type": "bytes"
        }
      ],
      "name": "safeTransferFrom",
      "outputs": [],
      "stateMutability": "nonpayable",
      "type": "function"
    },
    {
      "inputs": [
        {
          "internalType": "address",
          "name": "operator",
          "type": "address"
        },
        {
          "internalType": "bool",
          "name": "approved",
          "type": "bool"
        }
      ],
      "name": "setApprovalForAll",
      "outputs": [],
      "stateMutability": "nonpayable",
      "type": "function"
    },
    {
      "inputs": [
        {
          "internalType": "bytes4",
          "name": "interfaceId",
          "type": "bytes4"
        }
      ],
      "name": "supportsInterface",
      "outputs": [
        {
          "internalType": "bool",
          "name": "",
          "type": "bool"
        }
      ],
      "stateMutability": "view",
      "type": "function"
    },
    {
      "inputs": [],
      "name": "symbol",
      "outputs": [
        {
          "internalType": "string",
          "name": "",
          "type": "string"
        }
      ],
      "stateMutability": "view",
      "type": "function"
    },
    {
      "inputs": [
        {
          "internalType": "uint256",
          "name": "tokenId",
          "type": "uint256"
        }
      ],
      "name": "tokenURI",
      "outputs": [
        {
          "internalType": "string",
          "name": "",
          "type": "string"
        }
      ],
      "stateMutability": "view",
      "type": "function"
    },
    {
      "inputs": [
        {
          "internalType": "address",
          "name": "from",
          "type": "address"
        },
        {
          "internalType": "address",
          "name": "to",
          "type": "address"
        },
        {
          "internalType": "uint256",
          "name": "tokenId",
          "type": "uint256"
        }
      ],
      "name": "transferFrom",
      "outputs": [],
      "stateMutability": "nonpayable",
      "type": "function"
    },
    {
      "inputs": [
        {
          "internalType": "address",
          "name": "newOwner",
          "type": "address"
        }
      ],
      "name": "transferOwnership",
      "outputs": [],
      "stateMutability": "nonpayable",
      "type": "function"
    }
  ],
  "transactionHash": "0xa15c0ebdceae0d5690ef069e579bce0f523572724dc2f4432fd88c1f61ff243f",
  "args": [],
  "numDeployments": 1,
  "solcInputHash": "179e42e9d727e5e51fbf3977c08a9cb7",
  "bytecode": "0x608060409080825234620004f9576200001881620004fe565b6008815260206712195b1b1bd3999d60c21b818301528251916200003c83620004fe565b6004808452631213919560e21b8385015260008054336001600160a01b0319808316821784559295939493916001600160a01b03167f8be0079c531659141344cd1fd0a4f28419497f9722a3daafe3b4186f6b6457e08780a38251956001600160401b0393848811620004e6576001978854918983811c93168015620004db575b85841014620003e7578190601f9384811162000488575b50859084831160011462000424578a9262000418575b5050600019600383901b1c191690891b1788555b81519185831162000405576002548981811c91168015620003fa575b85821014620003e7579081838594931162000391575b50849183116001146200032b5788926200031f575b5050600019600383901b1c191690871b176002555b8460075586519281840190848210908211176200030c5787528483523315620002cb57600080526003602081905260008051602062001cc2833981519152546200023694939290620001b9906001600160a01b031615155b1562000554565b60008052600360205260008051602062001cc283398151915254620001e9906001600160a01b03161515620001b2565b338752858152888720888154019055868052528685209033908254161790558333817fddf252ad1be2c89b69c2b068fc378daa952ba7f163c4a11628f55a4df523b3ef8180a433620005a1565b1562000270576007549283018093116200025d5750506007555161154490816200075e8239f35b634e487b7160e01b825260119052602490fd5b620002c790845191829162461bcd60e51b83528201608090602081526032602082015260008051602062001ca283398151915260408201527131b2b4bb32b91034b6b83632b6b2b73a32b960711b60608201520190565b0390fd5b838160649289519262461bcd60e51b845283015260248201527f4552433732313a206d696e7420746f20746865207a65726f20616464726573736044820152fd5b634e487b7160e01b865260418552602486fd5b01519050388062000145565b600289528489208a94509190601f1984168a5b878282106200037a575050841162000360575b505050811b016002556200015a565b015160001960f88460031b161c1916905538808062000351565b8385015186558d979095019493840193016200033e565b90919250600289528489208380860160051c820192878710620003dd575b9186958d929594930160051c01915b828110620003ce57505062000130565b8b81558695508c9101620003be565b92508192620003af565b634e487b7160e01b895260228852602489fd5b90607f16906200011a565b634e487b7160e01b885260418752602488fd5b015190503880620000ea565b8b8b52868b208c94509190601f1984168c5b8982821062000471575050841162000457575b505050811b018855620000fe565b015160001960f88460031b161c1916905538808062000449565b8385015186558f9790950194938401930162000436565b9091508a8a52858a208480850160051c820192888610620004d1575b918d91869594930160051c01915b828110620004c2575050620000d4565b8c81558594508d9101620004b2565b92508192620004a4565b92607f1692620000bd565b634e487b7160e01b875260418652602487fd5b600080fd5b604081019081106001600160401b038211176200051a57604052565b634e487b7160e01b600052604160045260246000fd5b601f909101601f19168101906001600160401b038211908210176200051a57604052565b156200055c57565b60405162461bcd60e51b815260206004820152601c60248201527f4552433732313a20746f6b656e20616c7265616479206d696e746564000000006044820152606490fd5b9091600090823b15620007545760405192630a85bd0160e11b9081855233600486015283602486015283604486015260806064860152855190816084870152845b8281106200073d57508580975082918660a48395601f999a010152818860a460209b8c968b199b8c910116810103019260018060a01b03165af1859181620006f2575b50620006e0575050503d600014620006d6573d6001600160401b038111620006c2576200065d8460405193601f840116018362000530565b81528091833d92013e5b80519182620006bf5760405162461bcd60e51b8152602060048201526032602482015260008051602062001ca283398151915260448201527131b2b4bb32b91034b6b83632b6b2b73a32b960711b6064820152608490fd5b01fd5b634e487b7160e01b83526041600452602483fd5b5050606062000667565b6001600160e01b031916149350915050565b9091508681813d831162000735575b6200070d818362000530565b810103126200073157516001600160e01b0319811681036200073157903862000625565b8580fd5b503d62000701565b80602080928a01015160a4828a01015201620005e2565b9250505060019056fe6040608081526004908136101561001557600080fd5b600091823560e01c806301173a7414610a5657806301ffc9a7146109e957806306fdde0314610941578063081812fc14610921578063095ea7b3146107b157806323b872dd1461078c57806337746cc51461067957806342842e0e1461061c5780636352211e146105eb57806370a082311461055a578063715018a6146105005780638da5cb5b146104d857806395d89b41146103f3578063a22cb46514610324578063b88d4fde1461026e578063c87b56dd146101fe578063e985e9c5146101ac5763f2fde38b146100e757600080fd5b346101a85760203660031901126101a857610100610dda565b90610109610f5c565b6001600160a01b0391821692831561015657505082546001600160a01b0319811683178455167f8be0079c531659141344cd1fd0a4f28419497f9722a3daafe3b4186f6b6457e08380a380f35b906020608492519162461bcd60e51b8352820152602660248201527f4f776e61626c653a206e6577206f776e657220697320746865207a65726f206160448201526564647265737360d01b6064820152fd5b8280fd5b5050346101fa57806003193601126101fa5760ff816020936101cc610dda565b6101d4610df5565b6001600160a01b0391821683526006875283832091168252855220549151911615158152f35b5080fd5b509190346101fa5760203660031901126101fa5761023d61023861026a9435600052600360205260018060a01b0360406000205416151590565b610fb4565b81815161024981610eec565b5280519161025683610eec565b825251918291602083526020830190610e0b565b0390f35b5090346101a85760803660031901126101a857610289610dda565b90610292610df5565b604435906064359467ffffffffffffffff8611610320573660238701121561032057850135936102cd6102c486610f40565b94519485610f1e565b84845286366024878901011161031d5760208661031597602461031a9a018389013786010152610305610300843361113d565b611064565b610310838383611205565b611437565b611119565b80f35b80fd5b8680fd5b5090346101a857806003193601126101a85761033e610dda565b90602435918215158093036103ef576001600160a01b0316923384146103ad5750338452600660205280842083855260205280842060ff1981541660ff8416179055519081527f17307eab39ab6107e8899845ad3d59bd9653f200f220920489ca2b5937696c3160203392a380f35b6020606492519162461bcd60e51b8352820152601960248201527f4552433732313a20617070726f766520746f2063616c6c6572000000000000006044820152fd5b8480fd5b5050346101fa57816003193601126101fa578051908260025461041581610eb2565b808552916001918083169081156104b05750600114610453575b5050506104418261026a940383610f1e565b51918291602083526020830190610e0b565b9450600285527f405787fa12a823e0f2b7631cc41b3ba8828b3321ca811111fa75cd3aa3bb5ace5b8286106104985750505061044182602061026a958201019461042f565b8054602087870181019190915290950194810161047b565b61026a97508693506020925061044194915060ff191682840152151560051b8201019461042f565b5050346101fa57816003193601126101fa57905490516001600160a01b039091168152602090f35b833461031d578060031936011261031d57610519610f5c565b80546001600160a01b03198116825581906001600160a01b03167f8be0079c531659141344cd1fd0a4f28419497f9722a3daafe3b4186f6b6457e08280a380f35b50913461031d57602036600319011261031d576001600160a01b0361057d610dda565b1680156105965781526020928352819020549051908152f35b825162461bcd60e51b8152602081860152602960248201527f4552433732313a2061646472657373207a65726f206973206e6f7420612076616044820152683634b21037bbb732b960b91b6064820152608490fd5b50913461031d57602036600319011261031d575061060b60209235611000565b90516001600160a01b039091168152f35b509190346101fa5761062d36610e4b565b91835193602085019085821067ffffffffffffffff831117610666579161031a959391610315959352868452610305610300843361113d565b634e487b7160e01b875260418852602487fd5b82843461031d578160031936011261031d57610693610dda565b6001600160a01b03168152600860209081528282208054919391602435919082101561078857906106c391610e80565b50805491600191600283820154910186835194878354936106e385610eb2565b808952948381169081156107645750600114610729575b5050508561026a8660608787610712848e0385610f1e565b815196879687528601528401526060830190610e0b565b908094939950528783205b8284106107515750505083019094019380868461026a60606106fa565b80548785018a0152928801928101610734565b60ff1916858a01525050505090151560051b840101945080868461026a60606106fa565b8380fd5b833461031d5761031a61079e36610e4b565b916107ac610300843361113d565b611205565b50346101a857816003193601126101a8576107ca610dda565b6024359290916001600160a01b03919082806107e587611000565b169416938085146108d4578033149081156108b5575b501561084d57508385526005602052842080546001600160a01b0319168317905561082583611000565b167f8c5be1e5ebec7d5bd14f71427d1e84f3dd0314c0f7b2291e5b200ac8c7c3b9258480a480f35b6020608492519162461bcd60e51b8352820152603d60248201527f4552433732313a20617070726f76652063616c6c6572206973206e6f7420746f60448201527f6b656e206f776e6572206f7220617070726f76656420666f7220616c6c0000006064820152fd5b90508652600660205281862033875260205260ff8287205416386107fb565b506020608492519162461bcd60e51b8352820152602160248201527f4552433732313a20617070726f76616c20746f2063757272656e74206f776e656044820152603960f91b6064820152fd5b50913461031d57602036600319011261031d575061060b60209235611026565b5050346101fa57816003193601126101fa5780519082600180549161096583610eb2565b808652928281169081156104b0575060011461098d575050506104418261026a940383610f1e565b94508085527fb10e2d527612073b26eecdfd717e6a320cf44b4afac2b0732d9fcbe2b7fa0cf65b8286106109d15750505061044182602061026a958201019461042f565b805460208787018101919091529095019481016109b4565b50346101a85760203660031901126101a857359063ffffffff60e01b82168092036101a857602092506380ac58cd60e01b8214918215610a45575b8215610a34575b50519015158152f35b6301ffc9a760e01b14915038610a2b565b635b5e139f60e01b81149250610a24565b50346101a8576020918260031936011261078857610a72610dda565b92610a7b610f5c565b6007548251610a8981610eec565b8681526001600160a01b038616918215610d9957600081815260036020526040902054610b4992610315929091610acc906001600160a01b031615155b156114c2565b600081815260036020526040902054610aef906001600160a01b03161515610ac6565b848a52878652868a2080546001908101909155818b5260038752878b2080546001600160a01b031916871790559881868c7fddf252ad1be2c89b69c2b068fc378daa952ba7f163c4a11628f55a4df523b3ef8180a461131b565b855260088152818520600754835167ffffffffffffffff939290916060830185811184821017610d735786528252828201904282528551956060870187811087821117610d86578152603d87527f68747470733a2f2f6d69726f2e6d656469756d2e636f6d2f6d61782f31313230858801527f2f312a6b5f45593764634c5942355a356b387a684d637636672e706e6700000081880152830195865280549068010000000000000000821015610d735790610c08918982018155610e80565b929092610d6157906002929151825551878201550192518051928311610d4e57908291610c358554610eb2565b601f8111610cfc575b5081601f8411600114610c9957508792610c8e575b5050600019600383901b1c191690841b1790555b600754918201809211610c7b575060075580f35b634e487b7160e01b835260119052602482fd5b015190503880610c53565b9190879450601f198416868a52838a20938a905b828210610ce35750508411610cca575b505050811b019055610c67565b015160001960f88460031b161c19169055388080610cbd565b8484015186558a97909501949384019390810190610cad565b90919250848852828820601f850160051c810191848610610d44575b8594939291601f8a920160051c01915b828110610d36575050610c3e565b8a8155869550899101610d28565b9091508190610d18565b634e487b7160e01b875260418552602487fd5b634e487b7160e01b8952888752602489fd5b634e487b7160e01b8a526041885260248afd5b634e487b7160e01b8b526041895260248bfd5b606486858088519262461bcd60e51b845283015260248201527f4552433732313a206d696e7420746f20746865207a65726f20616464726573736044820152fd5b600435906001600160a01b0382168203610df057565b600080fd5b602435906001600160a01b0382168203610df057565b919082519283825260005b848110610e37575050826000602080949584010152601f8019910116010190565b602081830181015184830182015201610e16565b6060906003190112610df0576001600160a01b03906004358281168103610df057916024359081168103610df0579060443590565b8054821015610e9c576000526003602060002091020190600090565b634e487b7160e01b600052603260045260246000fd5b90600182811c92168015610ee2575b6020831014610ecc57565b634e487b7160e01b600052602260045260246000fd5b91607f1691610ec1565b6020810190811067ffffffffffffffff821117610f0857604052565b634e487b7160e01b600052604160045260246000fd5b90601f8019910116810190811067ffffffffffffffff821117610f0857604052565b67ffffffffffffffff8111610f0857601f01601f191660200190565b6000546001600160a01b03163303610f7057565b606460405162461bcd60e51b815260206004820152602060248201527f4f776e61626c653a2063616c6c6572206973206e6f7420746865206f776e65726044820152fd5b15610fbb57565b60405162461bcd60e51b815260206004820152601860248201527f4552433732313a20696e76616c696420746f6b656e20494400000000000000006044820152606490fd5b6000908152600360205260409020546001600160a01b0316611023811515610fb4565b90565b600081815260036020526040902054611049906001600160a01b03161515610fb4565b6000908152600560205260409020546001600160a01b031690565b1561106b57565b60405162461bcd60e51b815260206004820152602d60248201527f4552433732313a2063616c6c6572206973206e6f7420746f6b656e206f776e6560448201526c1c881bdc88185c1c1c9bdd9959609a1b6064820152608490fd5b60809060208152603260208201527f4552433732313a207472616e7366657220746f206e6f6e20455243373231526560408201527131b2b4bb32b91034b6b83632b6b2b73a32b960711b60608201520190565b1561112057565b60405162461bcd60e51b815280611139600482016110c6565b0390fd5b906001600160a01b03808061115184611000565b16931691838314938415611184575b50831561116e575b50505090565b61117a91929350611026565b1614388080611168565b909350600052600660205260406000208260005260205260ff604060002054169238611160565b156111b257565b60405162461bcd60e51b815260206004820152602560248201527f4552433732313a207472616e736665722066726f6d20696e636f72726563742060448201526437bbb732b960d91b6064820152608490fd5b9061122d9161121384611000565b6001600160a01b03939184169284929091831684146111ab565b169182156112ca578161124a9161124386611000565b16146111ab565b7fddf252ad1be2c89b69c2b068fc378daa952ba7f163c4a11628f55a4df523b3ef60008481526005602052604081206bffffffffffffffffffffffff60a01b9081815416905583825260046020526040822060001981540190558482526040822060018154019055858252600360205284604083209182541617905580a4565b60405162461bcd60e51b8152602060048201526024808201527f4552433732313a207472616e7366657220746f20746865207a65726f206164646044820152637265737360e01b6064820152608490fd5b9192600092909190803b1561142d57611369946040518092630a85bd0160e11b9485835233600484015287602484015260448301526080606483015281878160209a8b966084830190610e0b565b03926001600160a01b03165af18491816113ed575b506113dc575050503d6000146113d4573d61139881610f40565b906113a66040519283610f1e565b81528091833d92013e5b805191826113d15760405162461bcd60e51b815280611139600482016110c6565b01fd5b5060606113b0565b6001600160e01b0319161492509050565b9091508581813d8311611426575b6114058183610f1e565b810103126103ef57516001600160e01b0319811681036103ef57903861137e565b503d6113fb565b5050915050600190565b9293600093909291803b156114b7579484916114919660405180948193630a85bd0160e11b9788845233600485015260018060a01b0380921660248501526044840152608060648401528260209b8c976084830190610e0b565b0393165af18491816113ed57506113dc575050503d6000146113d4573d61139881610f40565b505050915050600190565b156114c957565b60405162461bcd60e51b815260206004820152601c60248201527f4552433732313a20746f6b656e20616c7265616479206d696e746564000000006044820152606490fdfea2646970667358221220284573f84cf3b568fde8d30087641fd2ea36d8031db2442e454bf9b2d954720b64736f6c634300081100334552433732313a207472616e7366657220746f206e6f6e2045524337323152653617319a054d772f909f7c479a2cebe5066e836a939412e32403c99029b92eff",
  "devdoc": {
    "kind": "dev",
    "methods": {
      "approve(address,uint256)": {
        "details": "See {IERC721-approve}."
      },
      "balanceOf(address)": {
        "details": "See {IERC721-balanceOf}."
      },
      "getApproved(uint256)": {
        "details": "See {IERC721-getApproved}."
      },
      "isApprovedForAll(address,address)": {
        "details": "See {IERC721-isApprovedForAll}."
      },
      "name()": {
        "details": "See {IERC721Metadata-name}."
      },
      "owner()": {
        "details": "Returns the address of the current owner."
      },
      "ownerOf(uint256)": {
        "details": "See {IERC721-ownerOf}."
      },
      "renounceOwnership()": {
        "details": "Leaves the contract without owner. It will not be possible to call `onlyOwner` functions anymore. Can only be called by the current owner. NOTE: Renouncing ownership will leave the contract without an owner, thereby removing any functionality that is only available to the owner."
      },
      "safeTransferFrom(address,address,uint256)": {
        "details": "See {IERC721-safeTransferFrom}."
      },
      "safeTransferFrom(address,address,uint256,bytes)": {
        "details": "See {IERC721-safeTransferFrom}."
      },
      "setApprovalForAll(address,bool)": {
        "details": "See {IERC721-setApprovalForAll}."
      },
      "supportsInterface(bytes4)": {
        "details": "See {IERC165-supportsInterface}."
      },
      "symbol()": {
        "details": "See {IERC721Metadata-symbol}."
      },
      "tokenURI(uint256)": {
        "details": "See {IERC721Metadata-tokenURI}."
      },
      "transferFrom(address,address,uint256)": {
        "details": "See {IERC721-transferFrom}."
      },
      "transferOwnership(address)": {
        "details": "Transfers ownership of the contract to a new account (`newOwner`). Can only be called by the current owner."
      }
    },
    "version": 1
  },
  "userdoc": {
    "kind": "user",
    "methods": {},
    "version": 1
  },
  "storageLayout": {
    "storage": [
      {
        "astId": 7,
        "contract": "src/Nft.sol:Nft",
        "label": "_owner",
        "offset": 0,
        "slot": "0",
        "type": "t_address"
      },
      {
        "astId": 138,
        "contract": "src/Nft.sol:Nft",
        "label": "_name",
        "offset": 0,
        "slot": "1",
        "type": "t_string_storage"
      },
      {
        "astId": 140,
        "contract": "src/Nft.sol:Nft",
        "label": "_symbol",
        "offset": 0,
        "slot": "2",
        "type": "t_string_storage"
      },
      {
        "astId": 144,
        "contract": "src/Nft.sol:Nft",
        "label": "_owners",
        "offset": 0,
        "slot": "3",
        "type": "t_mapping(t_uint256,t_address)"
      },
      {
        "astId": 148,
        "contract": "src/Nft.sol:Nft",
        "label": "_balances",
        "offset": 0,
        "slot": "4",
        "type": "t_mapping(t_address,t_uint256)"
      },
      {
        "astId": 152,
        "contract": "src/Nft.sol:Nft",
        "label": "_tokenApprovals",
        "offset": 0,
        "slot": "5",
        "type": "t_mapping(t_uint256,t_address)"
      },
      {
        "astId": 158,
        "contract": "src/Nft.sol:Nft",
        "label": "_operatorApprovals",
        "offset": 0,
        "slot": "6",
        "type": "t_mapping(t_address,t_mapping(t_address,t_bool))"
      },
      {
        "astId": 2641,
        "contract": "src/Nft.sol:Nft",
        "label": "tokenId",
        "offset": 0,
        "slot": "7",
        "type": "t_uint256"
      },
      {
        "astId": 2647,
        "contract": "src/Nft.sol:Nft",
        "label": "ownershipRecord",
        "offset": 0,
        "slot": "8",
        "type": "t_mapping(t_address,t_array(t_struct(tokenMetaData)2654_storage)dyn_storage)"
      }
    ],
    "types": {
      "t_address": {
        "encoding": "inplace",
        "label": "address",
        "numberOfBytes": "20"
      },
      "t_array(t_struct(tokenMetaData)2654_storage)dyn_storage": {
        "base": "t_struct(tokenMetaData)2654_storage",
        "encoding": "dynamic_array",
        "label": "struct Nft.tokenMetaData[]",
        "numberOfBytes": "32"
      },
      "t_bool": {
        "encoding": "inplace",
        "label": "bool",
        "numberOfBytes": "1"
      },
      "t_mapping(t_address,t_array(t_struct(tokenMetaData)2654_storage)dyn_storage)": {
        "encoding": "mapping",
        "key": "t_address",
        "label": "mapping(address => struct Nft.tokenMetaData[])",
        "numberOfBytes": "32",
        "value": "t_array(t_struct(tokenMetaData)2654_storage)dyn_storage"
      },
      "t_mapping(t_address,t_bool)": {
        "encoding": "mapping",
        "key": "t_address",
        "label": "mapping(address => bool)",
        "numberOfBytes": "32",
        "value": "t_bool"
      },
      "t_mapping(t_address,t_mapping(t_address,t_bool))": {
        "encoding": "mapping",
        "key": "t_address",
        "label": "mapping(address => mapping(address => bool))",
        "numberOfBytes": "32",
        "value": "t_mapping(t_address,t_bool)"
      },
      "t_mapping(t_address,t_uint256)": {
        "encoding": "mapping",
        "key": "t_address",
        "label": "mapping(address => uint256)",
        "numberOfBytes": "32",
        "value": "t_uint256"
      },
      "t_mapping(t_uint256,t_address)": {
        "encoding": "mapping",
        "key": "t_uint256",
        "label": "mapping(uint256 => address)",
        "numberOfBytes": "32",
        "value": "t_address"
      },
      "t_string_storage": {
        "encoding": "bytes",
        "label": "string",
        "numberOfBytes": "32"
      },
      "t_struct(tokenMetaData)2654_storage": {
        "encoding": "inplace",
        "label": "struct Nft.tokenMetaData",
        "members": [
          {
            "astId": 2649,
            "contract": "src/Nft.sol:Nft",
            "label": "tokenId",
            "offset": 0,
            "slot": "0",
            "type": "t_uint256"
          },
          {
            "astId": 2651,
            "contract": "src/Nft.sol:Nft",
            "label": "timeStamp",
            "offset": 0,
            "slot": "1",
            "type": "t_uint256"
          },
          {
            "astId": 2653,
            "contract": "src/Nft.sol:Nft",
            "label": "tokenURI",
            "offset": 0,
            "slot": "2",
            "type": "t_string_storage"
          }
        ],
        "numberOfBytes": "96"
      },
      "t_uint256": {
        "encoding": "inplace",
        "label": "uint256",
        "numberOfBytes": "32"
      }
    }
  }
}